{"contracts/FairBazaar.sol":{"FairBazaar":{"abi":[{"inputs":[{"internalType":"address","name":"_agent","type":"address"},{"internalType":"address","name":"_arbiter","type":"address"},{"internalType":"uint64","name":"_deliveryWindow","type":"uint64"},{"internalType":"uint64","name":"_disputeWindow","type":"uint64"},{"internalType":"uint16","name":"_disputeStakeBps","type":"uint16"},{"internalType":"uint16","name":"_feeBps","type":"uint16"}],"stateMutability":"nonpayable","type":"constructor"},{"anonymous":false,"inputs":[{"indexed":true,"internalType":"uint256","name":"orderId","type":"uint256"},{"indexed":false,"internalType":"bytes","name":"encSecretForBuyer","type":"bytes"}],"name":"Delivered","type":"event"},{"anonymous":false,"inputs":[{"indexed":true,"internalType":"uint256","name":"orderId","type":"uint256"},{"indexed":true,"internalType":"address","name":"buyer","type":"address"},{"indexed":false,"internalType":"string","name":"reason","type":"string"}],"name":"DisputeOpened","type":"event"},{"anonymous":false,"inputs":[{"indexed":true,"internalType":"uint256","name":"orderId","type":"uint256"},{"indexed":false,"internalType":"enum FairBazaar.Verdict","name":"verdict","type":"uint8"},{"indexed":false,"internalType":"string","name":"reasoning","type":"string"}],"name":"DisputeResolved","type":"event"},{"anonymous":false,"inputs":[{"indexed":true,"internalType":"uint256","name":"listingId","type":"uint256"},{"indexed":true,"internalType":"address","name":"seller","type":"address"},{"indexed":false,"internalType":"uint96","name":"price","type":"uint96"},{"indexed":false,"internalType":"string","name":"title","type":"string"}],"name":"ListingCreated","type":"event"},{"anonymous":false,"inputs":[{"indexed":true,"internalType":"uint256","name":"listingId","type":"uint256"},{"indexed":false,"internalType":"bool","name":"active","type":"bool"}],"name":"ListingToggled","type":"event"},{"anonymous":false,"inputs":[{"indexed":true,"internalType":"uint256","name":"orderId","type":"uint256"},{"indexed":true,"internalType":"address","name":"seller","type":"address"},{"indexed":false,"internalType":"uint256","name":"payout","type":"uint256"}],"name":"OrderCompleted","type":"event"},{"anonymous":false,"inputs":[{"indexed":true,"internalType":"uint256","name":"orderId","type":"uint256"},{"indexed":true,"internalType":"uint256","name":"listingId","type":"uint256"},{"indexed":true,"internalType":"address","name":"buyer","type":"address"},{"indexed":false,"internalType":"uint96","name":"price","type":"uint96"},{"indexed":false,"internalType":"bytes32","name":"buyerPubKey","type":"bytes32"}],"name":"Purchased","type":"event"},{"anonymous":false,"inputs":[{"indexed":true,"internalType":"uint256","name":"orderId","type":"uint256"}],"name":"RefundClaimed","type":"event"},{"anonymous":false,"inputs":[{"indexed":true,"internalType":"address","name":"seller","type":"address"},{"indexed":false,"internalType":"uint64","name":"sales","type":"uint64"},{"indexed":false,"internalType":"uint64","name":"disputesWon","type":"uint64"},{"indexed":false,"internalType":"uint64","name":"disputesLost","type":"uint64"}],"name":"ReputationChanged","type":"event"},{"inputs":[],"name":"accruedFees","outputs":[{"internalType":"uint256","name":"","type":"uint256"}],"stateMutability":"view","type":"function"},{"inputs":[],"name":"arbiter","outputs":[{"internalType":"address","name":"","type":"address"}],"stateMutability":"view","type":"function"},{"inputs":[{"internalType":"uint256","name":"listingId","type":"uint256"},{"internalType":"bytes32","name":"buyerPubKey","type":"bytes32"}],"name":"buy","outputs":[{"internalType":"uint256","name":"id","type":"uint256"}],"stateMutability":"payable","type":"function"},{"inputs":[{"internalType":"uint256","name":"orderId","type":"uint256"}],"name":"claimRefund","outputs":[],"stateMutability":"nonpayable","type":"function"},{"inputs":[{"internalType":"string","name":"title","type":"string"},{"internalType":"string","name":"description","type":"string"},{"internalType":"uint96","name":"price","type":"uint96"},{"internalType":"bytes","name":"encSecretForAgent","type":"bytes"}],"name":"createListing","outputs":[{"internalType":"uint256","name":"id","type":"uint256"}],"stateMutability":"nonpayable","type":"function"},{"inputs":[{"internalType":"uint256","name":"orderId","type":"uint256"},{"internalType":"bytes","name":"encSecretForBuyer","type":"bytes"}],"name":"deliver","outputs":[],"stateMutability":"nonpayable","type":"function"},{"inputs":[{"internalType":"uint256","name":"","type":"uint256"}],"name":"deliveredPayload","outputs":[{"internalType":"bytes","name":"","type":"bytes"}],"stateMutability":"view","type":"function"},{"inputs":[],"name":"deliveryAgent","outputs":[{"internalType":"address","name":"","type":"address"}],"stateMutability":"view","type":"function"},{"inputs":[],"name":"deliveryWindow","outputs":[{"internalType":"uint64","name":"","type":"uint64"}],"stateMutability":"view","type":"function"},{"inputs":[],"name":"disputeStakeBps","outputs":[{"internalType":"uint16","name":"","type":"uint16"}],"stateMutability":"view","type":"function"},{"inputs":[],"name":"disputeWindow","outputs":[{"internalType":"uint64","name":"","type":"uint64"}],"stateMutability":"view","type":"function"},{"inputs":[{"internalType":"uint256","name":"","type":"uint256"}],"name":"disputes","outputs":[{"internalType":"string","name":"reason","type":"string"},{"internalType":"enum FairBazaar.Verdict","name":"verdict","type":"uint8"},{"internalType":"string","name":"reasoning","type":"string"}],"stateMutability":"view","type":"function"},{"inputs":[],"name":"feeBps","outputs":[{"internalType":"uint16","name":"","type":"uint16"}],"stateMutability":"view","type":"function"},{"inputs":[{"internalType":"uint256","name":"orderId","type":"uint256"}],"name":"finalize","outputs":[],"stateMutability":"nonpayable","type":"function"},{"inputs":[{"internalType":"uint256","name":"id","type":"uint256"}],"name":"getDelivered","outputs":[{"internalType":"bytes","name":"","type":"bytes"}],"stateMutability":"view","type":"function"},{"inputs":[{"internalType":"uint256","name":"id","type":"uint256"}],"name":"getDispute","outputs":[{"components":[{"internalType":"string","name":"reason","type":"string"},{"internalType":"enum FairBazaar.Verdict","name":"verdict","type":"uint8"},{"internalType":"string","name":"reasoning","type":"string"}],"internalType":"struct FairBazaar.Dispute","name":"","type":"tuple"}],"stateMutability":"view","type":"function"},{"inputs":[{"internalType":"uint256","name":"id","type":"uint256"}],"name":"getListing","outputs":[{"components":[{"internalType":"address","name":"seller","type":"address"},{"internalType":"uint96","name":"price","type":"uint96"},{"internalType":"bool","name":"active","type":"bool"},{"internalType":"uint64","name":"salesCount","type":"uint64"},{"internalType":"string","name":"title","type":"string"},{"internalType":"string","name":"description","type":"string"},{"internalType":"bytes","name":"encSecretForAgent","type":"bytes"}],"internalType":"struct FairBazaar.Listing","name":"","type":"tuple"}],"stateMutability":"view","type":"function"},{"inputs":[{"internalType":"uint256","name":"id","type":"uint256"}],"name":"getOrder","outputs":[{"components":[{"internalType":"uint256","name":"listingId","type":"uint256"},{"internalType":"address","name":"buyer","type":"address"},{"internalType":"uint96","name":"price","type":"uint96"},{"internalType":"uint96","name":"disputeStake","type":"uint96"},{"internalType":"uint64","name":"paidAt","type":"uint64"},{"internalType":"uint64","name":"deliveredAt","type":"uint64"},{"internalType":"enum FairBazaar.OrderStatus","name":"status","type":"uint8"},{"internalType":"bytes32","name":"buyerPubKey","type":"bytes32"}],"internalType":"struct FairBazaar.Order","name":"","type":"tuple"}],"stateMutability":"view","type":"function"},{"inputs":[{"internalType":"uint256","name":"","type":"uint256"}],"name":"listings","outputs":[{"internalType":"address","name":"seller","type":"address"},{"internalType":"uint96","name":"price","type":"uint96"},{"internalType":"bool","name":"active","type":"bool"},{"internalType":"uint64","name":"salesCount","type":"uint64"},{"internalType":"string","name":"title","type":"string"},{"internalType":"string","name":"description","type":"string"},{"internalType":"bytes","name":"encSecretForAgent","type":"bytes"}],"stateMutability":"view","type":"function"},{"inputs":[],"name":"nextListingId","outputs":[{"internalType":"uint256","name":"","type":"uint256"}],"stateMutability":"view","type":"function"},{"inputs":[],"name":"nextOrderId","outputs":[{"internalType":"uint256","name":"","type":"uint256"}],"stateMutability":"view","type":"function"},{"inputs":[{"internalType":"uint256","name":"orderId","type":"uint256"},{"internalType":"string","name":"reason","type":"string"}],"name":"openDispute","outputs":[],"stateMutability":"payable","type":"function"},{"inputs":[{"internalType":"uint256","name":"","type":"uint256"}],"name":"orders","outputs":[{"internalType":"uint256","name":"listingId","type":"uint256"},{"internalType":"address","name":"buyer","type":"address"},{"internalType":"uint96","name":"price","type":"uint96"},{"internalType":"uint96","name":"disputeStake","type":"uint96"},{"internalType":"uint64","name":"paidAt","type":"uint64"},{"internalType":"uint64","name":"deliveredAt","type":"uint64"},{"internalType":"enum FairBazaar.OrderStatus","name":"status","type":"uint8"},{"internalType":"bytes32","name":"buyerPubKey","type":"bytes32"}],"stateMutability":"view","type":"function"},{"inputs":[],"name":"owner","outputs":[{"internalType":"address","name":"","type":"address"}],"stateMutability":"view","type":"function"},{"inputs":[{"internalType":"address","name":"","type":"address"}],"name":"reputation","outputs":[{"internalType":"uint64","name":"sales","type":"uint64"},{"internalType":"uint64","name":"disputesWon","type":"uint64"},{"internalType":"uint64","name":"disputesLost","type":"uint64"},{"internalType":"uint128","name":"volume","type":"uint128"}],"stateMutability":"view","type":"function"},{"inputs":[{"internalType":"uint256","name":"orderId","type":"uint256"},{"internalType":"enum FairBazaar.Verdict","name":"verdict","type":"uint8"},{"internalType":"string","name":"reasoning","type":"string"}],"name":"resolveDispute","outputs":[],"stateMutability":"nonpayable","type":"function"},{"inputs":[{"internalType":"address","name":"seller","type":"address"}],"name":"sellerScore","outputs":[{"internalType":"uint256","name":"","type":"uint256"}],"stateMutability":"view","type":"function"},{"inputs":[{"internalType":"address","name":"_agent","type":"address"},{"internalType":"address","name":"_arbiter","type":"address"}],"name":"setAgents","outputs":[],"stateMutability":"nonpayable","type":"function"},{"inputs":[{"internalType":"uint256","name":"listingId","type":"uint256"},{"internalType":"bool","name":"active","type":"bool"}],"name":"setListingActive","outputs":[],"stateMutability":"nonpayable","type":"function"},{"inputs":[{"internalType":"address","name":"to","type":"address"}],"name":"withdrawFees","outputs":[],"stateMutability":"nonpayable","type":"function"}],"evm":{"bytecode":{"linkReferences":{},"object":"6080604052600160055560016006553480156200001b57600080fd5b5060405162003377380380620033778339810160408190526200003e9162000173565b6103e88161ffff161115620000885760405162461bcd60e51b815260206004820152600c60248201526b0cccaca40e8dede40d0d2ced60a31b604482015260640160405180910390fd5b60008054336001600160a01b031991821617909155600180549091166001600160a01b0397881617905560028054959096166001600160e01b031990951694909417600160a01b6001600160401b03948516021790945560038054919092166001600160501b0319909116176801000000000000000061ffff948516021761ffff60501b19166a01000000000000000000009390921692909202179055620001f4565b80516001600160a01b03811681146200014357600080fd5b919050565b80516001600160401b03811681146200014357600080fd5b805161ffff811681146200014357600080fd5b60008060008060008060c087890312156200018d57600080fd5b62000198876200012b565b9550620001a8602088016200012b565b9450620001b86040880162000148565b9350620001c86060880162000148565b9250620001d86080880162000160565b9150620001e860a0880162000160565b90509295509295509295565b61317380620002046000396000f3fe6080604052600436106101cd5760003560e01c8063682c2058116100f7578063c316939c11610095578063e9fca28311610064578063e9fca28314610691578063ecabf6b5146106a4578063fd637a94146106c4578063fe25e00a146106eb57600080fd5b8063c316939c146105e4578063d09ef24114610604578063de74e57b14610631578063e3a96cbd1461066457600080fd5b8063a85c38ef116100d1578063a85c38ef1461047a578063aaccf1ec14610516578063b9f794511461052c578063bbc77f3a146105c457600080fd5b8063682c20581461042257806389dfe44e146104385780638da5cb5b1461045a57600080fd5b80632f651ced1161016f578063564a565d1161013e578063564a565d1461038657806357b32e49146103b55780635b7baf64146103d5578063646cbfff146103f557600080fd5b80632f651ced146102fb5780633455a94b1461033357806336f691c4146103535780635549756c1461036657600080fd5b8063157305fe116101ab578063157305fe14610262578063164e68de1461028257806324a9d853146102a25780632a58b330146102d757600080fd5b806305261aea146101d2578063107a274a146101f4578063117f5f921461022a575b600080fd5b3480156101de57600080fd5b506101f26101ed3660046127b1565b61070b565b005b34801561020057600080fd5b5061021461020f3660046127b1565b610a96565b6040516102219190612810565b60405180910390f35b34801561023657600080fd5b5060035461024a906001600160401b031681565b6040516001600160401b039091168152602001610221565b34801561026e57600080fd5b506101f261027d3660046128fb565b610d1d565b34801561028e57600080fd5b506101f261029d366004612962565b610ecf565b3480156102ae57600080fd5b506003546102c490600160501b900461ffff1681565b60405161ffff9091168152602001610221565b3480156102e357600080fd5b506102ed60065481565b604051908152602001610221565b34801561030757600080fd5b5060015461031b906001600160a01b031681565b6040516001600160a01b039091168152602001610221565b34801561033f57600080fd5b506102ed61034e366004612962565b610f66565b6101f26103613660046128fb565b611003565b34801561037257600080fd5b506101f2610381366004612984565b611293565b34801561039257600080fd5b506103a66103a13660046127b1565b611334565b604051610221939291906129e3565b3480156103c157600080fd5b506102ed6103d0366004612a1f565b61146f565b3480156103e157600080fd5b506101f26103f03660046127b1565b6117a9565b34801561040157600080fd5b506104156104103660046127b1565b611977565b6040516102219190612ad9565b34801561042e57600080fd5b506102ed60045481565b34801561044457600080fd5b506003546102c490600160401b900461ffff1681565b34801561046657600080fd5b5060005461031b906001600160a01b031681565b34801561048657600080fd5b506105026104953660046127b1565b600860205260009081526040902080546001820154600283015460039093015491926001600160a01b03821692600160a01b928390046001600160601b039081169390831692600160601b81046001600160401b03908116939282041691600160e01b90910460ff169088565b604051610221989796959493929190612afc565b34801561052257600080fd5b506102ed60055481565b34801561053857600080fd5b5061058b610547366004612962565b600960205260009081526040902080546001909101546001600160401b0380831692600160401b8104821692600160801b909104909116906001600160801b031684565b604080516001600160401b039586168152938516602085015291909316908201526001600160801b039091166060820152608001610221565b3480156105d057600080fd5b506101f26105df366004612b61565b611a19565b3480156105f057600080fd5b506101f26105ff366004612b94565b611a8d565b34801561061057600080fd5b5061062461061f3660046127b1565b611fa4565b6040516102219190612bf3565b34801561063d57600080fd5b5061065161064c3660046127b1565b6120ab565b6040516102219796959493929190612c84565b34801561067057600080fd5b5061068461067f3660046127b1565b6122a1565b6040516102219190612d02565b6102ed61069f366004612d4e565b6123aa565b3480156106b057600080fd5b506104156106bf3660046127b1565b612671565b3480156106d057600080fd5b5060025461024a90600160a01b90046001600160401b031681565b3480156106f757600080fd5b5060025461031b906001600160a01b031681565b600c5460ff16156107375760405162461bcd60e51b815260040161072e90612d70565b60405180910390fd5b600c805460ff191660011790556000818152600860205260409020600280820154600160e01b900460ff166006811115610773576107736129b9565b146107b65760405162461bcd60e51b81526020600482015260136024820152726e6f742064656c69766572656420737461746560681b604482015260640161072e565b60035460028201546107db916001600160401b0390811691600160a01b900416612daa565b6001600160401b031642116108205760405162461bcd60e51b815260206004820152600b60248201526a3bb4b73237bb9037b832b760a91b604482015260640161072e565b8054600090815260076020526040902060028201805460ff60e01b1916600160e21b1790556001808201805461010090046001600160401b03169161086483612dd1565b82546101009290920a6001600160401b0381810219909316918316021790915582546001600160a01b0316600090815260096020526040812080549093509091169082906108b183612dd1565b82546101009290920a6001600160401b03818102199093169190921691909102179055506001838101549082018054600160a01b9092046001600160601b0316916000906109099084906001600160801b0316612df7565b82546101009290920a6001600160801b038181021990931691909216919091021790555060035460018401546000916127109161096191600160501b900461ffff1690600160a01b90046001600160601b0316612e17565b61096b9190612e34565b9050806004600082825461097f9190612e56565b9091555050825460018501546109b9916001600160a01b0316906109b4908490600160a01b90046001600160601b0316612e69565b61270b565b825460018501546001600160a01b039091169086907fe542d9ced06ebf48c00dc3567a112897fa34963ecc9a6ebf2beba9bc70f5689490610a0b908590600160a01b90046001600160601b0316612e69565b60405190815260200160405180910390a382548254604080516001600160401b038084168252600160401b840481166020830152600160801b90930490921682820152516001600160a01b03909216917fc61210dacb3a6183d55f6567a264442c0c723bd97ec41717dfb307273701be959181900360600190a25050600c805460ff19169055505050565b610af36040518060e0016040528060006001600160a01b0316815260200160006001600160601b0316815260200160001515815260200160006001600160401b031681526020016060815260200160608152602001606081525090565b600082815260076020908152604091829020825160e08101845281546001600160a01b0381168252600160a01b90046001600160601b031692810192909252600181015460ff81161515938301939093526101009092046001600160401b03166060820152600282018054919291608084019190610b7090612e7c565b80601f0160208091040260200160405190810160405280929190818152602001828054610b9c90612e7c565b8015610be95780601f10610bbe57610100808354040283529160200191610be9565b820191906000526020600020905b815481529060010190602001808311610bcc57829003601f168201915b50505050508152602001600382018054610c0290612e7c565b80601f0160208091040260200160405190810160405280929190818152602001828054610c2e90612e7c565b8015610c7b5780601f10610c5057610100808354040283529160200191610c7b565b820191906000526020600020905b815481529060010190602001808311610c5e57829003601f168201915b50505050508152602001600482018054610c9490612e7c565b80601f0160208091040260200160405190810160405280929190818152602001828054610cc090612e7c565b8015610d0d5780601f10610ce257610100808354040283529160200191610d0d565b820191906000526020600020905b815481529060010190602001808311610cf057829003601f168201915b5050505050815250509050919050565b600083815260086020526040902060016002820154600160e01b900460ff166006811115610d4d57610d4d6129b9565b14610d8b5760405162461bcd60e51b815260206004820152600e60248201526d6e6f74207061696420737461746560901b604482015260640161072e565b805460009081526007602052604090206001546001600160a01b0316331480610dbd575080546001600160a01b031633145b610df95760405162461bcd60e51b815260206004820152600d60248201526c3737ba103232b634bb32b932b960991b604482015260640161072e565b8215801590610e0a57506110008311155b610e445760405162461bcd60e51b815260206004820152600b60248201526a189859081c185e5b1bd85960aa1b604482015260640161072e565b6002820180546001600160401b034216600160a01b0268ffffffffffffffffff60a01b1990911617600160e11b1790556000858152600a60205260409020610e8d848683612f1c565b50847fe55808ab67ee6194bab018125d65d17037751771f938cea781d152389396d8e38585604051610ec0929190613005565b60405180910390a25050505050565b6000546001600160a01b03163314610f155760405162461bcd60e51b81526020600482015260096024820152683737ba1037bbb732b960b91b604482015260640161072e565b600c5460ff1615610f385760405162461bcd60e51b815260040161072e90612d70565b600c805460ff19166001179055600480546000909155610f58828261270b565b5050600c805460ff19169055565b6001600160a01b038116600090815260096020526040812080548290610f9d90600160401b90046001600160401b03166005612e17565b8254610fb3906001600160401b0316600a612e17565b610fbd9190612e56565b8254909150600090610fe090600160801b90046001600160401b03166028612e17565b9050808211610ff0576000610ffa565b610ffa8183612e69565b95945050505050565b600083815260086020526040902060018101546001600160a01b031633146110595760405162461bcd60e51b81526020600482015260096024820152683737ba10313abcb2b960b91b604482015260640161072e565b600280820154600160e01b900460ff16600681111561107a5761107a6129b9565b146110bd5760405162461bcd60e51b81526020600482015260136024820152726e6f742064656c69766572656420737461746560681b604482015260640161072e565b60035460028201546110e2916001600160401b0390811691600160a01b900416612daa565b6001600160401b031642111561112a5760405162461bcd60e51b815260206004820152600d60248201526c1dda5b991bddc818db1bdcd959609a1b604482015260640161072e565b811580159061113b57506107d08211155b6111745760405162461bcd60e51b815260206004820152600a6024820152693130b2103932b0b9b7b760b11b604482015260640161072e565b6003546001820154600091612710916111a891600160401b900461ffff1690600160a01b90046001600160601b0316612e17565b6111b29190612e34565b90508034146111f15760405162461bcd60e51b815260206004820152600b60248201526a77726f6e67207374616b6560a81b604482015260640161072e565b6002820180546001600160601b0383167fffffff00ffffffffffffffffffffffffffffffff00000000000000000000000090911617600360e01b1790556000858152600b60205260409020611247848683612f1c565b50336001600160a01b0316857f9b58afa035c5fa58f85c5a54b65bd3562d5aa7679e973bc1404fe25e8babab218686604051611284929190613005565b60405180910390a35050505050565b600082815260076020526040902080546001600160a01b031633146112e75760405162461bcd60e51b815260206004820152600a6024820152693737ba1039b2b63632b960b11b604482015260640161072e565b60018101805460ff191683151590811790915560405190815283907f92693567bc88f088e150fcc712a4351edbfa93e37df9d8833c8e4fa177dd23529060200160405180910390a2505050565b600b6020526000908152604090208054819061134f90612e7c565b80601f016020809104026020016040519081016040528092919081815260200182805461137b90612e7c565b80156113c85780601f1061139d576101008083540402835291602001916113c8565b820191906000526020600020905b8154815290600101906020018083116113ab57829003601f168201915b5050506001840154600285018054949560ff9092169491935091506113ec90612e7c565b80601f016020809104026020016040519081016040528092919081815260200182805461141890612e7c565b80156114655780601f1061143a57610100808354040283529160200191611465565b820191906000526020600020905b81548152906001019060200180831161144857829003601f168201915b5050505050905083565b600080846001600160601b0316116114b35760405162461bcd60e51b8152602060048201526007602482015266070726963653d360cc1b604482015260640161072e565b86158015906114c3575060648711155b6114fb5760405162461bcd60e51b8152602060048201526009602482015268626164207469746c6560b81b604482015260640161072e565b841580159061150c57506107d08511155b61154a5760405162461bcd60e51b815260206004820152600f60248201526e3130b2103232b9b1b934b83a34b7b760891b604482015260640161072e565b811580159061155b57506110008211155b6115945760405162461bcd60e51b815260206004820152600a602482015269189859081cd958dc995d60b21b604482015260640161072e565b600580549060006115a483613021565b9190505590506040518060e00160405280336001600160a01b03168152602001856001600160601b0316815260200160011515815260200160006001600160401b0316815260200189898080601f016020809104026020016040519081016040528093929190818152602001838380828437600092019190915250505090825250604080516020601f8a0181900481028201810190925288815291810191908990899081908401838280828437600092019190915250505090825250604080516020601f8701819004810282018101909252858152918101919086908690819084018382808284376000920182905250939094525050838152600760209081526040918290208451918501516001600160601b0316600160a01b026001600160a01b039092169190911781559083015160018201805460608601516001600160401b03166101000268ffffffffffffffff00199315159390931668ffffffffffffffffff19909116179190911790556080830151909150600282019061172a908261303a565b5060a0820151600382019061173f908261303a565b5060c08201516004820190611754908261303a565b50905050336001600160a01b0316817fa490ea95b20302d0b594b4a9f965011abd72192513422ae4b5acdc910633612e868b8b604051611796939291906130f9565b60405180910390a3979650505050505050565b600c5460ff16156117cc5760405162461bcd60e51b815260040161072e90612d70565b600c805460ff191660019081179091556000828152600860205260409020908101546001600160a01b031633146118315760405162461bcd60e51b81526020600482015260096024820152683737ba10313abcb2b960b91b604482015260640161072e565b60016002820154600160e01b900460ff166006811115611853576118536129b9565b146118915760405162461bcd60e51b815260206004820152600e60248201526d6e6f7420726566756e6461626c6560901b604482015260640161072e565b60028054908201546118bd916001600160401b03600160a01b909104811691600160601b900416612daa565b6001600160401b031642116119005760405162461bcd60e51b8152602060048201526009602482015268746f6f206561726c7960b81b604482015260640161072e565b60028101805460ff60e01b1916600560e01b179055600181015461193e906001600160a01b03811690600160a01b90046001600160601b031661270b565b60405182907fc118564863bc4bc4615080294149317d0199c54d04e6ccc10de28a41cf9807c690600090a25050600c805460ff19169055565b6000818152600a6020526040902080546060919061199490612e7c565b80601f01602080910402602001604051908101604052809291908181526020018280546119c090612e7c565b8015611a0d5780601f106119e257610100808354040283529160200191611a0d565b820191906000526020600020905b8154815290600101906020018083116119f057829003601f168201915b50505050509050919050565b6000546001600160a01b03163314611a5f5760405162461bcd60e51b81526020600482015260096024820152683737ba1037bbb732b960b91b604482015260640161072e565b600180546001600160a01b039384166001600160a01b03199182161790915560028054929093169116179055565b600c5460ff1615611ab05760405162461bcd60e51b815260040161072e90612d70565b600c805460ff19166001179055600254336001600160a01b0390911614611b075760405162461bcd60e51b815260206004820152600b60248201526a3737ba1030b93134ba32b960a91b604482015260640161072e565b600084815260086020526040902060036002820154600160e01b900460ff166006811115611b3757611b376129b9565b14611b735760405162461bcd60e51b815260206004820152600c60248201526b1b9bdd08191a5cdc1d5d195960a21b604482015260640161072e565b6000846003811115611b8757611b876129b9565b03611bc25760405162461bcd60e51b815260206004820152600b60248201526a189859081d995c991a58dd60aa1b604482015260640161072e565b8054600090815260076020908152604080832080546001600160a01b031684526009835281842060028601805460ff60e01b1916600360e11b179055898552600b909352922060019081018054889260ff1990911690836003811115611c2a57611c2a6129b9565b02179055506000878152600b60205260409020600201611c4b858783612f1c565b506001866003811115611c6057611c606129b9565b03611ce2578054600160801b90046001600160401b0316816010611c8383612dd1565b82546001600160401b039182166101009390930a92830291909202199091161790555060018301546002840154611cdd916001600160a01b038116916109b4916001600160601b0391821691600160a01b90910416612e56565b611eec565b6002866003811115611cf657611cf66129b9565b03611e66578054600160401b90046001600160401b0316816008611d1983612dd1565b82546101009290920a6001600160401b038181021990931691831602179091558254169050816000611d4a83612dd1565b82546101009290920a6001600160401b03818102199093169190921691909102179055506001838101549082018054600160a01b9092046001600160601b031691600090611da29084906001600160801b0316612df7565b82546101009290920a6001600160801b0381810219909316919092169190910217905550600354600184015460009161271091611dfa91600160501b900461ffff1690600160a01b90046001600160601b0316612e17565b611e049190612e34565b90508060046000828254611e189190612e56565b9091555050825460028501546001860154611e60926001600160a01b0316916001600160601b0390811691611e56918691600160a01b900416612e69565b6109b49190612e56565b50611eec565b6001830154600090611e8a90600290600160a01b90046001600160601b0316612e34565b60018501546002860154919250611eba916001600160a01b03909116906109b4906001600160601b031684612e56565b82546001850154611eea916001600160a01b0316906109b4908490600160a01b90046001600160601b0316612e69565b505b867fc204352fad7e46251e09ce83e05533737044b65128eb8926aac1969fbe2be267878787604051611f209392919061311c565b60405180910390a281548154604080516001600160401b038084168252600160401b840481166020830152600160801b90930490921682820152516001600160a01b03909216917fc61210dacb3a6183d55f6567a264442c0c723bd97ec41717dfb307273701be959181900360600190a25050600c805460ff191690555050505050565b6040805161010081018252600080825260208201819052918101829052606081018290526080810182905260a0810182905260c0810182905260e08101919091526000828152600860209081526040918290208251610100810184528154815260018201546001600160a01b038116938201939093526001600160601b03600160a01b93849004811694820194909452600282015493841660608201526001600160401b03600160601b85048116608083015292840490921660a0830152909160c083019060ff600160e01b909104166006811115612085576120856129b9565b6006811115612096576120966129b9565b81526020016003820154815250509050919050565b6007602052600090815260409020805460018201546002830180546001600160a01b03841694600160a01b9094046001600160601b03169360ff84169361010090046001600160401b031692909161210290612e7c565b80601f016020809104026020016040519081016040528092919081815260200182805461212e90612e7c565b801561217b5780601f106121505761010080835404028352916020019161217b565b820191906000526020600020905b81548152906001019060200180831161215e57829003601f168201915b50505050509080600301805461219090612e7c565b80601f01602080910402602001604051908101604052809291908181526020018280546121bc90612e7c565b80156122095780601f106121de57610100808354040283529160200191612209565b820191906000526020600020905b8154815290600101906020018083116121ec57829003601f168201915b50505050509080600401805461221e90612e7c565b80601f016020809104026020016040519081016040528092919081815260200182805461224a90612e7c565b80156122975780601f1061226c57610100808354040283529160200191612297565b820191906000526020600020905b81548152906001019060200180831161227a57829003601f168201915b5050505050905087565b604080516060808201835280825260006020830152918101919091526000828152600b6020526040908190208151606081019092528054829082906122e590612e7c565b80601f016020809104026020016040519081016040528092919081815260200182805461231190612e7c565b801561235e5780601f106123335761010080835404028352916020019161235e565b820191906000526020600020905b81548152906001019060200180831161234157829003601f168201915b5050509183525050600182015460209091019060ff166003811115612385576123856129b9565b6003811115612396576123966129b9565b8152602001600282018054610c9490612e7c565b6000828152600760205260408120600181015460ff166123ff5760405162461bcd60e51b815260206004820152601060248201526f696e616374697665206c697374696e6760801b604482015260640161072e565b8054600160a01b90046001600160601b0316341461244d5760405162461bcd60e51b815260206004820152600b60248201526a77726f6e6720707269636560a81b604482015260640161072e565b80546001600160a01b031633036124915760405162461bcd60e51b815260206004820152600860248201526773656c662d62757960c01b604482015260640161072e565b826124ca5760405162461bcd60e51b81526020600482015260096024820152686e6f207075626b657960b81b604482015260640161072e565b600680549060006124da83613021565b9091555060408051610100810182528681523360208201528354600160a01b90046001600160601b031691810191909152600060608201819052426001600160401b0316608083015260a082015290925060c081016001815260209081018590526000848152600882526040908190208351815591830151908301516001600160a01b03909116600160a01b6001600160601b0392831681029190911760018401556060840151600284018054608087015160a0880151939095166001600160a01b031990911617600160601b6001600160401b03958616021767ffffffffffffffff60a01b19811694909216909202928317825560c08501519268ffffffffffffffffff60a01b1990911660ff60e01b1990911617600160e01b836006811115612607576126076129b9565b021790555060e09190910151600390910155805460408051600160a01b9092046001600160601b03168252602082018590523391869185917f87dc7c69dc4b8cd9d7b57b4b719b5ee1d0e1f9d25031ba2065b71941f5b3e46f910160405180910390a45092915050565b600a602052600090815260409020805461268a90612e7c565b80601f01602080910402602001604051908101604052809291908181526020018280546126b690612e7c565b80156127035780601f106126d857610100808354040283529160200191612703565b820191906000526020600020905b8154815290600101906020018083116126e657829003601f168201915b505050505081565b80600003612717575050565b6000826001600160a01b03168260405160006040518083038185875af1925050503d8060008114612764576040519150601f19603f3d011682016040523d82523d6000602084013e612769565b606091505b50509050806127ac5760405162461bcd60e51b815260206004820152600f60248201526e1d1c985b9cd9995c8819985a5b1959608a1b604482015260640161072e565b505050565b6000602082840312156127c357600080fd5b5035919050565b6000815180845260005b818110156127f0576020818501810151868301820152016127d4565b506000602082860101526020601f19601f83011685010191505092915050565b602080825282516001600160a01b0316828201528201516001600160601b031660408083019190915282015180151560608301526000905060608301516001600160401b038116608084015250608083015160e060a08401526128776101008401826127ca565b905060a0840151601f19808584030160c086015261289583836127ca565b925060c08601519150808584030160e086015250610ffa82826127ca565b60008083601f8401126128c557600080fd5b5081356001600160401b038111156128dc57600080fd5b6020830191508360208285010111156128f457600080fd5b9250929050565b60008060006040848603121561291057600080fd5b8335925060208401356001600160401b0381111561292d57600080fd5b612939868287016128b3565b9497909650939450505050565b80356001600160a01b038116811461295d57600080fd5b919050565b60006020828403121561297457600080fd5b61297d82612946565b9392505050565b6000806040838503121561299757600080fd5b82359150602083013580151581146129ae57600080fd5b809150509250929050565b634e487b7160e01b600052602160045260246000fd5b600481106129df576129df6129b9565b9052565b6060815260006129f660608301866127ca565b612a0360208401866129cf565b8281036040840152612a1581856127ca565b9695505050505050565b60008060008060008060006080888a031215612a3a57600080fd5b87356001600160401b0380821115612a5157600080fd5b612a5d8b838c016128b3565b909950975060208a0135915080821115612a7657600080fd5b612a828b838c016128b3565b909750955060408a013591506001600160601b0382168214612aa357600080fd5b90935060608901359080821115612ab957600080fd5b50612ac68a828b016128b3565b989b979a50959850939692959293505050565b60208152600061297d60208301846127ca565b600781106129df576129df6129b9565b8881526001600160a01b03881660208201526001600160601b038781166040830152861660608201526001600160401b038581166080830152841660a08201526101008101612b4e60c0830185612aec565b8260e08301529998505050505050505050565b60008060408385031215612b7457600080fd5b612b7d83612946565b9150612b8b60208401612946565b90509250929050565b60008060008060608587031215612baa57600080fd5b84359350602085013560048110612bc057600080fd5b925060408501356001600160401b03811115612bdb57600080fd5b612be7878288016128b3565b95989497509550505050565b6000610100820190508251825260018060a01b03602084015116602083015260408301516001600160601b03808216604085015280606086015116606085015250506001600160401b03608084015116608083015260a0830151612c6260a08401826001600160401b03169052565b5060c0830151612c7560c0840182612aec565b5060e092830151919092015290565b6001600160a01b03881681526001600160601b038716602082015285151560408201526001600160401b038516606082015260e060808201819052600090612cce908301866127ca565b82810360a0840152612ce081866127ca565b905082810360c0840152612cf481856127ca565b9a9950505050505050505050565b602081526000825160606020840152612d1e60808401826127ca565b90506020840151612d3260408501826129cf565b506040840151838203601f19016060850152610ffa82826127ca565b60008060408385031215612d6157600080fd5b50508035926020909101359150565b6020808252600a90820152697265656e7472616e637960b01b604082015260600190565b634e487b7160e01b600052601160045260246000fd5b6001600160401b03818116838216019080821115612dca57612dca612d94565b5092915050565b60006001600160401b03808316818103612ded57612ded612d94565b6001019392505050565b6001600160801b03818116838216019080821115612dca57612dca612d94565b8082028115828204841417612e2e57612e2e612d94565b92915050565b600082612e5157634e487b7160e01b600052601260045260246000fd5b500490565b80820180821115612e2e57612e2e612d94565b81810381811115612e2e57612e2e612d94565b600181811c90821680612e9057607f821691505b602082108103612eb057634e487b7160e01b600052602260045260246000fd5b50919050565b634e487b7160e01b600052604160045260246000fd5b601f8211156127ac576000816000526020600020601f850160051c81016020861015612ef55750805b601f850160051c820191505b81811015612f1457828155600101612f01565b505050505050565b6001600160401b03831115612f3357612f33612eb6565b612f4783612f418354612e7c565b83612ecc565b6000601f841160018114612f7b5760008515612f635750838201355b600019600387901b1c1916600186901b178355612fd5565b600083815260209020601f19861690835b82811015612fac5786850135825560209485019460019092019101612f8c565b5086821015612fc95760001960f88860031b161c19848701351681555b505060018560011b0183555b5050505050565b81835281816020850137506000828201602090810191909152601f909101601f19169091010190565b602081526000613019602083018486612fdc565b949350505050565b60006001820161303357613033612d94565b5060010190565b81516001600160401b0381111561305357613053612eb6565b613067816130618454612e7c565b84612ecc565b602080601f83116001811461309c57600084156130845750858301515b600019600386901b1c1916600185901b178555612f14565b600085815260208120601f198616915b828110156130cb578886015182559484019460019091019084016130ac565b50858210156130e95787850151600019600388901b60f8161c191681555b5050505050600190811b01905550565b6001600160601b0384168152604060208201526000610ffa604083018486612fdc565b61312681856129cf565b604060208201526000610ffa604083018486612fdc56fea2646970667358221220477170f168b420ab8c14793d41ba43fd900982a8e756b45d7e7674d6ef7c2cfb64736f6c63430008180033","opcodes":"PUSH1 0x80 PUSH1 0x40 MSTORE PUSH1 0x1 PUSH1 0x5 SSTORE PUSH1 0x1 PUSH1 0x6 SSTORE CALLVALUE DUP1 ISZERO PUSH3 0x1B JUMPI PUSH1 0x0 DUP1 REVERT JUMPDEST POP PUSH1 0x40 MLOAD PUSH3 0x3377 CODESIZE SUB DUP1 PUSH3 0x3377 DUP4 CODECOPY DUP2 ADD PUSH1 0x40 DUP2 SWAP1 MSTORE PUSH3 0x3E SWAP2 PUSH3 0x173 JUMP JUMPDEST PUSH2 0x3E8 DUP2 PUSH2 0xFFFF AND GT ISZERO PUSH3 0x88 JUMPI PUSH1 0x40 MLOAD PUSH3 0x461BCD PUSH1 0xE5 SHL DUP2 MSTORE PUSH1 0x20 PUSH1 0x4 DUP3 ADD MSTORE PUSH1 0xC PUSH1 0x24 DUP3 ADD MSTORE PUSH12 0xCCCACA40E8DEDE40D0D2CED PUSH1 0xA3 SHL PUSH1 0x44 DUP3 ADD MSTORE PUSH1 0x64 ADD PUSH1 0x40 MLOAD DUP1 SWAP2 SUB SWAP1 REVERT JUMPDEST PUSH1 0x0 DUP1 SLOAD CALLER PUSH1 0x1 PUSH1 0x1 PUSH1 0xA0 SHL SUB NOT SWAP2 DUP3 AND OR SWAP1 SWAP2 SSTORE PUSH1 0x1 DUP1 SLOAD SWAP1 SWAP2 AND PUSH1 0x1 PUSH1 0x1 PUSH1 0xA0 SHL SUB SWAP8 DUP9 AND OR SWAP1 SSTORE PUSH1 0x2 DUP1 SLOAD SWAP6 SWAP1 SWAP7 AND PUSH1 0x1 PUSH1 0x1 PUSH1 0xE0 SHL SUB NOT SWAP1 SWAP6 AND SWAP5 SWAP1 SWAP5 OR PUSH1 0x1 PUSH1 0xA0 SHL PUSH1 0x1 PUSH1 0x1 PUSH1 0x40 SHL SUB SWAP5 DUP6 AND MUL OR SWAP1 SWAP5 SSTORE PUSH1 0x3 DUP1 SLOAD SWAP2 SWAP1 SWAP3 AND PUSH1 0x1 PUSH1 0x1 PUSH1 0x50 SHL SUB NOT SWAP1 SWAP2 AND OR PUSH9 0x10000000000000000 PUSH2 0xFFFF SWAP5 DUP6 AND MUL OR PUSH2 0xFFFF PUSH1 0x50 SHL NOT AND PUSH11 0x100000000000000000000 SWAP4 SWAP1 SWAP3 AND SWAP3 SWAP1 SWAP3 MUL OR SWAP1 SSTORE PUSH3 0x1F4 JUMP JUMPDEST DUP1 MLOAD PUSH1 0x1 PUSH1 0x1 PUSH1 0xA0 SHL SUB DUP2 AND DUP2 EQ PUSH3 0x143 JUMPI PUSH1 0x0 DUP1 REVERT JUMPDEST SWAP2 SWAP1 POP JUMP JUMPDEST DUP1 MLOAD PUSH1 0x1 PUSH1 0x1 PUSH1 0x40 SHL SUB DUP2 AND DUP2 EQ PUSH3 0x143 JUMPI PUSH1 0x0 DUP1 REVERT JUMPDEST DUP1 MLOAD PUSH2 0xFFFF DUP2 AND DUP2 EQ PUSH3 0x143 JUMPI PUSH1 0x0 DUP1 REVERT JUMPDEST PUSH1 0x0 DUP1 PUSH1 0x0 DUP1 PUSH1 0x0 DUP1 PUSH1 0xC0 DUP8 DUP10 SUB SLT ISZERO PUSH3 0x18D JUMPI PUSH1 0x0 DUP1 REVERT JUMPDEST PUSH3 0x198 DUP8 PUSH3 0x12B JUMP JUMPDEST SWAP6 POP PUSH3 0x1A8 PUSH1 0x20 DUP9 ADD PUSH3 0x12B JUMP JUMPDEST SWAP5 POP PUSH3 0x1B8 PUSH1 0x40 DUP9 ADD PUSH3 0x148 JUMP JUMPDEST SWAP4 POP PUSH3 0x1C8 PUSH1 0x60 DUP9 ADD PUSH3 0x148 JUMP JUMPDEST SWAP3 POP PUSH3 0x1D8 PUSH1 0x80 DUP9 ADD PUSH3 0x160 JUMP JUMPDEST SWAP2 POP PUSH3 0x1E8 PUSH1 0xA0 DUP9 ADD PUSH3 0x160 JUMP JUMPDEST SWAP1 POP SWAP3 SWAP6 POP SWAP3 SWAP6 POP SWAP3 SWAP6 JUMP JUMPDEST PUSH2 0x3173 DUP1 PUSH3 0x204 PUSH1 0x0 CODECOPY PUSH1 0x0 RETURN INVALID PUSH1 0x80 PUSH1 0x40 MSTORE PUSH1 0x4 CALLDATASIZE LT PUSH2 0x1CD JUMPI PUSH1 0x0 CALLDATALOAD PUSH1 0xE0 SHR DUP1 PUSH4 0x682C2058 GT PUSH2 0xF7 JUMPI DUP1 PUSH4 0xC316939C GT PUSH2 0x95 JUMPI DUP1 PUSH4 0xE9FCA283 GT PUSH2 0x64 JUMPI DUP1 PUSH4 0xE9FCA283 EQ PUSH2 0x691 JUMPI DUP1 PUSH4 0xECABF6B5 EQ PUSH2 0x6A4 JUMPI DUP1 PUSH4 0xFD637A94 EQ PUSH2 0x6C4 JUMPI DUP1 PUSH4 0xFE25E00A EQ PUSH2 0x6EB JUMPI PUSH1 0x0 DUP1 REVERT JUMPDEST DUP1 PUSH4 0xC316939C EQ PUSH2 0x5E4 JUMPI DUP1 PUSH4 0xD09EF241 EQ PUSH2 0x604 JUMPI DUP1 PUSH4 0xDE74E57B EQ PUSH2 0x631 JUMPI DUP1 PUSH4 0xE3A96CBD EQ PUSH2 0x664 JUMPI PUSH1 0x0 DUP1 REVERT JUMPDEST DUP1 PUSH4 0xA85C38EF GT PUSH2 0xD1 JUMPI DUP1 PUSH4 0xA85C38EF EQ PUSH2 0x47A JUMPI DUP1 PUSH4 0xAACCF1EC EQ PUSH2 0x516 JUMPI DUP1 PUSH4 0xB9F79451 EQ PUSH2 0x52C JUMPI DUP1 PUSH4 0xBBC77F3A EQ PUSH2 0x5C4 JUMPI PUSH1 0x0 DUP1 REVERT JUMPDEST DUP1 PUSH4 0x682C2058 EQ PUSH2 0x422 JUMPI DUP1 PUSH4 0x89DFE44E EQ PUSH2 0x438 JUMPI DUP1 PUSH4 0x8DA5CB5B EQ PUSH2 0x45A JUMPI PUSH1 0x0 DUP1 REVERT JUMPDEST DUP1 PUSH4 0x2F651CED GT PUSH2 0x16F JUMPI DUP1 PUSH4 0x564A565D GT PUSH2 0x13E JUMPI DUP1 PUSH4 0x564A565D EQ PUSH2 0x386 JUMPI DUP1 PUSH4 0x57B32E49 EQ PUSH2 0x3B5 JUMPI DUP1 PUSH4 0x5B7BAF64 EQ PUSH2 0x3D5 JUMPI DUP1 PUSH4 0x646CBFFF EQ PUSH2 0x3F5 JUMPI PUSH1 0x0 DUP1 REVERT JUMPDEST DUP1 PUSH4 0x2F651CED EQ PUSH2 0x2FB JUMPI DUP1 PUSH4 0x3455A94B EQ PUSH2 0x333 JUMPI DUP1 PUSH4 0x36F691C4 EQ PUSH2 0x353 JUMPI DUP1 PUSH4 0x5549756C EQ PUSH2 0x366 JUMPI PUSH1 0x0 DUP1 REVERT JUMPDEST DUP1 PUSH4 0x157305FE GT PUSH2 0x1AB JUMPI DUP1 PUSH4 0x157305FE EQ PUSH2 0x262 JUMPI DUP1 PUSH4 0x164E68DE EQ PUSH2 0x282 JUMPI DUP1 PUSH4 0x24A9D853 EQ PUSH2 0x2A2 JUMPI DUP1 PUSH4 0x2A58B330 EQ PUSH2 0x2D7 JUMPI PUSH1 0x0 DUP1 REVERT JUMPDEST DUP1 PUSH4 0x5261AEA EQ PUSH2 0x1D2 JUMPI DUP1 PUSH4 0x107A274A EQ PUSH2 0x1F4 JUMPI DUP1 PUSH4 0x117F5F92 EQ PUSH2 0x22A JUMPI JUMPDEST PUSH1 0x0 DUP1 REVERT JUMPDEST CALLVALUE DUP1 ISZERO PUSH2 0x1DE JUMPI PUSH1 0x0 DUP1 REVERT JUMPDEST POP PUSH2 0x1F2 PUSH2 0x1ED CALLDATASIZE PUSH1 0x4 PUSH2 0x27B1 JUMP JUMPDEST PUSH2 0x70B JUMP JUMPDEST STOP JUMPDEST CALLVALUE DUP1 ISZERO PUSH2 0x200 JUMPI PUSH1 0x0 DUP1 REVERT JUMPDEST POP PUSH2 0x214 PUSH2 0x20F CALLDATASIZE PUSH1 0x4 PUSH2 0x27B1 JUMP JUMPDEST PUSH2 0xA96 JUMP JUMPDEST PUSH1 0x40 MLOAD PUSH2 0x221 SWAP2 SWAP1 PUSH2 0x2810 JUMP JUMPDEST PUSH1 0x40 MLOAD DUP1 SWAP2 SUB SWAP1 RETURN JUMPDEST CALLVALUE DUP1 ISZERO PUSH2 0x236 JUMPI PUSH1 0x0 DUP1 REVERT JUMPDEST POP PUSH1 0x3 SLOAD PUSH2 0x24A SWAP1 PUSH1 0x1 PUSH1 0x1 PUSH1 0x40 SHL SUB AND DUP2 JUMP JUMPDEST PUSH1 0x40 MLOAD PUSH1 0x1 PUSH1 0x1 PUSH1 0x40 SHL SUB SWAP1 SWAP2 AND DUP2 MSTORE PUSH1 0x20 ADD PUSH2 0x221 JUMP JUMPDEST CALLVALUE DUP1 ISZERO PUSH2 0x26E JUMPI PUSH1 0x0 DUP1 REVERT JUMPDEST POP PUSH2 0x1F2 PUSH2 0x27D CALLDATASIZE PUSH1 0x4 PUSH2 0x28FB JUMP JUMPDEST PUSH2 0xD1D JUMP JUMPDEST CALLVALUE DUP1 ISZERO PUSH2 0x28E JUMPI PUSH1 0x0 DUP1 REVERT JUMPDEST POP PUSH2 0x1F2 PUSH2 0x29D CALLDATASIZE PUSH1 0x4 PUSH2 0x2962 JUMP JUMPDEST PUSH2 0xECF JUMP JUMPDEST CALLVALUE DUP1 ISZERO PUSH2 0x2AE JUMPI PUSH1 0x0 DUP1 REVERT JUMPDEST POP PUSH1 0x3 SLOAD PUSH2 0x2C4 SWAP1 PUSH1 0x1 PUSH1 0x50 SHL SWAP1 DIV PUSH2 0xFFFF AND DUP2 JUMP JUMPDEST PUSH1 0x40 MLOAD PUSH2 0xFFFF SWAP1 SWAP2 AND DUP2 MSTORE PUSH1 0x20 ADD PUSH2 0x221 JUMP JUMPDEST CALLVALUE DUP1 ISZERO PUSH2 0x2E3 JUMPI PUSH1 0x0 DUP1 REVERT JUMPDEST POP PUSH2 0x2ED PUSH1 0x6 SLOAD DUP2 JUMP JUMPDEST PUSH1 0x40 MLOAD SWAP1 DUP2 MSTORE PUSH1 0x20 ADD PUSH2 0x221 JUMP JUMPDEST CALLVALUE DUP1 ISZERO PUSH2 0x307 JUMPI PUSH1 0x0 DUP1 REVERT JUMPDEST POP PUSH1 0x1 SLOAD PUSH2 0x31B SWAP1 PUSH1 0x1 PUSH1 0x1 PUSH1 0xA0 SHL SUB AND DUP2 JUMP JUMPDEST PUSH1 0x40 MLOAD PUSH1 0x1 PUSH1 0x1 PUSH1 0xA0 SHL SUB SWAP1 SWAP2 AND DUP2 MSTORE PUSH1 0x20 ADD PUSH2 0x221 JUMP JUMPDEST CALLVALUE DUP1 ISZERO PUSH2 0x33F JUMPI PUSH1 0x0 DUP1 REVERT JUMPDEST POP PUSH2 0x2ED PUSH2 0x34E CALLDATASIZE PUSH1 0x4 PUSH2 0x2962 JUMP JUMPDEST PUSH2 0xF66 JUMP JUMPDEST PUSH2 0x1F2 PUSH2 0x361 CALLDATASIZE PUSH1 0x4 PUSH2 0x28FB JUMP JUMPDEST PUSH2 0x1003 JUMP JUMPDEST CALLVALUE DUP1 ISZERO PUSH2 0x372 JUMPI PUSH1 0x0 DUP1 REVERT JUMPDEST POP PUSH2 0x1F2 PUSH2 0x381 CALLDATASIZE PUSH1 0x4 PUSH2 0x2984 JUMP JUMPDEST PUSH2 0x1293 JUMP JUMPDEST CALLVALUE DUP1 ISZERO PUSH2 0x392 JUMPI PUSH1 0x0 DUP1 REVERT JUMPDEST POP PUSH2 0x3A6 PUSH2 0x3A1 CALLDATASIZE PUSH1 0x4 PUSH2 0x27B1 JUMP JUMPDEST PUSH2 0x1334 JUMP JUMPDEST PUSH1 0x40 MLOAD PUSH2 0x221 SWAP4 SWAP3 SWAP2 SWAP1 PUSH2 0x29E3 JUMP JUMPDEST CALLVALUE DUP1 ISZERO PUSH2 0x3C1 JUMPI PUSH1 0x0 DUP1 REVERT JUMPDEST POP PUSH2 0x2ED PUSH2 0x3D0 CALLDATASIZE PUSH1 0x4 PUSH2 0x2A1F JUMP JUMPDEST PUSH2 0x146F JUMP JUMPDEST CALLVALUE DUP1 ISZERO PUSH2 0x3E1 JUMPI PUSH1 0x0 DUP1 REVERT JUMPDEST POP PUSH2 0x1F2 PUSH2 0x3F0 CALLDATASIZE PUSH1 0x4 PUSH2 0x27B1 JUMP JUMPDEST PUSH2 0x17A9 JUMP JUMPDEST CALLVALUE DUP1 ISZERO PUSH2 0x401 JUMPI PUSH1 0x0 DUP1 REVERT JUMPDEST POP PUSH2 0x415 PUSH2 0x410 CALLDATASIZE PUSH1 0x4 PUSH2 0x27B1 JUMP JUMPDEST PUSH2 0x1977 JUMP JUMPDEST PUSH1 0x40 MLOAD PUSH2 0x221 SWAP2 SWAP1 PUSH2 0x2AD9 JUMP JUMPDEST CALLVALUE DUP1 ISZERO PUSH2 0x42E JUMPI PUSH1 0x0 DUP1 REVERT JUMPDEST POP PUSH2 0x2ED PUSH1 0x4 SLOAD DUP2 JUMP JUMPDEST CALLVALUE DUP1 ISZERO PUSH2 0x444 JUMPI PUSH1 0x0 DUP1 REVERT JUMPDEST POP PUSH1 0x3 SLOAD PUSH2 0x2C4 SWAP1 PUSH1 0x1 PUSH1 0x40 SHL SWAP1 DIV PUSH2 0xFFFF AND DUP2 JUMP JUMPDEST CALLVALUE DUP1 ISZERO PUSH2 0x466 JUMPI PUSH1 0x0 DUP1 REVERT JUMPDEST POP PUSH1 0x0 SLOAD PUSH2 0x31B SWAP1 PUSH1 0x1 PUSH1 0x1 PUSH1 0xA0 SHL SUB AND DUP2 JUMP JUMPDEST CALLVALUE DUP1 ISZERO PUSH2 0x486 JUMPI PUSH1 0x0 DUP1 REVERT JUMPDEST POP PUSH2 0x502 PUSH2 0x495 CALLDATASIZE PUSH1 0x4 PUSH2 0x27B1 JUMP JUMPDEST PUSH1 0x8 PUSH1 0x20 MSTORE PUSH1 0x0 SWAP1 DUP2 MSTORE PUSH1 0x40 SWAP1 KECCAK256 DUP1 SLOAD PUSH1 0x1 DUP3 ADD SLOAD PUSH1 0x2 DUP4 ADD SLOAD PUSH1 0x3 SWAP1 SWAP4 ADD SLOAD SWAP2 SWAP3 PUSH1 0x1 PUSH1 0x1 PUSH1 0xA0 SHL SUB DUP3 AND SWAP3 PUSH1 0x1 PUSH1 0xA0 SHL SWAP3 DUP4 SWAP1 DIV PUSH1 0x1 PUSH1 0x1 PUSH1 0x60 SHL SUB SWAP1 DUP2 AND SWAP4 SWAP1 DUP4 AND SWAP3 PUSH1 0x1 PUSH1 0x60 SHL DUP2 DIV PUSH1 0x1 PUSH1 0x1 PUSH1 0x40 SHL SUB SWAP1 DUP2 AND SWAP4 SWAP3 DUP3 DIV AND SWAP2 PUSH1 0x1 PUSH1 0xE0 SHL SWAP1 SWAP2 DIV PUSH1 0xFF AND SWAP1 DUP9 JUMP JUMPDEST PUSH1 0x40 MLOAD PUSH2 0x221 SWAP9 SWAP8 SWAP7 SWAP6 SWAP5 SWAP4 SWAP3 SWAP2 SWAP1 PUSH2 0x2AFC JUMP JUMPDEST CALLVALUE DUP1 ISZERO PUSH2 0x522 JUMPI PUSH1 0x0 DUP1 REVERT JUMPDEST POP PUSH2 0x2ED PUSH1 0x5 SLOAD DUP2 JUMP JUMPDEST CALLVALUE DUP1 ISZERO PUSH2 0x538 JUMPI PUSH1 0x0 DUP1 REVERT JUMPDEST POP PUSH2 0x58B PUSH2 0x547 CALLDATASIZE PUSH1 0x4 PUSH2 0x2962 JUMP JUMPDEST PUSH1 0x9 PUSH1 0x20 MSTORE PUSH1 0x0 SWAP1 DUP2 MSTORE PUSH1 0x40 SWAP1 KECCAK256 DUP1 SLOAD PUSH1 0x1 SWAP1 SWAP2 ADD SLOAD PUSH1 0x1 PUSH1 0x1 PUSH1 0x40 SHL SUB DUP1 DUP4 AND SWAP3 PUSH1 0x1 PUSH1 0x40 SHL DUP2 DIV DUP3 AND SWAP3 PUSH1 0x1 PUSH1 0x80 SHL SWAP1 SWAP2 DIV SWAP1 SWAP2 AND SWAP1 PUSH1 0x1 PUSH1 0x1 PUSH1 0x80 SHL SUB AND DUP5 JUMP JUMPDEST PUSH1 0x40 DUP1 MLOAD PUSH1 0x1 PUSH1 0x1 PUSH1 0x40 SHL SUB SWAP6 DUP7 AND DUP2 MSTORE SWAP4 DUP6 AND PUSH1 0x20 DUP6 ADD MSTORE SWAP2 SWAP1 SWAP4 AND SWAP1 DUP3 ADD MSTORE PUSH1 0x1 PUSH1 0x1 PUSH1 0x80 SHL SUB SWAP1 SWAP2 AND PUSH1 0x60 DUP3 ADD MSTORE PUSH1 0x80 ADD PUSH2 0x221 JUMP JUMPDEST CALLVALUE DUP1 ISZERO PUSH2 0x5D0 JUMPI PUSH1 0x0 DUP1 REVERT JUMPDEST POP PUSH2 0x1F2 PUSH2 0x5DF CALLDATASIZE PUSH1 0x4 PUSH2 0x2B61 JUMP JUMPDEST PUSH2 0x1A19 JUMP JUMPDEST CALLVALUE DUP1 ISZERO PUSH2 0x5F0 JUMPI PUSH1 0x0 DUP1 REVERT JUMPDEST POP PUSH2 0x1F2 PUSH2 0x5FF CALLDATASIZE PUSH1 0x4 PUSH2 0x2B94 JUMP JUMPDEST PUSH2 0x1A8D JUMP JUMPDEST CALLVALUE DUP1 ISZERO PUSH2 0x610 JUMPI PUSH1 0x0 DUP1 REVERT JUMPDEST POP PUSH2 0x624 PUSH2 0x61F CALLDATASIZE PUSH1 0x4 PUSH2 0x27B1 JUMP JUMPDEST PUSH2 0x1FA4 JUMP JUMPDEST PUSH1 0x40 MLOAD PUSH2 0x221 SWAP2 SWAP1 PUSH2 0x2BF3 JUMP JUMPDEST CALLVALUE DUP1 ISZERO PUSH2 0x63D JUMPI PUSH1 0x0 DUP1 REVERT JUMPDEST POP PUSH2 0x651 PUSH2 0x64C CALLDATASIZE PUSH1 0x4 PUSH2 0x27B1 JUMP JUMPDEST PUSH2 0x20AB JUMP JUMPDEST PUSH1 0x40 MLOAD PUSH2 0x221 SWAP8 SWAP7 SWAP6 SWAP5 SWAP4 SWAP3 SWAP2 SWAP1 PUSH2 0x2C84 JUMP JUMPDEST CALLVALUE DUP1 ISZERO PUSH2 0x670 JUMPI PUSH1 0x0 DUP1 REVERT JUMPDEST POP PUSH2 0x684 PUSH2 0x67F CALLDATASIZE PUSH1 0x4 PUSH2 0x27B1 JUMP JUMPDEST PUSH2 0x22A1 JUMP JUMPDEST PUSH1 0x40 MLOAD PUSH2 0x221 SWAP2 SWAP1 PUSH2 0x2D02 JUMP JUMPDEST PUSH2 0x2ED PUSH2 0x69F CALLDATASIZE PUSH1 0x4 PUSH2 0x2D4E JUMP JUMPDEST PUSH2 0x23AA JUMP JUMPDEST CALLVALUE DUP1 ISZERO PUSH2 0x6B0 JUMPI PUSH1 0x0 DUP1 REVERT JUMPDEST POP PUSH2 0x415 PUSH2 0x6BF CALLDATASIZE PUSH1 0x4 PUSH2 0x27B1 JUMP JUMPDEST PUSH2 0x2671 JUMP JUMPDEST CALLVALUE DUP1 ISZERO PUSH2 0x6D0 JUMPI PUSH1 0x0 DUP1 REVERT JUMPDEST POP PUSH1 0x2 SLOAD PUSH2 0x24A SWAP1 PUSH1 0x1 PUSH1 0xA0 SHL SWAP1 DIV PUSH1 0x1 PUSH1 0x1 PUSH1 0x40 SHL SUB AND DUP2 JUMP JUMPDEST CALLVALUE DUP1 ISZERO PUSH2 0x6F7 JUMPI PUSH1 0x0 DUP1 REVERT JUMPDEST POP PUSH1 0x2 SLOAD PUSH2 0x31B SWAP1 PUSH1 0x1 PUSH1 0x1 PUSH1 0xA0 SHL SUB AND DUP2 JUMP JUMPDEST PUSH1 0xC SLOAD PUSH1 0xFF AND ISZERO PUSH2 0x737 JUMPI PUSH1 0x40 MLOAD PUSH3 0x461BCD PUSH1 0xE5 SHL DUP2 MSTORE PUSH1 0x4 ADD PUSH2 0x72E SWAP1 PUSH2 0x2D70 JUMP JUMPDEST PUSH1 0x40 MLOAD DUP1 SWAP2 SUB SWAP1 REVERT JUMPDEST PUSH1 0xC DUP1 SLOAD PUSH1 0xFF NOT AND PUSH1 0x1 OR SWAP1 SSTORE PUSH1 0x0 DUP2 DUP2 MSTORE PUSH1 0x8 PUSH1 0x20 MSTORE PUSH1 0x40 SWAP1 KECCAK256 PUSH1 0x2 DUP1 DUP3 ADD SLOAD PUSH1 0x1 PUSH1 0xE0 SHL SWAP1 DIV PUSH1 0xFF AND PUSH1 0x6 DUP2 GT ISZERO PUSH2 0x773 JUMPI PUSH2 0x773 PUSH2 0x29B9 JUMP JUMPDEST EQ PUSH2 0x7B6 JUMPI PUSH1 0x40 MLOAD PUSH3 0x461BCD PUSH1 0xE5 SHL DUP2 MSTORE PUSH1 0x20 PUSH1 0x4 DUP3 ADD MSTORE PUSH1 0x13 PUSH1 0x24 DUP3 ADD MSTORE PUSH19 0x6E6F742064656C697665726564207374617465 PUSH1 0x68 SHL PUSH1 0x44 DUP3 ADD MSTORE PUSH1 0x64 ADD PUSH2 0x72E JUMP JUMPDEST PUSH1 0x3 SLOAD PUSH1 0x2 DUP3 ADD SLOAD PUSH2 0x7DB SWAP2 PUSH1 0x1 PUSH1 0x1 PUSH1 0x40 SHL SUB SWAP1 DUP2 AND SWAP2 PUSH1 0x1 PUSH1 0xA0 SHL SWAP1 DIV AND PUSH2 0x2DAA JUMP JUMPDEST PUSH1 0x1 PUSH1 0x1 PUSH1 0x40 SHL SUB AND TIMESTAMP GT PUSH2 0x820 JUMPI PUSH1 0x40 MLOAD PUSH3 0x461BCD PUSH1 0xE5 SHL DUP2 MSTORE PUSH1 0x20 PUSH1 0x4 DUP3 ADD MSTORE PUSH1 0xB PUSH1 0x24 DUP3 ADD MSTORE PUSH11 0x3BB4B73237BB9037B832B7 PUSH1 0xA9 SHL PUSH1 0x44 DUP3 ADD MSTORE PUSH1 0x64 ADD PUSH2 0x72E JUMP JUMPDEST DUP1 SLOAD PUSH1 0x0 SWAP1 DUP2 MSTORE PUSH1 0x7 PUSH1 0x20 MSTORE PUSH1 0x40 SWAP1 KECCAK256 PUSH1 0x2 DUP3 ADD DUP1 SLOAD PUSH1 0xFF PUSH1 0xE0 SHL NOT AND PUSH1 0x1 PUSH1 0xE2 SHL OR SWAP1 SSTORE PUSH1 0x1 DUP1 DUP3 ADD DUP1 SLOAD PUSH2 0x100 SWAP1 DIV PUSH1 0x1 PUSH1 0x1 PUSH1 0x40 SHL SUB AND SWAP2 PUSH2 0x864 DUP4 PUSH2 0x2DD1 JUMP JUMPDEST DUP3 SLOAD PUSH2 0x100 SWAP3 SWAP1 SWAP3 EXP PUSH1 0x1 PUSH1 0x1 PUSH1 0x40 SHL SUB DUP2 DUP2 MUL NOT SWAP1 SWAP4 AND SWAP2 DUP4 AND MUL OR SWAP1 SWAP2 SSTORE DUP3 SLOAD PUSH1 0x1 PUSH1 0x1 PUSH1 0xA0 SHL SUB AND PUSH1 0x0 SWAP1 DUP2 MSTORE PUSH1 0x9 PUSH1 0x20 MSTORE PUSH1 0x40 DUP2 KECCAK256 DUP1 SLOAD SWAP1 SWAP4 POP SWAP1 SWAP2 AND SWAP1 DUP3 SWAP1 PUSH2 0x8B1 DUP4 PUSH2 0x2DD1 JUMP JUMPDEST DUP3 SLOAD PUSH2 0x100 SWAP3 SWAP1 SWAP3 EXP PUSH1 0x1 PUSH1 0x1 PUSH1 0x40 SHL SUB DUP2 DUP2 MUL NOT SWAP1 SWAP4 AND SWAP2 SWAP1 SWAP3 AND SWAP2 SWAP1 SWAP2 MUL OR SWAP1 SSTORE POP PUSH1 0x1 DUP4 DUP2 ADD SLOAD SWAP1 DUP3 ADD DUP1 SLOAD PUSH1 0x1 PUSH1 0xA0 SHL SWAP1 SWAP3 DIV PUSH1 0x1 PUSH1 0x1 PUSH1 0x60 SHL SUB AND SWAP2 PUSH1 0x0 SWAP1 PUSH2 0x909 SWAP1 DUP5 SWAP1 PUSH1 0x1 PUSH1 0x1 PUSH1 0x80 SHL SUB AND PUSH2 0x2DF7 JUMP JUMPDEST DUP3 SLOAD PUSH2 0x100 SWAP3 SWAP1 SWAP3 EXP PUSH1 0x1 PUSH1 0x1 PUSH1 0x80 SHL SUB DUP2 DUP2 MUL NOT SWAP1 SWAP4 AND SWAP2 SWAP1 SWAP3 AND SWAP2 SWAP1 SWAP2 MUL OR SWAP1 SSTORE POP PUSH1 0x3 SLOAD PUSH1 0x1 DUP5 ADD SLOAD PUSH1 0x0 SWAP2 PUSH2 0x2710 SWAP2 PUSH2 0x961 SWAP2 PUSH1 0x1 PUSH1 0x50 SHL SWAP1 DIV PUSH2 0xFFFF AND SWAP1 PUSH1 0x1 PUSH1 0xA0 SHL SWAP1 DIV PUSH1 0x1 PUSH1 0x1 PUSH1 0x60 SHL SUB AND PUSH2 0x2E17 JUMP JUMPDEST PUSH2 0x96B SWAP2 SWAP1 PUSH2 0x2E34 JUMP JUMPDEST SWAP1 POP DUP1 PUSH1 0x4 PUSH1 0x0 DUP3 DUP3 SLOAD PUSH2 0x97F SWAP2 SWAP1 PUSH2 0x2E56 JUMP JUMPDEST SWAP1 SWAP2 SSTORE POP POP DUP3 SLOAD PUSH1 0x1 DUP6 ADD SLOAD PUSH2 0x9B9 SWAP2 PUSH1 0x1 PUSH1 0x1 PUSH1 0xA0 SHL SUB AND SWAP1 PUSH2 0x9B4 SWAP1 DUP5 SWAP1 PUSH1 0x1 PUSH1 0xA0 SHL SWAP1 DIV PUSH1 0x1 PUSH1 0x1 PUSH1 0x60 SHL SUB AND PUSH2 0x2E69 JUMP JUMPDEST PUSH2 0x270B JUMP JUMPDEST DUP3 SLOAD PUSH1 0x1 DUP6 ADD SLOAD PUSH1 0x1 PUSH1 0x1 PUSH1 0xA0 SHL SUB SWAP1 SWAP2 AND SWAP1 DUP7 SWAP1 PUSH32 0xE542D9CED06EBF48C00DC3567A112897FA34963ECC9A6EBF2BEBA9BC70F56894 SWAP1 PUSH2 0xA0B SWAP1 DUP6 SWAP1 PUSH1 0x1 PUSH1 0xA0 SHL SWAP1 DIV PUSH1 0x1 PUSH1 0x1 PUSH1 0x60 SHL SUB AND PUSH2 0x2E69 JUMP JUMPDEST PUSH1 0x40 MLOAD SWAP1 DUP2 MSTORE PUSH1 0x20 ADD PUSH1 0x40 MLOAD DUP1 SWAP2 SUB SWAP1 LOG3 DUP3 SLOAD DUP3 SLOAD PUSH1 0x40 DUP1 MLOAD PUSH1 0x1 PUSH1 0x1 PUSH1 0x40 SHL SUB DUP1 DUP5 AND DUP3 MSTORE PUSH1 0x1 PUSH1 0x40 SHL DUP5 DIV DUP2 AND PUSH1 0x20 DUP4 ADD MSTORE PUSH1 0x1 PUSH1 0x80 SHL SWAP1 SWAP4 DIV SWAP1 SWAP3 AND DUP3 DUP3 ADD MSTORE MLOAD PUSH1 0x1 PUSH1 0x1 PUSH1 0xA0 SHL SUB SWAP1 SWAP3 AND SWAP2 PUSH32 0xC61210DACB3A6183D55F6567A264442C0C723BD97EC41717DFB307273701BE95 SWAP2 DUP2 SWAP1 SUB PUSH1 0x60 ADD SWAP1 LOG2 POP POP PUSH1 0xC DUP1 SLOAD PUSH1 0xFF NOT AND SWAP1 SSTORE POP POP POP JUMP JUMPDEST PUSH2 0xAF3 PUSH1 0x40 MLOAD DUP1 PUSH1 0xE0 ADD PUSH1 0x40 MSTORE DUP1 PUSH1 0x0 PUSH1 0x1 PUSH1 0x1 PUSH1 0xA0 SHL SUB AND DUP2 MSTORE PUSH1 0x20 ADD PUSH1 0x0 PUSH1 0x1 PUSH1 0x1 PUSH1 0x60 SHL SUB AND DUP2 MSTORE PUSH1 0x20 ADD PUSH1 0x0 ISZERO ISZERO DUP2 MSTORE PUSH1 0x20 ADD PUSH1 0x0 PUSH1 0x1 PUSH1 0x1 PUSH1 0x40 SHL SUB AND DUP2 MSTORE PUSH1 0x20 ADD PUSH1 0x60 DUP2 MSTORE PUSH1 0x20 ADD PUSH1 0x60 DUP2 MSTORE PUSH1 0x20 ADD PUSH1 0x60 DUP2 MSTORE POP SWAP1 JUMP JUMPDEST PUSH1 0x0 DUP3 DUP2 MSTORE PUSH1 0x7 PUSH1 0x20 SWAP1 DUP2 MSTORE PUSH1 0x40 SWAP2 DUP3 SWAP1 KECCAK256 DUP3 MLOAD PUSH1 0xE0 DUP2 ADD DUP5 MSTORE DUP2 SLOAD PUSH1 0x1 PUSH1 0x1 PUSH1 0xA0 SHL SUB DUP2 AND DUP3 MSTORE PUSH1 0x1 PUSH1 0xA0 SHL SWAP1 DIV PUSH1 0x1 PUSH1 0x1 PUSH1 0x60 SHL SUB AND SWAP3 DUP2 ADD SWAP3 SWAP1 SWAP3 MSTORE PUSH1 0x1 DUP2 ADD SLOAD PUSH1 0xFF DUP2 AND ISZERO ISZERO SWAP4 DUP4 ADD SWAP4 SWAP1 SWAP4 MSTORE PUSH2 0x100 SWAP1 SWAP3 DIV PUSH1 0x1 PUSH1 0x1 PUSH1 0x40 SHL SUB AND PUSH1 0x60 DUP3 ADD MSTORE PUSH1 0x2 DUP3 ADD DUP1 SLOAD SWAP2 SWAP3 SWAP2 PUSH1 0x80 DUP5 ADD SWAP2 SWAP1 PUSH2 0xB70 SWAP1 PUSH2 0x2E7C JUMP JUMPDEST DUP1 PUSH1 0x1F ADD PUSH1 0x20 DUP1 SWAP2 DIV MUL PUSH1 0x20 ADD PUSH1 0x40 MLOAD SWAP1 DUP2 ADD PUSH1 0x40 MSTORE DUP1 SWAP3 SWAP2 SWAP1 DUP2 DUP2 MSTORE PUSH1 0x20 ADD DUP3 DUP1 SLOAD PUSH2 0xB9C SWAP1 PUSH2 0x2E7C JUMP JUMPDEST DUP1 ISZERO PUSH2 0xBE9 JUMPI DUP1 PUSH1 0x1F LT PUSH2 0xBBE JUMPI PUSH2 0x100 DUP1 DUP4 SLOAD DIV MUL DUP4 MSTORE SWAP2 PUSH1 0x20 ADD SWAP2 PUSH2 0xBE9 JUMP JUMPDEST DUP3 ADD SWAP2 SWAP1 PUSH1 0x0 MSTORE PUSH1 0x20 PUSH1 0x0 KECCAK256 SWAP1 JUMPDEST DUP2 SLOAD DUP2 MSTORE SWAP1 PUSH1 0x1 ADD SWAP1 PUSH1 0x20 ADD DUP1 DUP4 GT PUSH2 0xBCC JUMPI DUP3 SWAP1 SUB PUSH1 0x1F AND DUP3 ADD SWAP2 JUMPDEST POP POP POP POP POP DUP2 MSTORE PUSH1 0x20 ADD PUSH1 0x3 DUP3 ADD DUP1 SLOAD PUSH2 0xC02 SWAP1 PUSH2 0x2E7C JUMP JUMPDEST DUP1 PUSH1 0x1F ADD PUSH1 0x20 DUP1 SWAP2 DIV MUL PUSH1 0x20 ADD PUSH1 0x40 MLOAD SWAP1 DUP2 ADD PUSH1 0x40 MSTORE DUP1 SWAP3 SWAP2 SWAP1 DUP2 DUP2 MSTORE PUSH1 0x20 ADD DUP3 DUP1 SLOAD PUSH2 0xC2E SWAP1 PUSH2 0x2E7C JUMP JUMPDEST DUP1 ISZERO PUSH2 0xC7B JUMPI DUP1 PUSH1 0x1F LT PUSH2 0xC50 JUMPI PUSH2 0x100 DUP1 DUP4 SLOAD DIV MUL DUP4 MSTORE SWAP2 PUSH1 0x20 ADD SWAP2 PUSH2 0xC7B JUMP JUMPDEST DUP3 ADD SWAP2 SWAP1 PUSH1 0x0 MSTORE PUSH1 0x20 PUSH1 0x0 KECCAK256 SWAP1 JUMPDEST DUP2 SLOAD DUP2 MSTORE SWAP1 PUSH1 0x1 ADD SWAP1 PUSH1 0x20 ADD DUP1 DUP4 GT PUSH2 0xC5E JUMPI DUP3 SWAP1 SUB PUSH1 0x1F AND DUP3 ADD SWAP2 JUMPDEST POP POP POP POP POP DUP2 MSTORE PUSH1 0x20 ADD PUSH1 0x4 DUP3 ADD DUP1 SLOAD PUSH2 0xC94 SWAP1 PUSH2 0x2E7C JUMP JUMPDEST DUP1 PUSH1 0x1F ADD PUSH1 0x20 DUP1 SWAP2 DIV MUL PUSH1 0x20 ADD PUSH1 0x40 MLOAD SWAP1 DUP2 ADD PUSH1 0x40 MSTORE DUP1 SWAP3 SWAP2 SWAP1 DUP2 DUP2 MSTORE PUSH1 0x20 ADD DUP3 DUP1 SLOAD PUSH2 0xCC0 SWAP1 PUSH2 0x2E7C JUMP JUMPDEST DUP1 ISZERO PUSH2 0xD0D JUMPI DUP1 PUSH1 0x1F LT PUSH2 0xCE2 JUMPI PUSH2 0x100 DUP1 DUP4 SLOAD DIV MUL DUP4 MSTORE SWAP2 PUSH1 0x20 ADD SWAP2 PUSH2 0xD0D JUMP JUMPDEST DUP3 ADD SWAP2 SWAP1 PUSH1 0x0 MSTORE PUSH1 0x20 PUSH1 0x0 KECCAK256 SWAP1 JUMPDEST DUP2 SLOAD DUP2 MSTORE SWAP1 PUSH1 0x1 ADD SWAP1 PUSH1 0x20 ADD DUP1 DUP4 GT PUSH2 0xCF0 JUMPI DUP3 SWAP1 SUB PUSH1 0x1F AND DUP3 ADD SWAP2 JUMPDEST POP POP POP POP POP DUP2 MSTORE POP POP SWAP1 POP SWAP2 SWAP1 POP JUMP JUMPDEST PUSH1 0x0 DUP4 DUP2 MSTORE PUSH1 0x8 PUSH1 0x20 MSTORE PUSH1 0x40 SWAP1 KECCAK256 PUSH1 0x1 PUSH1 0x2 DUP3 ADD SLOAD PUSH1 0x1 PUSH1 0xE0 SHL SWAP1 DIV PUSH1 0xFF AND PUSH1 0x6 DUP2 GT ISZERO PUSH2 0xD4D JUMPI PUSH2 0xD4D PUSH2 0x29B9 JUMP JUMPDEST EQ PUSH2 0xD8B JUMPI PUSH1 0x40 MLOAD PUSH3 0x461BCD PUSH1 0xE5 SHL DUP2 MSTORE PUSH1 0x20 PUSH1 0x4 DUP3 ADD MSTORE PUSH1 0xE PUSH1 0x24 DUP3 ADD MSTORE PUSH14 0x6E6F742070616964207374617465 PUSH1 0x90 SHL PUSH1 0x44 DUP3 ADD MSTORE PUSH1 0x64 ADD PUSH2 0x72E JUMP JUMPDEST DUP1 SLOAD PUSH1 0x0 SWAP1 DUP2 MSTORE PUSH1 0x7 PUSH1 0x20 MSTORE PUSH1 0x40 SWAP1 KECCAK256 PUSH1 0x1 SLOAD PUSH1 0x1 PUSH1 0x1 PUSH1 0xA0 SHL SUB AND CALLER EQ DUP1 PUSH2 0xDBD JUMPI POP DUP1 SLOAD PUSH1 0x1 PUSH1 0x1 PUSH1 0xA0 SHL SUB AND CALLER EQ JUMPDEST PUSH2 0xDF9 JUMPI PUSH1 0x40 MLOAD PUSH3 0x461BCD PUSH1 0xE5 SHL DUP2 MSTORE PUSH1 0x20 PUSH1 0x4 DUP3 ADD MSTORE PUSH1 0xD PUSH1 0x24 DUP3 ADD MSTORE PUSH13 0x3737BA103232B634BB32B932B9 PUSH1 0x99 SHL PUSH1 0x44 DUP3 ADD MSTORE PUSH1 0x64 ADD PUSH2 0x72E JUMP JUMPDEST DUP3 ISZERO DUP1 ISZERO SWAP1 PUSH2 0xE0A JUMPI POP PUSH2 0x1000 DUP4 GT ISZERO JUMPDEST PUSH2 0xE44 JUMPI PUSH1 0x40 MLOAD PUSH3 0x461BCD PUSH1 0xE5 SHL DUP2 MSTORE PUSH1 0x20 PUSH1 0x4 DUP3 ADD MSTORE PUSH1 0xB PUSH1 0x24 DUP3 ADD MSTORE PUSH11 0x189859081C185E5B1BD859 PUSH1 0xAA SHL PUSH1 0x44 DUP3 ADD MSTORE PUSH1 0x64 ADD PUSH2 0x72E JUMP JUMPDEST PUSH1 0x2 DUP3 ADD DUP1 SLOAD PUSH1 0x1 PUSH1 0x1 PUSH1 0x40 SHL SUB TIMESTAMP AND PUSH1 0x1 PUSH1 0xA0 SHL MUL PUSH9 0xFFFFFFFFFFFFFFFFFF PUSH1 0xA0 SHL NOT SWAP1 SWAP2 AND OR PUSH1 0x1 PUSH1 0xE1 SHL OR SWAP1 SSTORE PUSH1 0x0 DUP6 DUP2 MSTORE PUSH1 0xA PUSH1 0x20 MSTORE PUSH1 0x40 SWAP1 KECCAK256 PUSH2 0xE8D DUP5 DUP7 DUP4 PUSH2 0x2F1C JUMP JUMPDEST POP DUP5 PUSH32 0xE55808AB67EE6194BAB018125D65D17037751771F938CEA781D152389396D8E3 DUP6 DUP6 PUSH1 0x40 MLOAD PUSH2 0xEC0 SWAP3 SWAP2 SWAP1 PUSH2 0x3005 JUMP JUMPDEST PUSH1 0x40 MLOAD DUP1 SWAP2 SUB SWAP1 LOG2 POP POP POP POP POP JUMP JUMPDEST PUSH1 0x0 SLOAD PUSH1 0x1 PUSH1 0x1 PUSH1 0xA0 SHL SUB AND CALLER EQ PUSH2 0xF15 JUMPI PUSH1 0x40 MLOAD PUSH3 0x461BCD PUSH1 0xE5 SHL DUP2 MSTORE PUSH1 0x20 PUSH1 0x4 DUP3 ADD MSTORE PUSH1 0x9 PUSH1 0x24 DUP3 ADD MSTORE PUSH9 0x3737BA1037BBB732B9 PUSH1 0xB9 SHL PUSH1 0x44 DUP3 ADD MSTORE PUSH1 0x64 ADD PUSH2 0x72E JUMP JUMPDEST PUSH1 0xC SLOAD PUSH1 0xFF AND ISZERO PUSH2 0xF38 JUMPI PUSH1 0x40 MLOAD PUSH3 0x461BCD PUSH1 0xE5 SHL DUP2 MSTORE PUSH1 0x4 ADD PUSH2 0x72E SWAP1 PUSH2 0x2D70 JUMP JUMPDEST PUSH1 0xC DUP1 SLOAD PUSH1 0xFF NOT AND PUSH1 0x1 OR SWAP1 SSTORE PUSH1 0x4 DUP1 SLOAD PUSH1 0x0 SWAP1 SWAP2 SSTORE PUSH2 0xF58 DUP3 DUP3 PUSH2 0x270B JUMP JUMPDEST POP POP PUSH1 0xC DUP1 SLOAD PUSH1 0xFF NOT AND SWAP1 SSTORE JUMP JUMPDEST PUSH1 0x1 PUSH1 0x1 PUSH1 0xA0 SHL SUB DUP2 AND PUSH1 0x0 SWAP1 DUP2 MSTORE PUSH1 0x9 PUSH1 0x20 MSTORE PUSH1 0x40 DUP2 KECCAK256 DUP1 SLOAD DUP3 SWAP1 PUSH2 0xF9D SWAP1 PUSH1 0x1 PUSH1 0x40 SHL SWAP1 DIV PUSH1 0x1 PUSH1 0x1 PUSH1 0x40 SHL SUB AND PUSH1 0x5 PUSH2 0x2E17 JUMP JUMPDEST DUP3 SLOAD PUSH2 0xFB3 SWAP1 PUSH1 0x1 PUSH1 0x1 PUSH1 0x40 SHL SUB AND PUSH1 0xA PUSH2 0x2E17 JUMP JUMPDEST PUSH2 0xFBD SWAP2 SWAP1 PUSH2 0x2E56 JUMP JUMPDEST DUP3 SLOAD SWAP1 SWAP2 POP PUSH1 0x0 SWAP1 PUSH2 0xFE0 SWAP1 PUSH1 0x1 PUSH1 0x80 SHL SWAP1 DIV PUSH1 0x1 PUSH1 0x1 PUSH1 0x40 SHL SUB AND PUSH1 0x28 PUSH2 0x2E17 JUMP JUMPDEST SWAP1 POP DUP1 DUP3 GT PUSH2 0xFF0 JUMPI PUSH1 0x0 PUSH2 0xFFA JUMP JUMPDEST PUSH2 0xFFA DUP2 DUP4 PUSH2 0x2E69 JUMP JUMPDEST SWAP6 SWAP5 POP POP POP POP POP JUMP JUMPDEST PUSH1 0x0 DUP4 DUP2 MSTORE PUSH1 0x8 PUSH1 0x20 MSTORE PUSH1 0x40 SWAP1 KECCAK256 PUSH1 0x1 DUP2 ADD SLOAD PUSH1 0x1 PUSH1 0x1 PUSH1 0xA0 SHL SUB AND CALLER EQ PUSH2 0x1059 JUMPI PUSH1 0x40 MLOAD PUSH3 0x461BCD PUSH1 0xE5 SHL DUP2 MSTORE PUSH1 0x20 PUSH1 0x4 DUP3 ADD MSTORE PUSH1 0x9 PUSH1 0x24 DUP3 ADD MSTORE PUSH9 0x3737BA10313ABCB2B9 PUSH1 0xB9 SHL PUSH1 0x44 DUP3 ADD MSTORE PUSH1 0x64 ADD PUSH2 0x72E JUMP JUMPDEST PUSH1 0x2 DUP1 DUP3 ADD SLOAD PUSH1 0x1 PUSH1 0xE0 SHL SWAP1 DIV PUSH1 0xFF AND PUSH1 0x6 DUP2 GT ISZERO PUSH2 0x107A JUMPI PUSH2 0x107A PUSH2 0x29B9 JUMP JUMPDEST EQ PUSH2 0x10BD JUMPI PUSH1 0x40 MLOAD PUSH3 0x461BCD PUSH1 0xE5 SHL DUP2 MSTORE PUSH1 0x20 PUSH1 0x4 DUP3 ADD MSTORE PUSH1 0x13 PUSH1 0x24 DUP3 ADD MSTORE PUSH19 0x6E6F742064656C697665726564207374617465 PUSH1 0x68 SHL PUSH1 0x44 DUP3 ADD MSTORE PUSH1 0x64 ADD PUSH2 0x72E JUMP JUMPDEST PUSH1 0x3 SLOAD PUSH1 0x2 DUP3 ADD SLOAD PUSH2 0x10E2 SWAP2 PUSH1 0x1 PUSH1 0x1 PUSH1 0x40 SHL SUB SWAP1 DUP2 AND SWAP2 PUSH1 0x1 PUSH1 0xA0 SHL SWAP1 DIV AND PUSH2 0x2DAA JUMP JUMPDEST PUSH1 0x1 PUSH1 0x1 PUSH1 0x40 SHL SUB AND TIMESTAMP GT ISZERO PUSH2 0x112A JUMPI PUSH1 0x40 MLOAD PUSH3 0x461BCD PUSH1 0xE5 SHL DUP2 MSTORE PUSH1 0x20 PUSH1 0x4 DUP3 ADD MSTORE PUSH1 0xD PUSH1 0x24 DUP3 ADD MSTORE PUSH13 0x1DDA5B991BDDC818DB1BDCD959 PUSH1 0x9A SHL PUSH1 0x44 DUP3 ADD MSTORE PUSH1 0x64 ADD PUSH2 0x72E JUMP JUMPDEST DUP2 ISZERO DUP1 ISZERO SWAP1 PUSH2 0x113B JUMPI POP PUSH2 0x7D0 DUP3 GT ISZERO JUMPDEST PUSH2 0x1174 JUMPI PUSH1 0x40 MLOAD PUSH3 0x461BCD PUSH1 0xE5 SHL DUP2 MSTORE PUSH1 0x20 PUSH1 0x4 DUP3 ADD MSTORE PUSH1 0xA PUSH1 0x24 DUP3 ADD MSTORE PUSH10 0x3130B2103932B0B9B7B7 PUSH1 0xB1 SHL PUSH1 0x44 DUP3 ADD MSTORE PUSH1 0x64 ADD PUSH2 0x72E JUMP JUMPDEST PUSH1 0x3 SLOAD PUSH1 0x1 DUP3 ADD SLOAD PUSH1 0x0 SWAP2 PUSH2 0x2710 SWAP2 PUSH2 0x11A8 SWAP2 PUSH1 0x1 PUSH1 0x40 SHL SWAP1 DIV PUSH2 0xFFFF AND SWAP1 PUSH1 0x1 PUSH1 0xA0 SHL SWAP1 DIV PUSH1 0x1 PUSH1 0x1 PUSH1 0x60 SHL SUB AND PUSH2 0x2E17 JUMP JUMPDEST PUSH2 0x11B2 SWAP2 SWAP1 PUSH2 0x2E34 JUMP JUMPDEST SWAP1 POP DUP1 CALLVALUE EQ PUSH2 0x11F1 JUMPI PUSH1 0x40 MLOAD PUSH3 0x461BCD PUSH1 0xE5 SHL DUP2 MSTORE PUSH1 0x20 PUSH1 0x4 DUP3 ADD MSTORE PUSH1 0xB PUSH1 0x24 DUP3 ADD MSTORE PUSH11 0x77726F6E67207374616B65 PUSH1 0xA8 SHL PUSH1 0x44 DUP3 ADD MSTORE PUSH1 0x64 ADD PUSH2 0x72E JUMP JUMPDEST PUSH1 0x2 DUP3 ADD DUP1 SLOAD PUSH1 0x1 PUSH1 0x1 PUSH1 0x60 SHL SUB DUP4 AND PUSH32 0xFFFFFF00FFFFFFFFFFFFFFFFFFFFFFFFFFFFFFFF000000000000000000000000 SWAP1 SWAP2 AND OR PUSH1 0x3 PUSH1 0xE0 SHL OR SWAP1 SSTORE PUSH1 0x0 DUP6 DUP2 MSTORE PUSH1 0xB PUSH1 0x20 MSTORE PUSH1 0x40 SWAP1 KECCAK256 PUSH2 0x1247 DUP5 DUP7 DUP4 PUSH2 0x2F1C JUMP JUMPDEST POP CALLER PUSH1 0x1 PUSH1 0x1 PUSH1 0xA0 SHL SUB AND DUP6 PUSH32 0x9B58AFA035C5FA58F85C5A54B65BD3562D5AA7679E973BC1404FE25E8BABAB21 DUP7 DUP7 PUSH1 0x40 MLOAD PUSH2 0x1284 SWAP3 SWAP2 SWAP1 PUSH2 0x3005 JUMP JUMPDEST PUSH1 0x40 MLOAD DUP1 SWAP2 SUB SWAP1 LOG3 POP POP POP POP POP JUMP JUMPDEST PUSH1 0x0 DUP3 DUP2 MSTORE PUSH1 0x7 PUSH1 0x20 MSTORE PUSH1 0x40 SWAP1 KECCAK256 DUP1 SLOAD PUSH1 0x1 PUSH1 0x1 PUSH1 0xA0 SHL SUB AND CALLER EQ PUSH2 0x12E7 JUMPI PUSH1 0x40 MLOAD PUSH3 0x461BCD PUSH1 0xE5 SHL DUP2 MSTORE PUSH1 0x20 PUSH1 0x4 DUP3 ADD MSTORE PUSH1 0xA PUSH1 0x24 DUP3 ADD MSTORE PUSH10 0x3737BA1039B2B63632B9 PUSH1 0xB1 SHL PUSH1 0x44 DUP3 ADD MSTORE PUSH1 0x64 ADD PUSH2 0x72E JUMP JUMPDEST PUSH1 0x1 DUP2 ADD DUP1 SLOAD PUSH1 0xFF NOT AND DUP4 ISZERO ISZERO SWAP1 DUP2 OR SWAP1 SWAP2 SSTORE PUSH1 0x40 MLOAD SWAP1 DUP2 MSTORE DUP4 SWAP1 PUSH32 0x92693567BC88F088E150FCC712A4351EDBFA93E37DF9D8833C8E4FA177DD2352 SWAP1 PUSH1 0x20 ADD PUSH1 0x40 MLOAD DUP1 SWAP2 SUB SWAP1 LOG2 POP POP POP JUMP JUMPDEST PUSH1 0xB PUSH1 0x20 MSTORE PUSH1 0x0 SWAP1 DUP2 MSTORE PUSH1 0x40 SWAP1 KECCAK256 DUP1 SLOAD DUP2 SWAP1 PUSH2 0x134F SWAP1 PUSH2 0x2E7C JUMP JUMPDEST DUP1 PUSH1 0x1F ADD PUSH1 0x20 DUP1 SWAP2 DIV MUL PUSH1 0x20 ADD PUSH1 0x40 MLOAD SWAP1 DUP2 ADD PUSH1 0x40 MSTORE DUP1 SWAP3 SWAP2 SWAP1 DUP2 DUP2 MSTORE PUSH1 0x20 ADD DUP3 DUP1 SLOAD PUSH2 0x137B SWAP1 PUSH2 0x2E7C JUMP JUMPDEST DUP1 ISZERO PUSH2 0x13C8 JUMPI DUP1 PUSH1 0x1F LT PUSH2 0x139D JUMPI PUSH2 0x100 DUP1 DUP4 SLOAD DIV MUL DUP4 MSTORE SWAP2 PUSH1 0x20 ADD SWAP2 PUSH2 0x13C8 JUMP JUMPDEST DUP3 ADD SWAP2 SWAP1 PUSH1 0x0 MSTORE PUSH1 0x20 PUSH1 0x0 KECCAK256 SWAP1 JUMPDEST DUP2 SLOAD DUP2 MSTORE SWAP1 PUSH1 0x1 ADD SWAP1 PUSH1 0x20 ADD DUP1 DUP4 GT PUSH2 0x13AB JUMPI DUP3 SWAP1 SUB PUSH1 0x1F AND DUP3 ADD SWAP2 JUMPDEST POP POP POP PUSH1 0x1 DUP5 ADD SLOAD PUSH1 0x2 DUP6 ADD DUP1 SLOAD SWAP5 SWAP6 PUSH1 0xFF SWAP1 SWAP3 AND SWAP5 SWAP2 SWAP4 POP SWAP2 POP PUSH2 0x13EC SWAP1 PUSH2 0x2E7C JUMP JUMPDEST DUP1 PUSH1 0x1F ADD PUSH1 0x20 DUP1 SWAP2 DIV MUL PUSH1 0x20 ADD PUSH1 0x40 MLOAD SWAP1 DUP2 ADD PUSH1 0x40 MSTORE DUP1 SWAP3 SWAP2 SWAP1 DUP2 DUP2 MSTORE PUSH1 0x20 ADD DUP3 DUP1 SLOAD PUSH2 0x1418 SWAP1 PUSH2 0x2E7C JUMP JUMPDEST DUP1 ISZERO PUSH2 0x1465 JUMPI DUP1 PUSH1 0x1F LT PUSH2 0x143A JUMPI PUSH2 0x100 DUP1 DUP4 SLOAD DIV MUL DUP4 MSTORE SWAP2 PUSH1 0x20 ADD SWAP2 PUSH2 0x1465 JUMP JUMPDEST DUP3 ADD SWAP2 SWAP1 PUSH1 0x0 MSTORE PUSH1 0x20 PUSH1 0x0 KECCAK256 SWAP1 JUMPDEST DUP2 SLOAD DUP2 MSTORE SWAP1 PUSH1 0x1 ADD SWAP1 PUSH1 0x20 ADD DUP1 DUP4 GT PUSH2 0x1448 JUMPI DUP3 SWAP1 SUB PUSH1 0x1F AND DUP3 ADD SWAP2 JUMPDEST POP POP POP POP POP SWAP1 POP DUP4 JUMP JUMPDEST PUSH1 0x0 DUP1 DUP5 PUSH1 0x1 PUSH1 0x1 PUSH1 0x60 SHL SUB AND GT PUSH2 0x14B3 JUMPI PUSH1 0x40 MLOAD PUSH3 0x461BCD PUSH1 0xE5 SHL DUP2 MSTORE PUSH1 0x20 PUSH1 0x4 DUP3 ADD MSTORE PUSH1 0x7 PUSH1 0x24 DUP3 ADD MSTORE PUSH7 0x70726963653D3 PUSH1 0xCC SHL PUSH1 0x44 DUP3 ADD MSTORE PUSH1 0x64 ADD PUSH2 0x72E JUMP JUMPDEST DUP7 ISZERO DUP1 ISZERO SWAP1 PUSH2 0x14C3 JUMPI POP PUSH1 0x64 DUP8 GT ISZERO JUMPDEST PUSH2 0x14FB JUMPI PUSH1 0x40 MLOAD PUSH3 0x461BCD PUSH1 0xE5 SHL DUP2 MSTORE PUSH1 0x20 PUSH1 0x4 DUP3 ADD MSTORE PUSH1 0x9 PUSH1 0x24 DUP3 ADD MSTORE PUSH9 0x626164207469746C65 PUSH1 0xB8 SHL PUSH1 0x44 DUP3 ADD MSTORE PUSH1 0x64 ADD PUSH2 0x72E JUMP JUMPDEST DUP5 ISZERO DUP1 ISZERO SWAP1 PUSH2 0x150C JUMPI POP PUSH2 0x7D0 DUP6 GT ISZERO JUMPDEST PUSH2 0x154A JUMPI PUSH1 0x40 MLOAD PUSH3 0x461BCD PUSH1 0xE5 SHL DUP2 MSTORE PUSH1 0x20 PUSH1 0x4 DUP3 ADD MSTORE PUSH1 0xF PUSH1 0x24 DUP3 ADD MSTORE PUSH15 0x3130B2103232B9B1B934B83A34B7B7 PUSH1 0x89 SHL PUSH1 0x44 DUP3 ADD MSTORE PUSH1 0x64 ADD PUSH2 0x72E JUMP JUMPDEST DUP2 ISZERO DUP1 ISZERO SWAP1 PUSH2 0x155B JUMPI POP PUSH2 0x1000 DUP3 GT ISZERO JUMPDEST PUSH2 0x1594 JUMPI PUSH1 0x40 MLOAD PUSH3 0x461BCD PUSH1 0xE5 SHL DUP2 MSTORE PUSH1 0x20 PUSH1 0x4 DUP3 ADD MSTORE PUSH1 0xA PUSH1 0x24 DUP3 ADD MSTORE PUSH10 0x189859081CD958DC995D PUSH1 0xB2 SHL PUSH1 0x44 DUP3 ADD MSTORE PUSH1 0x64 ADD PUSH2 0x72E JUMP JUMPDEST PUSH1 0x5 DUP1 SLOAD SWAP1 PUSH1 0x0 PUSH2 0x15A4 DUP4 PUSH2 0x3021 JUMP JUMPDEST SWAP2 SWAP1 POP SSTORE SWAP1 POP PUSH1 0x40 MLOAD DUP1 PUSH1 0xE0 ADD PUSH1 0x40 MSTORE DUP1 CALLER PUSH1 0x1 PUSH1 0x1 PUSH1 0xA0 SHL SUB AND DUP2 MSTORE PUSH1 0x20 ADD DUP6 PUSH1 0x1 PUSH1 0x1 PUSH1 0x60 SHL SUB AND DUP2 MSTORE PUSH1 0x20 ADD PUSH1 0x1 ISZERO ISZERO DUP2 MSTORE PUSH1 0x20 ADD PUSH1 0x0 PUSH1 0x1 PUSH1 0x1 PUSH1 0x40 SHL SUB AND DUP2 MSTORE PUSH1 0x20 ADD DUP10 DUP10 DUP1 DUP1 PUSH1 0x1F ADD PUSH1 0x20 DUP1 SWAP2 DIV MUL PUSH1 0x20 ADD PUSH1 0x40 MLOAD SWAP1 DUP2 ADD PUSH1 0x40 MSTORE DUP1 SWAP4 SWAP3 SWAP2 SWAP1 DUP2 DUP2 MSTORE PUSH1 0x20 ADD DUP4 DUP4 DUP1 DUP3 DUP5 CALLDATACOPY PUSH1 0x0 SWAP3 ADD SWAP2 SWAP1 SWAP2 MSTORE POP POP POP SWAP1 DUP3 MSTORE POP PUSH1 0x40 DUP1 MLOAD PUSH1 0x20 PUSH1 0x1F DUP11 ADD DUP2 SWAP1 DIV DUP2 MUL DUP3 ADD DUP2 ADD SWAP1 SWAP3 MSTORE DUP9 DUP2 MSTORE SWAP2 DUP2 ADD SWAP2 SWAP1 DUP10 SWAP1 DUP10 SWAP1 DUP2 SWAP1 DUP5 ADD DUP4 DUP3 DUP1 DUP3 DUP5 CALLDATACOPY PUSH1 0x0 SWAP3 ADD SWAP2 SWAP1 SWAP2 MSTORE POP POP POP SWAP1 DUP3 MSTORE POP PUSH1 0x40 DUP1 MLOAD PUSH1 0x20 PUSH1 0x1F DUP8 ADD DUP2 SWAP1 DIV DUP2 MUL DUP3 ADD DUP2 ADD SWAP1 SWAP3 MSTORE DUP6 DUP2 MSTORE SWAP2 DUP2 ADD SWAP2 SWAP1 DUP7 SWAP1 DUP7 SWAP1 DUP2 SWAP1 DUP5 ADD DUP4 DUP3 DUP1 DUP3 DUP5 CALLDATACOPY PUSH1 0x0 SWAP3 ADD DUP3 SWAP1 MSTORE POP SWAP4 SWAP1 SWAP5 MSTORE POP POP DUP4 DUP2 MSTORE PUSH1 0x7 PUSH1 0x20 SWAP1 DUP2 MSTORE PUSH1 0x40 SWAP2 DUP3 SWAP1 KECCAK256 DUP5 MLOAD SWAP2 DUP6 ADD MLOAD PUSH1 0x1 PUSH1 0x1 PUSH1 0x60 SHL SUB AND PUSH1 0x1 PUSH1 0xA0 SHL MUL PUSH1 0x1 PUSH1 0x1 PUSH1 0xA0 SHL SUB SWAP1 SWAP3 AND SWAP2 SWAP1 SWAP2 OR DUP2 SSTORE SWAP1 DUP4 ADD MLOAD PUSH1 0x1 DUP3 ADD DUP1 SLOAD PUSH1 0x60 DUP7 ADD MLOAD PUSH1 0x1 PUSH1 0x1 PUSH1 0x40 SHL SUB AND PUSH2 0x100 MUL PUSH9 0xFFFFFFFFFFFFFFFF00 NOT SWAP4 ISZERO ISZERO SWAP4 SWAP1 SWAP4 AND PUSH9 0xFFFFFFFFFFFFFFFFFF NOT SWAP1 SWAP2 AND OR SWAP2 SWAP1 SWAP2 OR SWAP1 SSTORE PUSH1 0x80 DUP4 ADD MLOAD SWAP1 SWAP2 POP PUSH1 0x2 DUP3 ADD SWAP1 PUSH2 0x172A SWAP1 DUP3 PUSH2 0x303A JUMP JUMPDEST POP PUSH1 0xA0 DUP3 ADD MLOAD PUSH1 0x3 DUP3 ADD SWAP1 PUSH2 0x173F SWAP1 DUP3 PUSH2 0x303A JUMP JUMPDEST POP PUSH1 0xC0 DUP3 ADD MLOAD PUSH1 0x4 DUP3 ADD SWAP1 PUSH2 0x1754 SWAP1 DUP3 PUSH2 0x303A JUMP JUMPDEST POP SWAP1 POP POP CALLER PUSH1 0x1 PUSH1 0x1 PUSH1 0xA0 SHL SUB AND DUP2 PUSH32 0xA490EA95B20302D0B594B4A9F965011ABD72192513422AE4B5ACDC910633612E DUP7 DUP12 DUP12 PUSH1 0x40 MLOAD PUSH2 0x1796 SWAP4 SWAP3 SWAP2 SWAP1 PUSH2 0x30F9 JUMP JUMPDEST PUSH1 0x40 MLOAD DUP1 SWAP2 SUB SWAP1 LOG3 SWAP8 SWAP7 POP POP POP POP POP POP POP JUMP JUMPDEST PUSH1 0xC SLOAD PUSH1 0xFF AND ISZERO PUSH2 0x17CC JUMPI PUSH1 0x40 MLOAD PUSH3 0x461BCD PUSH1 0xE5 SHL DUP2 MSTORE PUSH1 0x4 ADD PUSH2 0x72E SWAP1 PUSH2 0x2D70 JUMP JUMPDEST PUSH1 0xC DUP1 SLOAD PUSH1 0xFF NOT AND PUSH1 0x1 SWAP1 DUP2 OR SWAP1 SWAP2 SSTORE PUSH1 0x0 DUP3 DUP2 MSTORE PUSH1 0x8 PUSH1 0x20 MSTORE PUSH1 0x40 SWAP1 KECCAK256 SWAP1 DUP2 ADD SLOAD PUSH1 0x1 PUSH1 0x1 PUSH1 0xA0 SHL SUB AND CALLER EQ PUSH2 0x1831 JUMPI PUSH1 0x40 MLOAD PUSH3 0x461BCD PUSH1 0xE5 SHL DUP2 MSTORE PUSH1 0x20 PUSH1 0x4 DUP3 ADD MSTORE PUSH1 0x9 PUSH1 0x24 DUP3 ADD MSTORE PUSH9 0x3737BA10313ABCB2B9 PUSH1 0xB9 SHL PUSH1 0x44 DUP3 ADD MSTORE PUSH1 0x64 ADD PUSH2 0x72E JUMP JUMPDEST PUSH1 0x1 PUSH1 0x2 DUP3 ADD SLOAD PUSH1 0x1 PUSH1 0xE0 SHL SWAP1 DIV PUSH1 0xFF AND PUSH1 0x6 DUP2 GT ISZERO PUSH2 0x1853 JUMPI PUSH2 0x1853 PUSH2 0x29B9 JUMP JUMPDEST EQ PUSH2 0x1891 JUMPI PUSH1 0x40 MLOAD PUSH3 0x461BCD PUSH1 0xE5 SHL DUP2 MSTORE PUSH1 0x20 PUSH1 0x4 DUP3 ADD MSTORE PUSH1 0xE PUSH1 0x24 DUP3 ADD MSTORE PUSH14 0x6E6F7420726566756E6461626C65 PUSH1 0x90 SHL PUSH1 0x44 DUP3 ADD MSTORE PUSH1 0x64 ADD PUSH2 0x72E JUMP JUMPDEST PUSH1 0x2 DUP1 SLOAD SWAP1 DUP3 ADD SLOAD PUSH2 0x18BD SWAP2 PUSH1 0x1 PUSH1 0x1 PUSH1 0x40 SHL SUB PUSH1 0x1 PUSH1 0xA0 SHL SWAP1 SWAP2 DIV DUP2 AND SWAP2 PUSH1 0x1 PUSH1 0x60 SHL SWAP1 DIV AND PUSH2 0x2DAA JUMP JUMPDEST PUSH1 0x1 PUSH1 0x1 PUSH1 0x40 SHL SUB AND TIMESTAMP GT PUSH2 0x1900 JUMPI PUSH1 0x40 MLOAD PUSH3 0x461BCD PUSH1 0xE5 SHL DUP2 MSTORE PUSH1 0x20 PUSH1 0x4 DUP3 ADD MSTORE PUSH1 0x9 PUSH1 0x24 DUP3 ADD MSTORE PUSH9 0x746F6F206561726C79 PUSH1 0xB8 SHL PUSH1 0x44 DUP3 ADD MSTORE PUSH1 0x64 ADD PUSH2 0x72E JUMP JUMPDEST PUSH1 0x2 DUP2 ADD DUP1 SLOAD PUSH1 0xFF PUSH1 0xE0 SHL NOT AND PUSH1 0x5 PUSH1 0xE0 SHL OR SWAP1 SSTORE PUSH1 0x1 DUP2 ADD SLOAD PUSH2 0x193E SWAP1 PUSH1 0x1 PUSH1 0x1 PUSH1 0xA0 SHL SUB DUP2 AND SWAP1 PUSH1 0x1 PUSH1 0xA0 SHL SWAP1 DIV PUSH1 0x1 PUSH1 0x1 PUSH1 0x60 SHL SUB AND PUSH2 0x270B JUMP JUMPDEST PUSH1 0x40 MLOAD DUP3 SWAP1 PUSH32 0xC118564863BC4BC4615080294149317D0199C54D04E6CCC10DE28A41CF9807C6 SWAP1 PUSH1 0x0 SWAP1 LOG2 POP POP PUSH1 0xC DUP1 SLOAD PUSH1 0xFF NOT AND SWAP1 SSTORE JUMP JUMPDEST PUSH1 0x0 DUP2 DUP2 MSTORE PUSH1 0xA PUSH1 0x20 MSTORE PUSH1 0x40 SWAP1 KECCAK256 DUP1 SLOAD PUSH1 0x60 SWAP2 SWAP1 PUSH2 0x1994 SWAP1 PUSH2 0x2E7C JUMP JUMPDEST DUP1 PUSH1 0x1F ADD PUSH1 0x20 DUP1 SWAP2 DIV MUL PUSH1 0x20 ADD PUSH1 0x40 MLOAD SWAP1 DUP2 ADD PUSH1 0x40 MSTORE DUP1 SWAP3 SWAP2 SWAP1 DUP2 DUP2 MSTORE PUSH1 0x20 ADD DUP3 DUP1 SLOAD PUSH2 0x19C0 SWAP1 PUSH2 0x2E7C JUMP JUMPDEST DUP1 ISZERO PUSH2 0x1A0D JUMPI DUP1 PUSH1 0x1F LT PUSH2 0x19E2 JUMPI PUSH2 0x100 DUP1 DUP4 SLOAD DIV MUL DUP4 MSTORE SWAP2 PUSH1 0x20 ADD SWAP2 PUSH2 0x1A0D JUMP JUMPDEST DUP3 ADD SWAP2 SWAP1 PUSH1 0x0 MSTORE PUSH1 0x20 PUSH1 0x0 KECCAK256 SWAP1 JUMPDEST DUP2 SLOAD DUP2 MSTORE SWAP1 PUSH1 0x1 ADD SWAP1 PUSH1 0x20 ADD DUP1 DUP4 GT PUSH2 0x19F0 JUMPI DUP3 SWAP1 SUB PUSH1 0x1F AND DUP3 ADD SWAP2 JUMPDEST POP POP POP POP POP SWAP1 POP SWAP2 SWAP1 POP JUMP JUMPDEST PUSH1 0x0 SLOAD PUSH1 0x1 PUSH1 0x1 PUSH1 0xA0 SHL SUB AND CALLER EQ PUSH2 0x1A5F JUMPI PUSH1 0x40 MLOAD PUSH3 0x461BCD PUSH1 0xE5 SHL DUP2 MSTORE PUSH1 0x20 PUSH1 0x4 DUP3 ADD MSTORE PUSH1 0x9 PUSH1 0x24 DUP3 ADD MSTORE PUSH9 0x3737BA1037BBB732B9 PUSH1 0xB9 SHL PUSH1 0x44 DUP3 ADD MSTORE PUSH1 0x64 ADD PUSH2 0x72E JUMP JUMPDEST PUSH1 0x1 DUP1 SLOAD PUSH1 0x1 PUSH1 0x1 PUSH1 0xA0 SHL SUB SWAP4 DUP5 AND PUSH1 0x1 PUSH1 0x1 PUSH1 0xA0 SHL SUB NOT SWAP2 DUP3 AND OR SWAP1 SWAP2 SSTORE PUSH1 0x2 DUP1 SLOAD SWAP3 SWAP1 SWAP4 AND SWAP2 AND OR SWAP1 SSTORE JUMP JUMPDEST PUSH1 0xC SLOAD PUSH1 0xFF AND ISZERO PUSH2 0x1AB0 JUMPI PUSH1 0x40 MLOAD PUSH3 0x461BCD PUSH1 0xE5 SHL DUP2 MSTORE PUSH1 0x4 ADD PUSH2 0x72E SWAP1 PUSH2 0x2D70 JUMP JUMPDEST PUSH1 0xC DUP1 SLOAD PUSH1 0xFF NOT AND PUSH1 0x1 OR SWAP1 SSTORE PUSH1 0x2 SLOAD CALLER PUSH1 0x1 PUSH1 0x1 PUSH1 0xA0 SHL SUB SWAP1 SWAP2 AND EQ PUSH2 0x1B07 JUMPI PUSH1 0x40 MLOAD PUSH3 0x461BCD PUSH1 0xE5 SHL DUP2 MSTORE PUSH1 0x20 PUSH1 0x4 DUP3 ADD MSTORE PUSH1 0xB PUSH1 0x24 DUP3 ADD MSTORE PUSH11 0x3737BA1030B93134BA32B9 PUSH1 0xA9 SHL PUSH1 0x44 DUP3 ADD MSTORE PUSH1 0x64 ADD PUSH2 0x72E JUMP JUMPDEST PUSH1 0x0 DUP5 DUP2 MSTORE PUSH1 0x8 PUSH1 0x20 MSTORE PUSH1 0x40 SWAP1 KECCAK256 PUSH1 0x3 PUSH1 0x2 DUP3 ADD SLOAD PUSH1 0x1 PUSH1 0xE0 SHL SWAP1 DIV PUSH1 0xFF AND PUSH1 0x6 DUP2 GT ISZERO PUSH2 0x1B37 JUMPI PUSH2 0x1B37 PUSH2 0x29B9 JUMP JUMPDEST EQ PUSH2 0x1B73 JUMPI PUSH1 0x40 MLOAD PUSH3 0x461BCD PUSH1 0xE5 SHL DUP2 MSTORE PUSH1 0x20 PUSH1 0x4 DUP3 ADD MSTORE PUSH1 0xC PUSH1 0x24 DUP3 ADD MSTORE PUSH12 0x1B9BDD08191A5CDC1D5D1959 PUSH1 0xA2 SHL PUSH1 0x44 DUP3 ADD MSTORE PUSH1 0x64 ADD PUSH2 0x72E JUMP JUMPDEST PUSH1 0x0 DUP5 PUSH1 0x3 DUP2 GT ISZERO PUSH2 0x1B87 JUMPI PUSH2 0x1B87 PUSH2 0x29B9 JUMP JUMPDEST SUB PUSH2 0x1BC2 JUMPI PUSH1 0x40 MLOAD PUSH3 0x461BCD PUSH1 0xE5 SHL DUP2 MSTORE PUSH1 0x20 PUSH1 0x4 DUP3 ADD MSTORE PUSH1 0xB PUSH1 0x24 DUP3 ADD MSTORE PUSH11 0x189859081D995C991A58DD PUSH1 0xAA SHL PUSH1 0x44 DUP3 ADD MSTORE PUSH1 0x64 ADD PUSH2 0x72E JUMP JUMPDEST DUP1 SLOAD PUSH1 0x0 SWAP1 DUP2 MSTORE PUSH1 0x7 PUSH1 0x20 SWAP1 DUP2 MSTORE PUSH1 0x40 DUP1 DUP4 KECCAK256 DUP1 SLOAD PUSH1 0x1 PUSH1 0x1 PUSH1 0xA0 SHL SUB AND DUP5 MSTORE PUSH1 0x9 DUP4 MSTORE DUP2 DUP5 KECCAK256 PUSH1 0x2 DUP7 ADD DUP1 SLOAD PUSH1 0xFF PUSH1 0xE0 SHL NOT AND PUSH1 0x3 PUSH1 0xE1 SHL OR SWAP1 SSTORE DUP10 DUP6 MSTORE PUSH1 0xB SWAP1 SWAP4 MSTORE SWAP3 KECCAK256 PUSH1 0x1 SWAP1 DUP2 ADD DUP1 SLOAD DUP9 SWAP3 PUSH1 0xFF NOT SWAP1 SWAP2 AND SWAP1 DUP4 PUSH1 0x3 DUP2 GT ISZERO PUSH2 0x1C2A JUMPI PUSH2 0x1C2A PUSH2 0x29B9 JUMP JUMPDEST MUL OR SWAP1 SSTORE POP PUSH1 0x0 DUP8 DUP2 MSTORE PUSH1 0xB PUSH1 0x20 MSTORE PUSH1 0x40 SWAP1 KECCAK256 PUSH1 0x2 ADD PUSH2 0x1C4B DUP6 DUP8 DUP4 PUSH2 0x2F1C JUMP JUMPDEST POP PUSH1 0x1 DUP7 PUSH1 0x3 DUP2 GT ISZERO PUSH2 0x1C60 JUMPI PUSH2 0x1C60 PUSH2 0x29B9 JUMP JUMPDEST SUB PUSH2 0x1CE2 JUMPI DUP1 SLOAD PUSH1 0x1 PUSH1 0x80 SHL SWAP1 DIV PUSH1 0x1 PUSH1 0x1 PUSH1 0x40 SHL SUB AND DUP2 PUSH1 0x10 PUSH2 0x1C83 DUP4 PUSH2 0x2DD1 JUMP JUMPDEST DUP3 SLOAD PUSH1 0x1 PUSH1 0x1 PUSH1 0x40 SHL SUB SWAP2 DUP3 AND PUSH2 0x100 SWAP4 SWAP1 SWAP4 EXP SWAP3 DUP4 MUL SWAP2 SWAP1 SWAP3 MUL NOT SWAP1 SWAP2 AND OR SWAP1 SSTORE POP PUSH1 0x1 DUP4 ADD SLOAD PUSH1 0x2 DUP5 ADD SLOAD PUSH2 0x1CDD SWAP2 PUSH1 0x1 PUSH1 0x1 PUSH1 0xA0 SHL SUB DUP2 AND SWAP2 PUSH2 0x9B4 SWAP2 PUSH1 0x1 PUSH1 0x1 PUSH1 0x60 SHL SUB SWAP2 DUP3 AND SWAP2 PUSH1 0x1 PUSH1 0xA0 SHL SWAP1 SWAP2 DIV AND PUSH2 0x2E56 JUMP JUMPDEST PUSH2 0x1EEC JUMP JUMPDEST PUSH1 0x2 DUP7 PUSH1 0x3 DUP2 GT ISZERO PUSH2 0x1CF6 JUMPI PUSH2 0x1CF6 PUSH2 0x29B9 JUMP JUMPDEST SUB PUSH2 0x1E66 JUMPI DUP1 SLOAD PUSH1 0x1 PUSH1 0x40 SHL SWAP1 DIV PUSH1 0x1 PUSH1 0x1 PUSH1 0x40 SHL SUB AND DUP2 PUSH1 0x8 PUSH2 0x1D19 DUP4 PUSH2 0x2DD1 JUMP JUMPDEST DUP3 SLOAD PUSH2 0x100 SWAP3 SWAP1 SWAP3 EXP PUSH1 0x1 PUSH1 0x1 PUSH1 0x40 SHL SUB DUP2 DUP2 MUL NOT SWAP1 SWAP4 AND SWAP2 DUP4 AND MUL OR SWAP1 SWAP2 SSTORE DUP3 SLOAD AND SWAP1 POP DUP2 PUSH1 0x0 PUSH2 0x1D4A DUP4 PUSH2 0x2DD1 JUMP JUMPDEST DUP3 SLOAD PUSH2 0x100 SWAP3 SWAP1 SWAP3 EXP PUSH1 0x1 PUSH1 0x1 PUSH1 0x40 SHL SUB DUP2 DUP2 MUL NOT SWAP1 SWAP4 AND SWAP2 SWAP1 SWAP3 AND SWAP2 SWAP1 SWAP2 MUL OR SWAP1 SSTORE POP PUSH1 0x1 DUP4 DUP2 ADD SLOAD SWAP1 DUP3 ADD DUP1 SLOAD PUSH1 0x1 PUSH1 0xA0 SHL SWAP1 SWAP3 DIV PUSH1 0x1 PUSH1 0x1 PUSH1 0x60 SHL SUB AND SWAP2 PUSH1 0x0 SWAP1 PUSH2 0x1DA2 SWAP1 DUP5 SWAP1 PUSH1 0x1 PUSH1 0x1 PUSH1 0x80 SHL SUB AND PUSH2 0x2DF7 JUMP JUMPDEST DUP3 SLOAD PUSH2 0x100 SWAP3 SWAP1 SWAP3 EXP PUSH1 0x1 PUSH1 0x1 PUSH1 0x80 SHL SUB DUP2 DUP2 MUL NOT SWAP1 SWAP4 AND SWAP2 SWAP1 SWAP3 AND SWAP2 SWAP1 SWAP2 MUL OR SWAP1 SSTORE POP PUSH1 0x3 SLOAD PUSH1 0x1 DUP5 ADD SLOAD PUSH1 0x0 SWAP2 PUSH2 0x2710 SWAP2 PUSH2 0x1DFA SWAP2 PUSH1 0x1 PUSH1 0x50 SHL SWAP1 DIV PUSH2 0xFFFF AND SWAP1 PUSH1 0x1 PUSH1 0xA0 SHL SWAP1 DIV PUSH1 0x1 PUSH1 0x1 PUSH1 0x60 SHL SUB AND PUSH2 0x2E17 JUMP JUMPDEST PUSH2 0x1E04 SWAP2 SWAP1 PUSH2 0x2E34 JUMP JUMPDEST SWAP1 POP DUP1 PUSH1 0x4 PUSH1 0x0 DUP3 DUP3 SLOAD PUSH2 0x1E18 SWAP2 SWAP1 PUSH2 0x2E56 JUMP JUMPDEST SWAP1 SWAP2 SSTORE POP POP DUP3 SLOAD PUSH1 0x2 DUP6 ADD SLOAD PUSH1 0x1 DUP7 ADD SLOAD PUSH2 0x1E60 SWAP3 PUSH1 0x1 PUSH1 0x1 PUSH1 0xA0 SHL SUB AND SWAP2 PUSH1 0x1 PUSH1 0x1 PUSH1 0x60 SHL SUB SWAP1 DUP2 AND SWAP2 PUSH2 0x1E56 SWAP2 DUP7 SWAP2 PUSH1 0x1 PUSH1 0xA0 SHL SWAP1 DIV AND PUSH2 0x2E69 JUMP JUMPDEST PUSH2 0x9B4 SWAP2 SWAP1 PUSH2 0x2E56 JUMP JUMPDEST POP PUSH2 0x1EEC JUMP JUMPDEST PUSH1 0x1 DUP4 ADD SLOAD PUSH1 0x0 SWAP1 PUSH2 0x1E8A SWAP1 PUSH1 0x2 SWAP1 PUSH1 0x1 PUSH1 0xA0 SHL SWAP1 DIV PUSH1 0x1 PUSH1 0x1 PUSH1 0x60 SHL SUB AND PUSH2 0x2E34 JUMP JUMPDEST PUSH1 0x1 DUP6 ADD SLOAD PUSH1 0x2 DUP7 ADD SLOAD SWAP2 SWAP3 POP PUSH2 0x1EBA SWAP2 PUSH1 0x1 PUSH1 0x1 PUSH1 0xA0 SHL SUB SWAP1 SWAP2 AND SWAP1 PUSH2 0x9B4 SWAP1 PUSH1 0x1 PUSH1 0x1 PUSH1 0x60 SHL SUB AND DUP5 PUSH2 0x2E56 JUMP JUMPDEST DUP3 SLOAD PUSH1 0x1 DUP6 ADD SLOAD PUSH2 0x1EEA SWAP2 PUSH1 0x1 PUSH1 0x1 PUSH1 0xA0 SHL SUB AND SWAP1 PUSH2 0x9B4 SWAP1 DUP5 SWAP1 PUSH1 0x1 PUSH1 0xA0 SHL SWAP1 DIV PUSH1 0x1 PUSH1 0x1 PUSH1 0x60 SHL SUB AND PUSH2 0x2E69 JUMP JUMPDEST POP JUMPDEST DUP7 PUSH32 0xC204352FAD7E46251E09CE83E05533737044B65128EB8926AAC1969FBE2BE267 DUP8 DUP8 DUP8 PUSH1 0x40 MLOAD PUSH2 0x1F20 SWAP4 SWAP3 SWAP2 SWAP1 PUSH2 0x311C JUMP JUMPDEST PUSH1 0x40 MLOAD DUP1 SWAP2 SUB SWAP1 LOG2 DUP2 SLOAD DUP2 SLOAD PUSH1 0x40 DUP1 MLOAD PUSH1 0x1 PUSH1 0x1 PUSH1 0x40 SHL SUB DUP1 DUP5 AND DUP3 MSTORE PUSH1 0x1 PUSH1 0x40 SHL DUP5 DIV DUP2 AND PUSH1 0x20 DUP4 ADD MSTORE PUSH1 0x1 PUSH1 0x80 SHL SWAP1 SWAP4 DIV SWAP1 SWAP3 AND DUP3 DUP3 ADD MSTORE MLOAD PUSH1 0x1 PUSH1 0x1 PUSH1 0xA0 SHL SUB SWAP1 SWAP3 AND SWAP2 PUSH32 0xC61210DACB3A6183D55F6567A264442C0C723BD97EC41717DFB307273701BE95 SWAP2 DUP2 SWAP1 SUB PUSH1 0x60 ADD SWAP1 LOG2 POP POP PUSH1 0xC DUP1 SLOAD PUSH1 0xFF NOT AND SWAP1 SSTORE POP POP POP POP POP JUMP JUMPDEST PUSH1 0x40 DUP1 MLOAD PUSH2 0x100 DUP2 ADD DUP3 MSTORE PUSH1 0x0 DUP1 DUP3 MSTORE PUSH1 0x20 DUP3 ADD DUP2 SWAP1 MSTORE SWAP2 DUP2 ADD DUP3 SWAP1 MSTORE PUSH1 0x60 DUP2 ADD DUP3 SWAP1 MSTORE PUSH1 0x80 DUP2 ADD DUP3 SWAP1 MSTORE PUSH1 0xA0 DUP2 ADD DUP3 SWAP1 MSTORE PUSH1 0xC0 DUP2 ADD DUP3 SWAP1 MSTORE PUSH1 0xE0 DUP2 ADD SWAP2 SWAP1 SWAP2 MSTORE PUSH1 0x0 DUP3 DUP2 MSTORE PUSH1 0x8 PUSH1 0x20 SWAP1 DUP2 MSTORE PUSH1 0x40 SWAP2 DUP3 SWAP1 KECCAK256 DUP3 MLOAD PUSH2 0x100 DUP2 ADD DUP5 MSTORE DUP2 SLOAD DUP2 MSTORE PUSH1 0x1 DUP3 ADD SLOAD PUSH1 0x1 PUSH1 0x1 PUSH1 0xA0 SHL SUB DUP2 AND SWAP4 DUP3 ADD SWAP4 SWAP1 SWAP4 MSTORE PUSH1 0x1 PUSH1 0x1 PUSH1 0x60 SHL SUB PUSH1 0x1 PUSH1 0xA0 SHL SWAP4 DUP5 SWAP1 DIV DUP2 AND SWAP5 DUP3 ADD SWAP5 SWAP1 SWAP5 MSTORE PUSH1 0x2 DUP3 ADD SLOAD SWAP4 DUP5 AND PUSH1 0x60 DUP3 ADD MSTORE PUSH1 0x1 PUSH1 0x1 PUSH1 0x40 SHL SUB PUSH1 0x1 PUSH1 0x60 SHL DUP6 DIV DUP2 AND PUSH1 0x80 DUP4 ADD MSTORE SWAP3 DUP5 DIV SWAP1 SWAP3 AND PUSH1 0xA0 DUP4 ADD MSTORE SWAP1 SWAP2 PUSH1 0xC0 DUP4 ADD SWAP1 PUSH1 0xFF PUSH1 0x1 PUSH1 0xE0 SHL SWAP1 SWAP2 DIV AND PUSH1 0x6 DUP2 GT ISZERO PUSH2 0x2085 JUMPI PUSH2 0x2085 PUSH2 0x29B9 JUMP JUMPDEST PUSH1 0x6 DUP2 GT ISZERO PUSH2 0x2096 JUMPI PUSH2 0x2096 PUSH2 0x29B9 JUMP JUMPDEST DUP2 MSTORE PUSH1 0x20 ADD PUSH1 0x3 DUP3 ADD SLOAD DUP2 MSTORE POP POP SWAP1 POP SWAP2 SWAP1 POP JUMP JUMPDEST PUSH1 0x7 PUSH1 0x20 MSTORE PUSH1 0x0 SWAP1 DUP2 MSTORE PUSH1 0x40 SWAP1 KECCAK256 DUP1 SLOAD PUSH1 0x1 DUP3 ADD SLOAD PUSH1 0x2 DUP4 ADD DUP1 SLOAD PUSH1 0x1 PUSH1 0x1 PUSH1 0xA0 SHL SUB DUP5 AND SWAP5 PUSH1 0x1 PUSH1 0xA0 SHL SWAP1 SWAP5 DIV PUSH1 0x1 PUSH1 0x1 PUSH1 0x60 SHL SUB AND SWAP4 PUSH1 0xFF DUP5 AND SWAP4 PUSH2 0x100 SWAP1 DIV PUSH1 0x1 PUSH1 0x1 PUSH1 0x40 SHL SUB AND SWAP3 SWAP1 SWAP2 PUSH2 0x2102 SWAP1 PUSH2 0x2E7C JUMP JUMPDEST DUP1 PUSH1 0x1F ADD PUSH1 0x20 DUP1 SWAP2 DIV MUL PUSH1 0x20 ADD PUSH1 0x40 MLOAD SWAP1 DUP2 ADD PUSH1 0x40 MSTORE DUP1 SWAP3 SWAP2 SWAP1 DUP2 DUP2 MSTORE PUSH1 0x20 ADD DUP3 DUP1 SLOAD PUSH2 0x212E SWAP1 PUSH2 0x2E7C JUMP JUMPDEST DUP1 ISZERO PUSH2 0x217B JUMPI DUP1 PUSH1 0x1F LT PUSH2 0x2150 JUMPI PUSH2 0x100 DUP1 DUP4 SLOAD DIV MUL DUP4 MSTORE SWAP2 PUSH1 0x20 ADD SWAP2 PUSH2 0x217B JUMP JUMPDEST DUP3 ADD SWAP2 SWAP1 PUSH1 0x0 MSTORE PUSH1 0x20 PUSH1 0x0 KECCAK256 SWAP1 JUMPDEST DUP2 SLOAD DUP2 MSTORE SWAP1 PUSH1 0x1 ADD SWAP1 PUSH1 0x20 ADD DUP1 DUP4 GT PUSH2 0x215E JUMPI DUP3 SWAP1 SUB PUSH1 0x1F AND DUP3 ADD SWAP2 JUMPDEST POP POP POP POP POP SWAP1 DUP1 PUSH1 0x3 ADD DUP1 SLOAD PUSH2 0x2190 SWAP1 PUSH2 0x2E7C JUMP JUMPDEST DUP1 PUSH1 0x1F ADD PUSH1 0x20 DUP1 SWAP2 DIV MUL PUSH1 0x20 ADD PUSH1 0x40 MLOAD SWAP1 DUP2 ADD PUSH1 0x40 MSTORE DUP1 SWAP3 SWAP2 SWAP1 DUP2 DUP2 MSTORE PUSH1 0x20 ADD DUP3 DUP1 SLOAD PUSH2 0x21BC SWAP1 PUSH2 0x2E7C JUMP JUMPDEST DUP1 ISZERO PUSH2 0x2209 JUMPI DUP1 PUSH1 0x1F LT PUSH2 0x21DE JUMPI PUSH2 0x100 DUP1 DUP4 SLOAD DIV MUL DUP4 MSTORE SWAP2 PUSH1 0x20 ADD SWAP2 PUSH2 0x2209 JUMP JUMPDEST DUP3 ADD SWAP2 SWAP1 PUSH1 0x0 MSTORE PUSH1 0x20 PUSH1 0x0 KECCAK256 SWAP1 JUMPDEST DUP2 SLOAD DUP2 MSTORE SWAP1 PUSH1 0x1 ADD SWAP1 PUSH1 0x20 ADD DUP1 DUP4 GT PUSH2 0x21EC JUMPI DUP3 SWAP1 SUB PUSH1 0x1F AND DUP3 ADD SWAP2 JUMPDEST POP POP POP POP POP SWAP1 DUP1 PUSH1 0x4 ADD DUP1 SLOAD PUSH2 0x221E SWAP1 PUSH2 0x2E7C JUMP JUMPDEST DUP1 PUSH1 0x1F ADD PUSH1 0x20 DUP1 SWAP2 DIV MUL PUSH1 0x20 ADD PUSH1 0x40 MLOAD SWAP1 DUP2 ADD PUSH1 0x40 MSTORE DUP1 SWAP3 SWAP2 SWAP1 DUP2 DUP2 MSTORE PUSH1 0x20 ADD DUP3 DUP1 SLOAD PUSH2 0x224A SWAP1 PUSH2 0x2E7C JUMP JUMPDEST DUP1 ISZERO PUSH2 0x2297 JUMPI DUP1 PUSH1 0x1F LT PUSH2 0x226C JUMPI PUSH2 0x100 DUP1 DUP4 SLOAD DIV MUL DUP4 MSTORE SWAP2 PUSH1 0x20 ADD SWAP2 PUSH2 0x2297 JUMP JUMPDEST DUP3 ADD SWAP2 SWAP1 PUSH1 0x0 MSTORE PUSH1 0x20 PUSH1 0x0 KECCAK256 SWAP1 JUMPDEST DUP2 SLOAD DUP2 MSTORE SWAP1 PUSH1 0x1 ADD SWAP1 PUSH1 0x20 ADD DUP1 DUP4 GT PUSH2 0x227A JUMPI DUP3 SWAP1 SUB PUSH1 0x1F AND DUP3 ADD SWAP2 JUMPDEST POP POP POP POP POP SWAP1 POP DUP8 JUMP JUMPDEST PUSH1 0x40 DUP1 MLOAD PUSH1 0x60 DUP1 DUP3 ADD DUP4 MSTORE DUP1 DUP3 MSTORE PUSH1 0x0 PUSH1 0x20 DUP4 ADD MSTORE SWAP2 DUP2 ADD SWAP2 SWAP1 SWAP2 MSTORE PUSH1 0x0 DUP3 DUP2 MSTORE PUSH1 0xB PUSH1 0x20 MSTORE PUSH1 0x40 SWAP1 DUP2 SWAP1 KECCAK256 DUP2 MLOAD PUSH1 0x60 DUP2 ADD SWAP1 SWAP3 MSTORE DUP1 SLOAD DUP3 SWAP1 DUP3 SWAP1 PUSH2 0x22E5 SWAP1 PUSH2 0x2E7C JUMP JUMPDEST DUP1 PUSH1 0x1F ADD PUSH1 0x20 DUP1 SWAP2 DIV MUL PUSH1 0x20 ADD PUSH1 0x40 MLOAD SWAP1 DUP2 ADD PUSH1 0x40 MSTORE DUP1 SWAP3 SWAP2 SWAP1 DUP2 DUP2 MSTORE PUSH1 0x20 ADD DUP3 DUP1 SLOAD PUSH2 0x2311 SWAP1 PUSH2 0x2E7C JUMP JUMPDEST DUP1 ISZERO PUSH2 0x235E JUMPI DUP1 PUSH1 0x1F LT PUSH2 0x2333 JUMPI PUSH2 0x100 DUP1 DUP4 SLOAD DIV MUL DUP4 MSTORE SWAP2 PUSH1 0x20 ADD SWAP2 PUSH2 0x235E JUMP JUMPDEST DUP3 ADD SWAP2 SWAP1 PUSH1 0x0 MSTORE PUSH1 0x20 PUSH1 0x0 KECCAK256 SWAP1 JUMPDEST DUP2 SLOAD DUP2 MSTORE SWAP1 PUSH1 0x1 ADD SWAP1 PUSH1 0x20 ADD DUP1 DUP4 GT PUSH2 0x2341 JUMPI DUP3 SWAP1 SUB PUSH1 0x1F AND DUP3 ADD SWAP2 JUMPDEST POP POP POP SWAP2 DUP4 MSTORE POP POP PUSH1 0x1 DUP3 ADD SLOAD PUSH1 0x20 SWAP1 SWAP2 ADD SWAP1 PUSH1 0xFF AND PUSH1 0x3 DUP2 GT ISZERO PUSH2 0x2385 JUMPI PUSH2 0x2385 PUSH2 0x29B9 JUMP JUMPDEST PUSH1 0x3 DUP2 GT ISZERO PUSH2 0x2396 JUMPI PUSH2 0x2396 PUSH2 0x29B9 JUMP JUMPDEST DUP2 MSTORE PUSH1 0x20 ADD PUSH1 0x2 DUP3 ADD DUP1 SLOAD PUSH2 0xC94 SWAP1 PUSH2 0x2E7C JUMP JUMPDEST PUSH1 0x0 DUP3 DUP2 MSTORE PUSH1 0x7 PUSH1 0x20 MSTORE PUSH1 0x40 DUP2 KECCAK256 PUSH1 0x1 DUP2 ADD SLOAD PUSH1 0xFF AND PUSH2 0x23FF JUMPI PUSH1 0x40 MLOAD PUSH3 0x461BCD PUSH1 0xE5 SHL DUP2 MSTORE PUSH1 0x20 PUSH1 0x4 DUP3 ADD MSTORE PUSH1 0x10 PUSH1 0x24 DUP3 ADD MSTORE PUSH16 0x696E616374697665206C697374696E67 PUSH1 0x80 SHL PUSH1 0x44 DUP3 ADD MSTORE PUSH1 0x64 ADD PUSH2 0x72E JUMP JUMPDEST DUP1 SLOAD PUSH1 0x1 PUSH1 0xA0 SHL SWAP1 DIV PUSH1 0x1 PUSH1 0x1 PUSH1 0x60 SHL SUB AND CALLVALUE EQ PUSH2 0x244D JUMPI PUSH1 0x40 MLOAD PUSH3 0x461BCD PUSH1 0xE5 SHL DUP2 MSTORE PUSH1 0x20 PUSH1 0x4 DUP3 ADD MSTORE PUSH1 0xB PUSH1 0x24 DUP3 ADD MSTORE PUSH11 0x77726F6E67207072696365 PUSH1 0xA8 SHL PUSH1 0x44 DUP3 ADD MSTORE PUSH1 0x64 ADD PUSH2 0x72E JUMP JUMPDEST DUP1 SLOAD PUSH1 0x1 PUSH1 0x1 PUSH1 0xA0 SHL SUB AND CALLER SUB PUSH2 0x2491 JUMPI PUSH1 0x40 MLOAD PUSH3 0x461BCD PUSH1 0xE5 SHL DUP2 MSTORE PUSH1 0x20 PUSH1 0x4 DUP3 ADD MSTORE PUSH1 0x8 PUSH1 0x24 DUP3 ADD MSTORE PUSH8 0x73656C662D627579 PUSH1 0xC0 SHL PUSH1 0x44 DUP3 ADD MSTORE PUSH1 0x64 ADD PUSH2 0x72E JUMP JUMPDEST DUP3 PUSH2 0x24CA JUMPI PUSH1 0x40 MLOAD PUSH3 0x461BCD PUSH1 0xE5 SHL DUP2 MSTORE PUSH1 0x20 PUSH1 0x4 DUP3 ADD MSTORE PUSH1 0x9 PUSH1 0x24 DUP3 ADD MSTORE PUSH9 0x6E6F207075626B6579 PUSH1 0xB8 SHL PUSH1 0x44 DUP3 ADD MSTORE PUSH1 0x64 ADD PUSH2 0x72E JUMP JUMPDEST PUSH1 0x6 DUP1 SLOAD SWAP1 PUSH1 0x0 PUSH2 0x24DA DUP4 PUSH2 0x3021 JUMP JUMPDEST SWAP1 SWAP2 SSTORE POP PUSH1 0x40 DUP1 MLOAD PUSH2 0x100 DUP2 ADD DUP3 MSTORE DUP7 DUP2 MSTORE CALLER PUSH1 0x20 DUP3 ADD MSTORE DUP4 SLOAD PUSH1 0x1 PUSH1 0xA0 SHL SWAP1 DIV PUSH1 0x1 PUSH1 0x1 PUSH1 0x60 SHL SUB AND SWAP2 DUP2 ADD SWAP2 SWAP1 SWAP2 MSTORE PUSH1 0x0 PUSH1 0x60 DUP3 ADD DUP2 SWAP1 MSTORE TIMESTAMP PUSH1 0x1 PUSH1 0x1 PUSH1 0x40 SHL SUB AND PUSH1 0x80 DUP4 ADD MSTORE PUSH1 0xA0 DUP3 ADD MSTORE SWAP1 SWAP3 POP PUSH1 0xC0 DUP2 ADD PUSH1 0x1 DUP2 MSTORE PUSH1 0x20 SWAP1 DUP2 ADD DUP6 SWAP1 MSTORE PUSH1 0x0 DUP5 DUP2 MSTORE PUSH1 0x8 DUP3 MSTORE PUSH1 0x40 SWAP1 DUP2 SWAP1 KECCAK256 DUP4 MLOAD DUP2 SSTORE SWAP2 DUP4 ADD MLOAD SWAP1 DUP4 ADD MLOAD PUSH1 0x1 PUSH1 0x1 PUSH1 0xA0 SHL SUB SWAP1 SWAP2 AND PUSH1 0x1 PUSH1 0xA0 SHL PUSH1 0x1 PUSH1 0x1 PUSH1 0x60 SHL SUB SWAP3 DUP4 AND DUP2 MUL SWAP2 SWAP1 SWAP2 OR PUSH1 0x1 DUP5 ADD SSTORE PUSH1 0x60 DUP5 ADD MLOAD PUSH1 0x2 DUP5 ADD DUP1 SLOAD PUSH1 0x80 DUP8 ADD MLOAD PUSH1 0xA0 DUP9 ADD MLOAD SWAP4 SWAP1 SWAP6 AND PUSH1 0x1 PUSH1 0x1 PUSH1 0xA0 SHL SUB NOT SWAP1 SWAP2 AND OR PUSH1 0x1 PUSH1 0x60 SHL PUSH1 0x1 PUSH1 0x1 PUSH1 0x40 SHL SUB SWAP6 DUP7 AND MUL OR PUSH8 0xFFFFFFFFFFFFFFFF PUSH1 0xA0 SHL NOT DUP2 AND SWAP5 SWAP1 SWAP3 AND SWAP1 SWAP3 MUL SWAP3 DUP4 OR DUP3 SSTORE PUSH1 0xC0 DUP6 ADD MLOAD SWAP3 PUSH9 0xFFFFFFFFFFFFFFFFFF PUSH1 0xA0 SHL NOT SWAP1 SWAP2 AND PUSH1 0xFF PUSH1 0xE0 SHL NOT SWAP1 SWAP2 AND OR PUSH1 0x1 PUSH1 0xE0 SHL DUP4 PUSH1 0x6 DUP2 GT ISZERO PUSH2 0x2607 JUMPI PUSH2 0x2607 PUSH2 0x29B9 JUMP JUMPDEST MUL OR SWAP1 SSTORE POP PUSH1 0xE0 SWAP2 SWAP1 SWAP2 ADD MLOAD PUSH1 0x3 SWAP1 SWAP2 ADD SSTORE DUP1 SLOAD PUSH1 0x40 DUP1 MLOAD PUSH1 0x1 PUSH1 0xA0 SHL SWAP1 SWAP3 DIV PUSH1 0x1 PUSH1 0x1 PUSH1 0x60 SHL SUB AND DUP3 MSTORE PUSH1 0x20 DUP3 ADD DUP6 SWAP1 MSTORE CALLER SWAP2 DUP7 SWAP2 DUP6 SWAP2 PUSH32 0x87DC7C69DC4B8CD9D7B57B4B719B5EE1D0E1F9D25031BA2065B71941F5B3E46F SWAP2 ADD PUSH1 0x40 MLOAD DUP1 SWAP2 SUB SWAP1 LOG4 POP SWAP3 SWAP2 POP POP JUMP JUMPDEST PUSH1 0xA PUSH1 0x20 MSTORE PUSH1 0x0 SWAP1 DUP2 MSTORE PUSH1 0x40 SWAP1 KECCAK256 DUP1 SLOAD PUSH2 0x268A SWAP1 PUSH2 0x2E7C JUMP JUMPDEST DUP1 PUSH1 0x1F ADD PUSH1 0x20 DUP1 SWAP2 DIV MUL PUSH1 0x20 ADD PUSH1 0x40 MLOAD SWAP1 DUP2 ADD PUSH1 0x40 MSTORE DUP1 SWAP3 SWAP2 SWAP1 DUP2 DUP2 MSTORE PUSH1 0x20 ADD DUP3 DUP1 SLOAD PUSH2 0x26B6 SWAP1 PUSH2 0x2E7C JUMP JUMPDEST DUP1 ISZERO PUSH2 0x2703 JUMPI DUP1 PUSH1 0x1F LT PUSH2 0x26D8 JUMPI PUSH2 0x100 DUP1 DUP4 SLOAD DIV MUL DUP4 MSTORE SWAP2 PUSH1 0x20 ADD SWAP2 PUSH2 0x2703 JUMP JUMPDEST DUP3 ADD SWAP2 SWAP1 PUSH1 0x0 MSTORE PUSH1 0x20 PUSH1 0x0 KECCAK256 SWAP1 JUMPDEST DUP2 SLOAD DUP2 MSTORE SWAP1 PUSH1 0x1 ADD SWAP1 PUSH1 0x20 ADD DUP1 DUP4 GT PUSH2 0x26E6 JUMPI DUP3 SWAP1 SUB PUSH1 0x1F AND DUP3 ADD SWAP2 JUMPDEST POP POP POP POP POP DUP2 JUMP JUMPDEST DUP1 PUSH1 0x0 SUB PUSH2 0x2717 JUMPI POP POP JUMP JUMPDEST PUSH1 0x0 DUP3 PUSH1 0x1 PUSH1 0x1 PUSH1 0xA0 SHL SUB AND DUP3 PUSH1 0x40 MLOAD PUSH1 0x0 PUSH1 0x40 MLOAD DUP1 DUP4 SUB DUP2 DUP6 DUP8 GAS CALL SWAP3 POP POP POP RETURNDATASIZE DUP1 PUSH1 0x0 DUP2 EQ PUSH2 0x2764 JUMPI PUSH1 0x40 MLOAD SWAP2 POP PUSH1 0x1F NOT PUSH1 0x3F RETURNDATASIZE ADD AND DUP3 ADD PUSH1 0x40 MSTORE RETURNDATASIZE DUP3 MSTORE RETURNDATASIZE PUSH1 0x0 PUSH1 0x20 DUP5 ADD RETURNDATACOPY PUSH2 0x2769 JUMP JUMPDEST PUSH1 0x60 SWAP2 POP JUMPDEST POP POP SWAP1 POP DUP1 PUSH2 0x27AC JUMPI PUSH1 0x40 MLOAD PUSH3 0x461BCD PUSH1 0xE5 SHL DUP2 MSTORE PUSH1 0x20 PUSH1 0x4 DUP3 ADD MSTORE PUSH1 0xF PUSH1 0x24 DUP3 ADD MSTORE PUSH15 0x1D1C985B9CD9995C8819985A5B1959 PUSH1 0x8A SHL PUSH1 0x44 DUP3 ADD MSTORE PUSH1 0x64 ADD PUSH2 0x72E JUMP JUMPDEST POP POP POP JUMP JUMPDEST PUSH1 0x0 PUSH1 0x20 DUP3 DUP5 SUB SLT ISZERO PUSH2 0x27C3 JUMPI PUSH1 0x0 DUP1 REVERT JUMPDEST POP CALLDATALOAD SWAP2 SWAP1 POP JUMP JUMPDEST PUSH1 0x0 DUP2 MLOAD DUP1 DUP5 MSTORE PUSH1 0x0 JUMPDEST DUP2 DUP2 LT ISZERO PUSH2 0x27F0 JUMPI PUSH1 0x20 DUP2 DUP6 ADD DUP2 ADD MLOAD DUP7 DUP4 ADD DUP3 ADD MSTORE ADD PUSH2 0x27D4 JUMP JUMPDEST POP PUSH1 0x0 PUSH1 0x20 DUP3 DUP7 ADD ADD MSTORE PUSH1 0x20 PUSH1 0x1F NOT PUSH1 0x1F DUP4 ADD AND DUP6 ADD ADD SWAP2 POP POP SWAP3 SWAP2 POP POP JUMP JUMPDEST PUSH1 0x20 DUP1 DUP3 MSTORE DUP3 MLOAD PUSH1 0x1 PUSH1 0x1 PUSH1 0xA0 SHL SUB AND DUP3 DUP3 ADD MSTORE DUP3 ADD MLOAD PUSH1 0x1 PUSH1 0x1 PUSH1 0x60 SHL SUB AND PUSH1 0x40 DUP1 DUP4 ADD SWAP2 SWAP1 SWAP2 MSTORE DUP3 ADD MLOAD DUP1 ISZERO ISZERO PUSH1 0x60 DUP4 ADD MSTORE PUSH1 0x0 SWAP1 POP PUSH1 0x60 DUP4 ADD MLOAD PUSH1 0x1 PUSH1 0x1 PUSH1 0x40 SHL SUB DUP2 AND PUSH1 0x80 DUP5 ADD MSTORE POP PUSH1 0x80 DUP4 ADD MLOAD PUSH1 0xE0 PUSH1 0xA0 DUP5 ADD MSTORE PUSH2 0x2877 PUSH2 0x100 DUP5 ADD DUP3 PUSH2 0x27CA JUMP JUMPDEST SWAP1 POP PUSH1 0xA0 DUP5 ADD MLOAD PUSH1 0x1F NOT DUP1 DUP6 DUP5 SUB ADD PUSH1 0xC0 DUP7 ADD MSTORE PUSH2 0x2895 DUP4 DUP4 PUSH2 0x27CA JUMP JUMPDEST SWAP3 POP PUSH1 0xC0 DUP7 ADD MLOAD SWAP2 POP DUP1 DUP6 DUP5 SUB ADD PUSH1 0xE0 DUP7 ADD MSTORE POP PUSH2 0xFFA DUP3 DUP3 PUSH2 0x27CA JUMP JUMPDEST PUSH1 0x0 DUP1 DUP4 PUSH1 0x1F DUP5 ADD SLT PUSH2 0x28C5 JUMPI PUSH1 0x0 DUP1 REVERT JUMPDEST POP DUP2 CALLDATALOAD PUSH1 0x1 PUSH1 0x1 PUSH1 0x40 SHL SUB DUP2 GT ISZERO PUSH2 0x28DC JUMPI PUSH1 0x0 DUP1 REVERT JUMPDEST PUSH1 0x20 DUP4 ADD SWAP2 POP DUP4 PUSH1 0x20 DUP3 DUP6 ADD ADD GT ISZERO PUSH2 0x28F4 JUMPI PUSH1 0x0 DUP1 REVERT JUMPDEST SWAP3 POP SWAP3 SWAP1 POP JUMP JUMPDEST PUSH1 0x0 DUP1 PUSH1 0x0 PUSH1 0x40 DUP5 DUP7 SUB SLT ISZERO PUSH2 0x2910 JUMPI PUSH1 0x0 DUP1 REVERT JUMPDEST DUP4 CALLDATALOAD SWAP3 POP PUSH1 0x20 DUP5 ADD CALLDATALOAD PUSH1 0x1 PUSH1 0x1 PUSH1 0x40 SHL SUB DUP2 GT ISZERO PUSH2 0x292D JUMPI PUSH1 0x0 DUP1 REVERT JUMPDEST PUSH2 0x2939 DUP7 DUP3 DUP8 ADD PUSH2 0x28B3 JUMP JUMPDEST SWAP5 SWAP8 SWAP1 SWAP7 POP SWAP4 SWAP5 POP POP POP POP JUMP JUMPDEST DUP1 CALLDATALOAD PUSH1 0x1 PUSH1 0x1 PUSH1 0xA0 SHL SUB DUP2 AND DUP2 EQ PUSH2 0x295D JUMPI PUSH1 0x0 DUP1 REVERT JUMPDEST SWAP2 SWAP1 POP JUMP JUMPDEST PUSH1 0x0 PUSH1 0x20 DUP3 DUP5 SUB SLT ISZERO PUSH2 0x2974 JUMPI PUSH1 0x0 DUP1 REVERT JUMPDEST PUSH2 0x297D DUP3 PUSH2 0x2946 JUMP JUMPDEST SWAP4 SWAP3 POP POP POP JUMP JUMPDEST PUSH1 0x0 DUP1 PUSH1 0x40 DUP4 DUP6 SUB SLT ISZERO PUSH2 0x2997 JUMPI PUSH1 0x0 DUP1 REVERT JUMPDEST DUP3 CALLDATALOAD SWAP2 POP PUSH1 0x20 DUP4 ADD CALLDATALOAD DUP1 ISZERO ISZERO DUP2 EQ PUSH2 0x29AE JUMPI PUSH1 0x0 DUP1 REVERT JUMPDEST DUP1 SWAP2 POP POP SWAP3 POP SWAP3 SWAP1 POP JUMP JUMPDEST PUSH4 0x4E487B71 PUSH1 0xE0 SHL PUSH1 0x0 MSTORE PUSH1 0x21 PUSH1 0x4 MSTORE PUSH1 0x24 PUSH1 0x0 REVERT JUMPDEST PUSH1 0x4 DUP2 LT PUSH2 0x29DF JUMPI PUSH2 0x29DF PUSH2 0x29B9 JUMP JUMPDEST SWAP1 MSTORE JUMP JUMPDEST PUSH1 0x60 DUP2 MSTORE PUSH1 0x0 PUSH2 0x29F6 PUSH1 0x60 DUP4 ADD DUP7 PUSH2 0x27CA JUMP JUMPDEST PUSH2 0x2A03 PUSH1 0x20 DUP5 ADD DUP7 PUSH2 0x29CF JUMP JUMPDEST DUP3 DUP2 SUB PUSH1 0x40 DUP5 ADD MSTORE PUSH2 0x2A15 DUP2 DUP6 PUSH2 0x27CA JUMP JUMPDEST SWAP7 SWAP6 POP POP POP POP POP POP JUMP JUMPDEST PUSH1 0x0 DUP1 PUSH1 0x0 DUP1 PUSH1 0x0 DUP1 PUSH1 0x0 PUSH1 0x80 DUP9 DUP11 SUB SLT ISZERO PUSH2 0x2A3A JUMPI PUSH1 0x0 DUP1 REVERT JUMPDEST DUP8 CALLDATALOAD PUSH1 0x1 PUSH1 0x1 PUSH1 0x40 SHL SUB DUP1 DUP3 GT ISZERO PUSH2 0x2A51 JUMPI PUSH1 0x0 DUP1 REVERT JUMPDEST PUSH2 0x2A5D DUP12 DUP4 DUP13 ADD PUSH2 0x28B3 JUMP JUMPDEST SWAP1 SWAP10 POP SWAP8 POP PUSH1 0x20 DUP11 ADD CALLDATALOAD SWAP2 POP DUP1 DUP3 GT ISZERO PUSH2 0x2A76 JUMPI PUSH1 0x0 DUP1 REVERT JUMPDEST PUSH2 0x2A82 DUP12 DUP4 DUP13 ADD PUSH2 0x28B3 JUMP JUMPDEST SWAP1 SWAP8 POP SWAP6 POP PUSH1 0x40 DUP11 ADD CALLDATALOAD SWAP2 POP PUSH1 0x1 PUSH1 0x1 PUSH1 0x60 SHL SUB DUP3 AND DUP3 EQ PUSH2 0x2AA3 JUMPI PUSH1 0x0 DUP1 REVERT JUMPDEST SWAP1 SWAP4 POP PUSH1 0x60 DUP10 ADD CALLDATALOAD SWAP1 DUP1 DUP3 GT ISZERO PUSH2 0x2AB9 JUMPI PUSH1 0x0 DUP1 REVERT JUMPDEST POP PUSH2 0x2AC6 DUP11 DUP3 DUP12 ADD PUSH2 0x28B3 JUMP JUMPDEST SWAP9 SWAP12 SWAP8 SWAP11 POP SWAP6 SWAP9 POP SWAP4 SWAP7 SWAP3 SWAP6 SWAP3 SWAP4 POP POP POP JUMP JUMPDEST PUSH1 0x20 DUP2 MSTORE PUSH1 0x0 PUSH2 0x297D PUSH1 0x20 DUP4 ADD DUP5 PUSH2 0x27CA JUMP JUMPDEST PUSH1 0x7 DUP2 LT PUSH2 0x29DF JUMPI PUSH2 0x29DF PUSH2 0x29B9 JUMP JUMPDEST DUP9 DUP2 MSTORE PUSH1 0x1 PUSH1 0x1 PUSH1 0xA0 SHL SUB DUP9 AND PUSH1 0x20 DUP3 ADD MSTORE PUSH1 0x1 PUSH1 0x1 PUSH1 0x60 SHL SUB DUP8 DUP2 AND PUSH1 0x40 DUP4 ADD MSTORE DUP7 AND PUSH1 0x60 DUP3 ADD MSTORE PUSH1 0x1 PUSH1 0x1 PUSH1 0x40 SHL SUB DUP6 DUP2 AND PUSH1 0x80 DUP4 ADD MSTORE DUP5 AND PUSH1 0xA0 DUP3 ADD MSTORE PUSH2 0x100 DUP2 ADD PUSH2 0x2B4E PUSH1 0xC0 DUP4 ADD DUP6 PUSH2 0x2AEC JUMP JUMPDEST DUP3 PUSH1 0xE0 DUP4 ADD MSTORE SWAP10 SWAP9 POP POP POP POP POP POP POP POP POP JUMP JUMPDEST PUSH1 0x0 DUP1 PUSH1 0x40 DUP4 DUP6 SUB SLT ISZERO PUSH2 0x2B74 JUMPI PUSH1 0x0 DUP1 REVERT JUMPDEST PUSH2 0x2B7D DUP4 PUSH2 0x2946 JUMP JUMPDEST SWAP2 POP PUSH2 0x2B8B PUSH1 0x20 DUP5 ADD PUSH2 0x2946 JUMP JUMPDEST SWAP1 POP SWAP3 POP SWAP3 SWAP1 POP JUMP JUMPDEST PUSH1 0x0 DUP1 PUSH1 0x0 DUP1 PUSH1 0x60 DUP6 DUP8 SUB SLT ISZERO PUSH2 0x2BAA JUMPI PUSH1 0x0 DUP1 REVERT JUMPDEST DUP5 CALLDATALOAD SWAP4 POP PUSH1 0x20 DUP6 ADD CALLDATALOAD PUSH1 0x4 DUP2 LT PUSH2 0x2BC0 JUMPI PUSH1 0x0 DUP1 REVERT JUMPDEST SWAP3 POP PUSH1 0x40 DUP6 ADD CALLDATALOAD PUSH1 0x1 PUSH1 0x1 PUSH1 0x40 SHL SUB DUP2 GT ISZERO PUSH2 0x2BDB JUMPI PUSH1 0x0 DUP1 REVERT JUMPDEST PUSH2 0x2BE7 DUP8 DUP3 DUP9 ADD PUSH2 0x28B3 JUMP JUMPDEST SWAP6 SWAP9 SWAP5 SWAP8 POP SWAP6 POP POP POP POP JUMP JUMPDEST PUSH1 0x0 PUSH2 0x100 DUP3 ADD SWAP1 POP DUP3 MLOAD DUP3 MSTORE PUSH1 0x1 DUP1 PUSH1 0xA0 SHL SUB PUSH1 0x20 DUP5 ADD MLOAD AND PUSH1 0x20 DUP4 ADD MSTORE PUSH1 0x40 DUP4 ADD MLOAD PUSH1 0x1 PUSH1 0x1 PUSH1 0x60 SHL SUB DUP1 DUP3 AND PUSH1 0x40 DUP6 ADD MSTORE DUP1 PUSH1 0x60 DUP7 ADD MLOAD AND PUSH1 0x60 DUP6 ADD MSTORE POP POP PUSH1 0x1 PUSH1 0x1 PUSH1 0x40 SHL SUB PUSH1 0x80 DUP5 ADD MLOAD AND PUSH1 0x80 DUP4 ADD MSTORE PUSH1 0xA0 DUP4 ADD MLOAD PUSH2 0x2C62 PUSH1 0xA0 DUP5 ADD DUP3 PUSH1 0x1 PUSH1 0x1 PUSH1 0x40 SHL SUB AND SWAP1 MSTORE JUMP JUMPDEST POP PUSH1 0xC0 DUP4 ADD MLOAD PUSH2 0x2C75 PUSH1 0xC0 DUP5 ADD DUP3 PUSH2 0x2AEC JUMP JUMPDEST POP PUSH1 0xE0 SWAP3 DUP4 ADD MLOAD SWAP2 SWAP1 SWAP3 ADD MSTORE SWAP1 JUMP JUMPDEST PUSH1 0x1 PUSH1 0x1 PUSH1 0xA0 SHL SUB DUP9 AND DUP2 MSTORE PUSH1 0x1 PUSH1 0x1 PUSH1 0x60 SHL SUB DUP8 AND PUSH1 0x20 DUP3 ADD MSTORE DUP6 ISZERO ISZERO PUSH1 0x40 DUP3 ADD MSTORE PUSH1 0x1 PUSH1 0x1 PUSH1 0x40 SHL SUB DUP6 AND PUSH1 0x60 DUP3 ADD MSTORE PUSH1 0xE0 PUSH1 0x80 DUP3 ADD DUP2 SWAP1 MSTORE PUSH1 0x0 SWAP1 PUSH2 0x2CCE SWAP1 DUP4 ADD DUP7 PUSH2 0x27CA JUMP JUMPDEST DUP3 DUP2 SUB PUSH1 0xA0 DUP5 ADD MSTORE PUSH2 0x2CE0 DUP2 DUP7 PUSH2 0x27CA JUMP JUMPDEST SWAP1 POP DUP3 DUP2 SUB PUSH1 0xC0 DUP5 ADD MSTORE PUSH2 0x2CF4 DUP2 DUP6 PUSH2 0x27CA JUMP JUMPDEST SWAP11 SWAP10 POP POP POP POP POP POP POP POP POP POP JUMP JUMPDEST PUSH1 0x20 DUP2 MSTORE PUSH1 0x0 DUP3 MLOAD PUSH1 0x60 PUSH1 0x20 DUP5 ADD MSTORE PUSH2 0x2D1E PUSH1 0x80 DUP5 ADD DUP3 PUSH2 0x27CA JUMP JUMPDEST SWAP1 POP PUSH1 0x20 DUP5 ADD MLOAD PUSH2 0x2D32 PUSH1 0x40 DUP6 ADD DUP3 PUSH2 0x29CF JUMP JUMPDEST POP PUSH1 0x40 DUP5 ADD MLOAD DUP4 DUP3 SUB PUSH1 0x1F NOT ADD PUSH1 0x60 DUP6 ADD MSTORE PUSH2 0xFFA DUP3 DUP3 PUSH2 0x27CA JUMP JUMPDEST PUSH1 0x0 DUP1 PUSH1 0x40 DUP4 DUP6 SUB SLT ISZERO PUSH2 0x2D61 JUMPI PUSH1 0x0 DUP1 REVERT JUMPDEST POP POP DUP1 CALLDATALOAD SWAP3 PUSH1 0x20 SWAP1 SWAP2 ADD CALLDATALOAD SWAP2 POP JUMP JUMPDEST PUSH1 0x20 DUP1 DUP3 MSTORE PUSH1 0xA SWAP1 DUP3 ADD MSTORE PUSH10 0x7265656E7472616E6379 PUSH1 0xB0 SHL PUSH1 0x40 DUP3 ADD MSTORE PUSH1 0x60 ADD SWAP1 JUMP JUMPDEST PUSH4 0x4E487B71 PUSH1 0xE0 SHL PUSH1 0x0 MSTORE PUSH1 0x11 PUSH1 0x4 MSTORE PUSH1 0x24 PUSH1 0x0 REVERT JUMPDEST PUSH1 0x1 PUSH1 0x1 PUSH1 0x40 SHL SUB DUP2 DUP2 AND DUP4 DUP3 AND ADD SWAP1 DUP1 DUP3 GT ISZERO PUSH2 0x2DCA JUMPI PUSH2 0x2DCA PUSH2 0x2D94 JUMP JUMPDEST POP SWAP3 SWAP2 POP POP JUMP JUMPDEST PUSH1 0x0 PUSH1 0x1 PUSH1 0x1 PUSH1 0x40 SHL SUB DUP1 DUP4 AND DUP2 DUP2 SUB PUSH2 0x2DED JUMPI PUSH2 0x2DED PUSH2 0x2D94 JUMP JUMPDEST PUSH1 0x1 ADD SWAP4 SWAP3 POP POP POP JUMP JUMPDEST PUSH1 0x1 PUSH1 0x1 PUSH1 0x80 SHL SUB DUP2 DUP2 AND DUP4 DUP3 AND ADD SWAP1 DUP1 DUP3 GT ISZERO PUSH2 0x2DCA JUMPI PUSH2 0x2DCA PUSH2 0x2D94 JUMP JUMPDEST DUP1 DUP3 MUL DUP2 ISZERO DUP3 DUP3 DIV DUP5 EQ OR PUSH2 0x2E2E JUMPI PUSH2 0x2E2E PUSH2 0x2D94 JUMP JUMPDEST SWAP3 SWAP2 POP POP JUMP JUMPDEST PUSH1 0x0 DUP3 PUSH2 0x2E51 JUMPI PUSH4 0x4E487B71 PUSH1 0xE0 SHL PUSH1 0x0 MSTORE PUSH1 0x12 PUSH1 0x4 MSTORE PUSH1 0x24 PUSH1 0x0 REVERT JUMPDEST POP DIV SWAP1 JUMP JUMPDEST DUP1 DUP3 ADD DUP1 DUP3 GT ISZERO PUSH2 0x2E2E JUMPI PUSH2 0x2E2E PUSH2 0x2D94 JUMP JUMPDEST DUP2 DUP2 SUB DUP2 DUP2 GT ISZERO PUSH2 0x2E2E JUMPI PUSH2 0x2E2E PUSH2 0x2D94 JUMP JUMPDEST PUSH1 0x1 DUP2 DUP2 SHR SWAP1 DUP3 AND DUP1 PUSH2 0x2E90 JUMPI PUSH1 0x7F DUP3 AND SWAP2 POP JUMPDEST PUSH1 0x20 DUP3 LT DUP2 SUB PUSH2 0x2EB0 JUMPI PUSH4 0x4E487B71 PUSH1 0xE0 SHL PUSH1 0x0 MSTORE PUSH1 0x22 PUSH1 0x4 MSTORE PUSH1 0x24 PUSH1 0x0 REVERT JUMPDEST POP SWAP2 SWAP1 POP JUMP JUMPDEST PUSH4 0x4E487B71 PUSH1 0xE0 SHL PUSH1 0x0 MSTORE PUSH1 0x41 PUSH1 0x4 MSTORE PUSH1 0x24 PUSH1 0x0 REVERT JUMPDEST PUSH1 0x1F DUP3 GT ISZERO PUSH2 0x27AC JUMPI PUSH1 0x0 DUP2 PUSH1 0x0 MSTORE PUSH1 0x20 PUSH1 0x0 KECCAK256 PUSH1 0x1F DUP6 ADD PUSH1 0x5 SHR DUP2 ADD PUSH1 0x20 DUP7 LT ISZERO PUSH2 0x2EF5 JUMPI POP DUP1 JUMPDEST PUSH1 0x1F DUP6 ADD PUSH1 0x5 SHR DUP3 ADD SWAP2 POP JUMPDEST DUP2 DUP2 LT ISZERO PUSH2 0x2F14 JUMPI DUP3 DUP2 SSTORE PUSH1 0x1 ADD PUSH2 0x2F01 JUMP JUMPDEST POP POP POP POP POP POP JUMP JUMPDEST PUSH1 0x1 PUSH1 0x1 PUSH1 0x40 SHL SUB DUP4 GT ISZERO PUSH2 0x2F33 JUMPI PUSH2 0x2F33 PUSH2 0x2EB6 JUMP JUMPDEST PUSH2 0x2F47 DUP4 PUSH2 0x2F41 DUP4 SLOAD PUSH2 0x2E7C JUMP JUMPDEST DUP4 PUSH2 0x2ECC JUMP JUMPDEST PUSH1 0x0 PUSH1 0x1F DUP5 GT PUSH1 0x1 DUP2 EQ PUSH2 0x2F7B JUMPI PUSH1 0x0 DUP6 ISZERO PUSH2 0x2F63 JUMPI POP DUP4 DUP3 ADD CALLDATALOAD JUMPDEST PUSH1 0x0 NOT PUSH1 0x3 DUP8 SWAP1 SHL SHR NOT AND PUSH1 0x1 DUP7 SWAP1 SHL OR DUP4 SSTORE PUSH2 0x2FD5 JUMP JUMPDEST PUSH1 0x0 DUP4 DUP2 MSTORE PUSH1 0x20 SWAP1 KECCAK256 PUSH1 0x1F NOT DUP7 AND SWAP1 DUP4 JUMPDEST DUP3 DUP2 LT ISZERO PUSH2 0x2FAC JUMPI DUP7 DUP6 ADD CALLDATALOAD DUP3 SSTORE PUSH1 0x20 SWAP5 DUP6 ADD SWAP5 PUSH1 0x1 SWAP1 SWAP3 ADD SWAP2 ADD PUSH2 0x2F8C JUMP JUMPDEST POP DUP7 DUP3 LT ISZERO PUSH2 0x2FC9 JUMPI PUSH1 0x0 NOT PUSH1 0xF8 DUP9 PUSH1 0x3 SHL AND SHR NOT DUP5 DUP8 ADD CALLDATALOAD AND DUP2 SSTORE JUMPDEST POP POP PUSH1 0x1 DUP6 PUSH1 0x1 SHL ADD DUP4 SSTORE JUMPDEST POP POP POP POP POP JUMP JUMPDEST DUP2 DUP4 MSTORE DUP2 DUP2 PUSH1 0x20 DUP6 ADD CALLDATACOPY POP PUSH1 0x0 DUP3 DUP3 ADD PUSH1 0x20 SWAP1 DUP2 ADD SWAP2 SWAP1 SWAP2 MSTORE PUSH1 0x1F SWAP1 SWAP2 ADD PUSH1 0x1F NOT AND SWAP1 SWAP2 ADD ADD SWAP1 JUMP JUMPDEST PUSH1 0x20 DUP2 MSTORE PUSH1 0x0 PUSH2 0x3019 PUSH1 0x20 DUP4 ADD DUP5 DUP7 PUSH2 0x2FDC JUMP JUMPDEST SWAP5 SWAP4 POP POP POP POP JUMP JUMPDEST PUSH1 0x0 PUSH1 0x1 DUP3 ADD PUSH2 0x3033 JUMPI PUSH2 0x3033 PUSH2 0x2D94 JUMP JUMPDEST POP PUSH1 0x1 ADD SWAP1 JUMP JUMPDEST DUP2 MLOAD PUSH1 0x1 PUSH1 0x1 PUSH1 0x40 SHL SUB DUP2 GT ISZERO PUSH2 0x3053 JUMPI PUSH2 0x3053 PUSH2 0x2EB6 JUMP JUMPDEST PUSH2 0x3067 DUP2 PUSH2 0x3061 DUP5 SLOAD PUSH2 0x2E7C JUMP JUMPDEST DUP5 PUSH2 0x2ECC JUMP JUMPDEST PUSH1 0x20 DUP1 PUSH1 0x1F DUP4 GT PUSH1 0x1 DUP2 EQ PUSH2 0x309C JUMPI PUSH1 0x0 DUP5 ISZERO PUSH2 0x3084 JUMPI POP DUP6 DUP4 ADD MLOAD JUMPDEST PUSH1 0x0 NOT PUSH1 0x3 DUP7 SWAP1 SHL SHR NOT AND PUSH1 0x1 DUP6 SWAP1 SHL OR DUP6 SSTORE PUSH2 0x2F14 JUMP JUMPDEST PUSH1 0x0 DUP6 DUP2 MSTORE PUSH1 0x20 DUP2 KECCAK256 PUSH1 0x1F NOT DUP7 AND SWAP2 JUMPDEST DUP3 DUP2 LT ISZERO PUSH2 0x30CB JUMPI DUP9 DUP7 ADD MLOAD DUP3 SSTORE SWAP5 DUP5 ADD SWAP5 PUSH1 0x1 SWAP1 SWAP2 ADD SWAP1 DUP5 ADD PUSH2 0x30AC JUMP JUMPDEST POP DUP6 DUP3 LT ISZERO PUSH2 0x30E9 JUMPI DUP8 DUP6 ADD MLOAD PUSH1 0x0 NOT PUSH1 0x3 DUP9 SWAP1 SHL PUSH1 0xF8 AND SHR NOT AND DUP2 SSTORE JUMPDEST POP POP POP POP POP PUSH1 0x1 SWAP1 DUP2 SHL ADD SWAP1 SSTORE POP JUMP JUMPDEST PUSH1 0x1 PUSH1 0x1 PUSH1 0x60 SHL SUB DUP5 AND DUP2 MSTORE PUSH1 0x40 PUSH1 0x20 DUP3 ADD MSTORE PUSH1 0x0 PUSH2 0xFFA PUSH1 0x40 DUP4 ADD DUP5 DUP7 PUSH2 0x2FDC JUMP JUMPDEST PUSH2 0x3126 DUP2 DUP6 PUSH2 0x29CF JUMP JUMPDEST PUSH1 0x40 PUSH1 0x20 DUP3 ADD MSTORE PUSH1 0x0 PUSH2 0xFFA PUSH1 0x40 DUP4 ADD DUP5 DUP7 PUSH2 0x2FDC JUMP INVALID LOG2 PUSH5 0x6970667358 0x22 SLT KECCAK256 SELFBALANCE PUSH18 0x70F168B420AB8C14793D41BA43FD900982A8 0xE7 JUMP 0xB4 TSTORE PUSH31 0x7674D6EF7C2CFB64736F6C6343000818003300000000000000000000000000 "},"methodIdentifiers":{"accruedFees()":"682c2058","arbiter()":"fe25e00a","buy(uint256,bytes32)":"e9fca283","claimRefund(uint256)":"5b7baf64","createListing(string,string,uint96,bytes)":"57b32e49","deliver(uint256,bytes)":"157305fe","deliveredPayload(uint256)":"ecabf6b5","deliveryAgent()":"2f651ced","deliveryWindow()":"fd637a94","disputeStakeBps()":"89dfe44e","disputeWindow()":"117f5f92","disputes(uint256)":"564a565d","feeBps()":"24a9d853","finalize(uint256)":"05261aea","getDelivered(uint256)":"646cbfff","getDispute(uint256)":"e3a96cbd","getListing(uint256)":"107a274a","getOrder(uint256)":"d09ef241","listings(uint256)":"de74e57b","nextListingId()":"aaccf1ec","nextOrderId()":"2a58b330","openDispute(uint256,string)":"36f691c4","orders(uint256)":"a85c38ef","owner()":"8da5cb5b","reputation(address)":"b9f79451","resolveDispute(uint256,uint8,string)":"c316939c","sellerScore(address)":"3455a94b","setAgents(address,address)":"bbc77f3a","setListingActive(uint256,bool)":"5549756c","withdrawFees(address)":"164e68de"}}}}}