{"contracts/FairBazaar.sol":{"FairBazaar":{"abi":[{"inputs":[{"internalType":"address","name":"_agent","type":"address"},{"internalType":"address","name":"_arbiter","type":"address"},{"internalType":"uint64","name":"_deliveryWindow","type":"uint64"},{"internalType":"uint64","name":"_disputeWindow","type":"uint64"},{"internalType":"uint16","name":"_disputeStakeBps","type":"uint16"},{"internalType":"uint16","name":"_feeBps","type":"uint16"}],"stateMutability":"nonpayable","type":"constructor"},{"anonymous":false,"inputs":[{"indexed":true,"internalType":"uint256","name":"orderId","type":"uint256"},{"indexed":false,"internalType":"bytes","name":"encSecretForBuyer","type":"bytes"}],"name":"Delivered","type":"event"},{"anonymous":false,"inputs":[{"indexed":true,"internalType":"uint256","name":"orderId","type":"uint256"},{"indexed":true,"internalType":"address","name":"buyer","type":"address"},{"indexed":false,"internalType":"string","name":"reason","type":"string"}],"name":"DisputeOpened","type":"event"},{"anonymous":false,"inputs":[{"indexed":true,"internalType":"uint256","name":"orderId","type":"uint256"},{"indexed":false,"internalType":"enum FairBazaar.Verdict","name":"verdict","type":"uint8"},{"indexed":false,"internalType":"string","name":"reasoning","type":"string"}],"name":"DisputeResolved","type":"event"},{"anonymous":false,"inputs":[{"indexed":true,"internalType":"uint256","name":"listingId","type":"uint256"},{"indexed":true,"internalType":"address","name":"seller","type":"address"},{"indexed":false,"internalType":"uint96","name":"price","type":"uint96"},{"indexed":false,"internalType":"string","name":"title","type":"string"}],"name":"ListingCreated","type":"event"},{"anonymous":false,"inputs":[{"indexed":true,"internalType":"uint256","name":"listingId","type":"uint256"},{"indexed":false,"internalType":"bool","name":"active","type":"bool"}],"name":"ListingToggled","type":"event"},{"anonymous":false,"inputs":[{"indexed":true,"internalType":"uint256","name":"orderId","type":"uint256"},{"indexed":true,"internalType":"address","name":"seller","type":"address"},{"indexed":false,"internalType":"uint256","name":"payout","type":"uint256"}],"name":"OrderCompleted","type":"event"},{"anonymous":false,"inputs":[{"indexed":true,"internalType":"uint256","name":"orderId","type":"uint256"},{"indexed":true,"internalType":"uint256","name":"listingId","type":"uint256"},{"indexed":true,"internalType":"address","name":"buyer","type":"address"},{"indexed":false,"internalType":"uint96","name":"price","type":"uint96"},{"indexed":false,"internalType":"bytes32","name":"buyerPubKey","type":"bytes32"}],"name":"Purchased","type":"event"},{"anonymous":false,"inputs":[{"indexed":true,"internalType":"uint256","name":"orderId","type":"uint256"}],"name":"RefundClaimed","type":"event"},{"anonymous":false,"inputs":[{"indexed":true,"internalType":"address","name":"seller","type":"address"},{"indexed":false,"internalType":"uint64","name":"sales","type":"uint64"},{"indexed":false,"internalType":"uint64","name":"disputesWon","type":"uint64"},{"indexed":false,"internalType":"uint64","name":"disputesLost","type":"uint64"}],"name":"ReputationChanged","type":"event"},{"inputs":[],"name":"accruedFees","outputs":[{"internalType":"uint256","name":"","type":"uint256"}],"stateMutability":"view","type":"function"},{"inputs":[],"name":"arbiter","outputs":[{"internalType":"address","name":"","type":"address"}],"stateMutability":"view","type":"function"},{"inputs":[{"internalType":"uint256","name":"listingId","type":"uint256"},{"internalType":"bytes32","name":"buyerPubKey","type":"bytes32"}],"name":"buy","outputs":[{"internalType":"uint256","name":"id","type":"uint256"}],"stateMutability":"payable","type":"function"},{"inputs":[{"internalType":"uint256","name":"orderId","type":"uint256"}],"name":"claimRefund","outputs":[],"stateMutability":"nonpayable","type":"function"},{"inputs":[{"internalType":"string","name":"title","type":"string"},{"internalType":"string","name":"description","type":"string"},{"internalType":"uint96","name":"price","type":"uint96"},{"internalType":"bytes","name":"encSecretForAgent","type":"bytes"}],"name":"createListing","outputs":[{"internalType":"uint256","name":"id","type":"uint256"}],"stateMutability":"nonpayable","type":"function"},{"inputs":[{"internalType":"uint256","name":"orderId","type":"uint256"},{"internalType":"bytes","name":"encSecretForBuyer","type":"bytes"}],"name":"deliver","outputs":[],"stateMutability":"nonpayable","type":"function"},{"inputs":[],"name":"deliveryAgent","outputs":[{"internalType":"address","name":"","type":"address"}],"stateMutability":"view","type":"function"},{"inputs":[],"name":"deliveryWindow","outputs":[{"internalType":"uint64","name":"","type":"uint64"}],"stateMutability":"view","type":"function"},{"inputs":[],"name":"disputeStakeBps","outputs":[{"internalType":"uint16","name":"","type":"uint16"}],"stateMutability":"view","type":"function"},{"inputs":[],"name":"disputeWindow","outputs":[{"internalType":"uint64","name":"","type":"uint64"}],"stateMutability":"view","type":"function"},{"inputs":[],"name":"feeBps","outputs":[{"internalType":"uint16","name":"","type":"uint16"}],"stateMutability":"view","type":"function"},{"inputs":[{"internalType":"uint256","name":"orderId","type":"uint256"}],"name":"finalize","outputs":[],"stateMutability":"nonpayable","type":"function"},{"inputs":[{"internalType":"uint256","name":"id","type":"uint256"}],"name":"getListing","outputs":[{"components":[{"internalType":"address","name":"seller","type":"address"},{"internalType":"uint96","name":"price","type":"uint96"},{"internalType":"bool","name":"active","type":"bool"},{"internalType":"uint64","name":"salesCount","type":"uint64"},{"internalType":"string","name":"title","type":"string"},{"internalType":"string","name":"description","type":"string"},{"internalType":"bytes","name":"encSecretForAgent","type":"bytes"}],"internalType":"struct FairBazaar.Listing","name":"","type":"tuple"}],"stateMutability":"view","type":"function"},{"inputs":[{"internalType":"uint256","name":"id","type":"uint256"}],"name":"getOrder","outputs":[{"components":[{"internalType":"uint256","name":"listingId","type":"uint256"},{"internalType":"address","name":"buyer","type":"address"},{"internalType":"uint96","name":"price","type":"uint96"},{"internalType":"uint96","name":"disputeStake","type":"uint96"},{"internalType":"uint64","name":"paidAt","type":"uint64"},{"internalType":"uint64","name":"deliveredAt","type":"uint64"},{"internalType":"enum FairBazaar.OrderStatus","name":"status","type":"uint8"},{"internalType":"bytes32","name":"buyerPubKey","type":"bytes32"}],"internalType":"struct FairBazaar.Order","name":"","type":"tuple"}],"stateMutability":"view","type":"function"},{"inputs":[{"internalType":"uint256","name":"","type":"uint256"}],"name":"listings","outputs":[{"internalType":"address","name":"seller","type":"address"},{"internalType":"uint96","name":"price","type":"uint96"},{"internalType":"bool","name":"active","type":"bool"},{"internalType":"uint64","name":"salesCount","type":"uint64"},{"internalType":"string","name":"title","type":"string"},{"internalType":"string","name":"description","type":"string"},{"internalType":"bytes","name":"encSecretForAgent","type":"bytes"}],"stateMutability":"view","type":"function"},{"inputs":[],"name":"nextListingId","outputs":[{"internalType":"uint256","name":"","type":"uint256"}],"stateMutability":"view","type":"function"},{"inputs":[],"name":"nextOrderId","outputs":[{"internalType":"uint256","name":"","type":"uint256"}],"stateMutability":"view","type":"function"},{"inputs":[{"internalType":"uint256","name":"orderId","type":"uint256"},{"internalType":"string","name":"reason","type":"string"}],"name":"openDispute","outputs":[],"stateMutability":"payable","type":"function"},{"inputs":[{"internalType":"uint256","name":"","type":"uint256"}],"name":"orders","outputs":[{"internalType":"uint256","name":"listingId","type":"uint256"},{"internalType":"address","name":"buyer","type":"address"},{"internalType":"uint96","name":"price","type":"uint96"},{"internalType":"uint96","name":"disputeStake","type":"uint96"},{"internalType":"uint64","name":"paidAt","type":"uint64"},{"internalType":"uint64","name":"deliveredAt","type":"uint64"},{"internalType":"enum FairBazaar.OrderStatus","name":"status","type":"uint8"},{"internalType":"bytes32","name":"buyerPubKey","type":"bytes32"}],"stateMutability":"view","type":"function"},{"inputs":[],"name":"owner","outputs":[{"internalType":"address","name":"","type":"address"}],"stateMutability":"view","type":"function"},{"inputs":[{"internalType":"address","name":"","type":"address"}],"name":"reputation","outputs":[{"internalType":"uint64","name":"sales","type":"uint64"},{"internalType":"uint64","name":"disputesWon","type":"uint64"},{"internalType":"uint64","name":"disputesLost","type":"uint64"},{"internalType":"uint128","name":"volume","type":"uint128"}],"stateMutability":"view","type":"function"},{"inputs":[{"internalType":"uint256","name":"orderId","type":"uint256"},{"internalType":"enum FairBazaar.Verdict","name":"verdict","type":"uint8"},{"internalType":"string","name":"reasoning","type":"string"}],"name":"resolveDispute","outputs":[],"stateMutability":"nonpayable","type":"function"},{"inputs":[{"internalType":"address","name":"seller","type":"address"}],"name":"sellerScore","outputs":[{"internalType":"uint256","name":"","type":"uint256"}],"stateMutability":"view","type":"function"},{"inputs":[{"internalType":"address","name":"_agent","type":"address"},{"internalType":"address","name":"_arbiter","type":"address"}],"name":"setAgents","outputs":[],"stateMutability":"nonpayable","type":"function"},{"inputs":[{"internalType":"uint256","name":"listingId","type":"uint256"},{"internalType":"bool","name":"active","type":"bool"}],"name":"setListingActive","outputs":[],"stateMutability":"nonpayable","type":"function"},{"inputs":[{"internalType":"address","name":"to","type":"address"}],"name":"withdrawFees","outputs":[],"stateMutability":"nonpayable","type":"function"}],"evm":{"bytecode":{"linkReferences":{},"object":"6080604052600160055560016006553480156200001b57600080fd5b5060405162002d1b38038062002d1b8339810160408190526200003e9162000173565b6103e88161ffff161115620000885760405162461bcd60e51b815260206004820152600c60248201526b0cccaca40e8dede40d0d2ced60a31b604482015260640160405180910390fd5b60008054336001600160a01b031991821617909155600180549091166001600160a01b0397881617905560028054959096166001600160e01b031990951694909417600160a01b6001600160401b03948516021790945560038054919092166001600160501b0319909116176801000000000000000061ffff948516021761ffff60501b19166a01000000000000000000009390921692909202179055620001f4565b80516001600160a01b03811681146200014357600080fd5b919050565b80516001600160401b03811681146200014357600080fd5b805161ffff811681146200014357600080fd5b60008060008060008060c087890312156200018d57600080fd5b62000198876200012b565b9550620001a8602088016200012b565b9450620001b86040880162000148565b9350620001c86060880162000148565b9250620001d86080880162000160565b9150620001e860a0880162000160565b90509295509295509295565b612b1780620002046000396000f3fe6080604052600436106101815760003560e01c8063682c2058116100d1578063bbc77f3a1161008a578063de74e57b11610064578063de74e57b14610589578063e9fca283146105bc578063fd637a94146105cf578063fe25e00a146105f657600080fd5b8063bbc77f3a1461051c578063c316939c1461053c578063d09ef2411461055c57600080fd5b8063682c20581461037a57806389dfe44e146103905780638da5cb5b146103b2578063a85c38ef146103d2578063aaccf1ec1461046e578063b9f794511461048457600080fd5b80632a58b3301161013e57806336f691c41161011857806336f691c4146103075780635549756c1461031a57806357b32e491461033a5780635b7baf641461035a57600080fd5b80632a58b3301461028b5780632f651ced146102af5780633455a94b146102e757600080fd5b806305261aea14610186578063107a274a146101a8578063117f5f92146101de578063157305fe14610216578063164e68de1461023657806324a9d85314610256575b600080fd5b34801561019257600080fd5b506101a66101a13660046122b7565b610616565b005b3480156101b457600080fd5b506101c86101c33660046122b7565b6109a1565b6040516101d59190612316565b60405180910390f35b3480156101ea57600080fd5b506003546101fe906001600160401b031681565b6040516001600160401b0390911681526020016101d5565b34801561022257600080fd5b506101a6610231366004612401565b610c28565b34801561024257600080fd5b506101a6610251366004612468565b610dc2565b34801561026257600080fd5b5060035461027890600160501b900461ffff1681565b60405161ffff90911681526020016101d5565b34801561029757600080fd5b506102a160065481565b6040519081526020016101d5565b3480156102bb57600080fd5b506001546102cf906001600160a01b031681565b6040516001600160a01b0390911681526020016101d5565b3480156102f357600080fd5b506102a1610302366004612468565b610e59565b6101a6610315366004612401565b610ef6565b34801561032657600080fd5b506101a661033536600461248a565b611166565b34801561034657600080fd5b506102a16103553660046124bf565b611207565b34801561036657600080fd5b506101a66103753660046122b7565b611541565b34801561038657600080fd5b506102a160045481565b34801561039c57600080fd5b5060035461027890600160401b900461ffff1681565b3480156103be57600080fd5b506000546102cf906001600160a01b031681565b3480156103de57600080fd5b5061045a6103ed3660046122b7565b600860205260009081526040902080546001820154600283015460039093015491926001600160a01b03821692600160a01b928390046001600160601b039081169390831692600160601b81046001600160401b03908116939282041691600160e01b90910460ff169088565b6040516101d59897969594939291906125a3565b34801561047a57600080fd5b506102a160055481565b34801561049057600080fd5b506104e361049f366004612468565b600960205260009081526040902080546001909101546001600160401b0380831692600160401b8104821692600160801b909104909116906001600160801b031684565b604080516001600160401b039586168152938516602085015291909316908201526001600160801b0390911660608201526080016101d5565b34801561052857600080fd5b506101a6610537366004612608565b61170f565b34801561054857600080fd5b506101a661055736600461263b565b611783565b34801561056857600080fd5b5061057c6105773660046122b7565b611c4d565b6040516101d5919061269a565b34801561059557600080fd5b506105a96105a43660046122b7565b611d54565b6040516101d5979695949392919061272b565b6102a16105ca3660046127a9565b611f4a565b3480156105db57600080fd5b506002546101fe90600160a01b90046001600160401b031681565b34801561060257600080fd5b506002546102cf906001600160a01b031681565b600a5460ff16156106425760405162461bcd60e51b8152600401610639906127cb565b60405180910390fd5b600a805460ff191660011790556000818152600860205260409020600280820154600160e01b900460ff16600681111561067e5761067e612579565b146106c15760405162461bcd60e51b81526020600482015260136024820152726e6f742064656c69766572656420737461746560681b6044820152606401610639565b60035460028201546106e6916001600160401b0390811691600160a01b900416612805565b6001600160401b0316421161072b5760405162461bcd60e51b815260206004820152600b60248201526a3bb4b73237bb9037b832b760a91b6044820152606401610639565b8054600090815260076020526040902060028201805460ff60e01b1916600160e21b1790556001808201805461010090046001600160401b03169161076f8361282c565b82546101009290920a6001600160401b0381810219909316918316021790915582546001600160a01b0316600090815260096020526040812080549093509091169082906107bc8361282c565b82546101009290920a6001600160401b03818102199093169190921691909102179055506001838101549082018054600160a01b9092046001600160601b0316916000906108149084906001600160801b0316612852565b82546101009290920a6001600160801b038181021990931691909216919091021790555060035460018401546000916127109161086c91600160501b900461ffff1690600160a01b90046001600160601b0316612872565b610876919061288f565b9050806004600082825461088a91906128b1565b9091555050825460018501546108c4916001600160a01b0316906108bf908490600160a01b90046001600160601b03166128c4565b612211565b825460018501546001600160a01b039091169086907fe542d9ced06ebf48c00dc3567a112897fa34963ecc9a6ebf2beba9bc70f5689490610916908590600160a01b90046001600160601b03166128c4565b60405190815260200160405180910390a382548254604080516001600160401b038084168252600160401b840481166020830152600160801b90930490921682820152516001600160a01b03909216917fc61210dacb3a6183d55f6567a264442c0c723bd97ec41717dfb307273701be959181900360600190a25050600a805460ff19169055505050565b6109fe6040518060e0016040528060006001600160a01b0316815260200160006001600160601b0316815260200160001515815260200160006001600160401b031681526020016060815260200160608152602001606081525090565b600082815260076020908152604091829020825160e08101845281546001600160a01b0381168252600160a01b90046001600160601b031692810192909252600181015460ff81161515938301939093526101009092046001600160401b03166060820152600282018054919291608084019190610a7b906128d7565b80601f0160208091040260200160405190810160405280929190818152602001828054610aa7906128d7565b8015610af45780601f10610ac957610100808354040283529160200191610af4565b820191906000526020600020905b815481529060010190602001808311610ad757829003601f168201915b50505050508152602001600382018054610b0d906128d7565b80601f0160208091040260200160405190810160405280929190818152602001828054610b39906128d7565b8015610b865780601f10610b5b57610100808354040283529160200191610b86565b820191906000526020600020905b815481529060010190602001808311610b6957829003601f168201915b50505050508152602001600482018054610b9f906128d7565b80601f0160208091040260200160405190810160405280929190818152602001828054610bcb906128d7565b8015610c185780601f10610bed57610100808354040283529160200191610c18565b820191906000526020600020905b815481529060010190602001808311610bfb57829003601f168201915b5050505050815250509050919050565b600083815260086020526040902060016002820154600160e01b900460ff166006811115610c5857610c58612579565b14610c965760405162461bcd60e51b815260206004820152600e60248201526d6e6f74207061696420737461746560901b6044820152606401610639565b805460009081526007602052604090206001546001600160a01b0316331480610cc8575080546001600160a01b031633145b610d045760405162461bcd60e51b815260206004820152600d60248201526c3737ba103232b634bb32b932b960991b6044820152606401610639565b8215801590610d1557506110008311155b610d4f5760405162461bcd60e51b815260206004820152600b60248201526a189859081c185e5b1bd85960aa1b6044820152606401610639565b6002820180546001600160401b034216600160a01b0268ffffffffffffffffff60a01b1990911617600160e11b17905560405185907fe55808ab67ee6194bab018125d65d17037751771f938cea781d152389396d8e390610db3908790879061293a565b60405180910390a25050505050565b6000546001600160a01b03163314610e085760405162461bcd60e51b81526020600482015260096024820152683737ba1037bbb732b960b91b6044820152606401610639565b600a5460ff1615610e2b5760405162461bcd60e51b8152600401610639906127cb565b600a805460ff19166001179055600480546000909155610e4b8282612211565b5050600a805460ff19169055565b6001600160a01b038116600090815260096020526040812080548290610e9090600160401b90046001600160401b03166005612872565b8254610ea6906001600160401b0316600a612872565b610eb091906128b1565b8254909150600090610ed390600160801b90046001600160401b03166028612872565b9050808211610ee3576000610eed565b610eed81836128c4565b95945050505050565b600083815260086020526040902060018101546001600160a01b03163314610f4c5760405162461bcd60e51b81526020600482015260096024820152683737ba10313abcb2b960b91b6044820152606401610639565b600280820154600160e01b900460ff166006811115610f6d57610f6d612579565b14610fb05760405162461bcd60e51b81526020600482015260136024820152726e6f742064656c69766572656420737461746560681b6044820152606401610639565b6003546002820154610fd5916001600160401b0390811691600160a01b900416612805565b6001600160401b031642111561101d5760405162461bcd60e51b815260206004820152600d60248201526c1dda5b991bddc818db1bdcd959609a1b6044820152606401610639565b811580159061102e57506107d08211155b6110675760405162461bcd60e51b815260206004820152600a6024820152693130b2103932b0b9b7b760b11b6044820152606401610639565b60035460018201546000916127109161109b91600160401b900461ffff1690600160a01b90046001600160601b0316612872565b6110a5919061288f565b90508034146110e45760405162461bcd60e51b815260206004820152600b60248201526a77726f6e67207374616b6560a81b6044820152606401610639565b6002820180546001600160601b0383167fffffff00ffffffffffffffffffffffffffffffff00000000000000000000000090911617600360e01b179055604051339086907f9b58afa035c5fa58f85c5a54b65bd3562d5aa7679e973bc1404fe25e8babab2190611157908890889061293a565b60405180910390a35050505050565b600082815260076020526040902080546001600160a01b031633146111ba5760405162461bcd60e51b815260206004820152600a6024820152693737ba1039b2b63632b960b11b6044820152606401610639565b60018101805460ff191683151590811790915560405190815283907f92693567bc88f088e150fcc712a4351edbfa93e37df9d8833c8e4fa177dd23529060200160405180910390a2505050565b600080846001600160601b03161161124b5760405162461bcd60e51b8152602060048201526007602482015266070726963653d360cc1b6044820152606401610639565b861580159061125b575060648711155b6112935760405162461bcd60e51b8152602060048201526009602482015268626164207469746c6560b81b6044820152606401610639565b84158015906112a457506107d08511155b6112e25760405162461bcd60e51b815260206004820152600f60248201526e3130b2103232b9b1b934b83a34b7b760891b6044820152606401610639565b81158015906112f357506110008211155b61132c5760405162461bcd60e51b815260206004820152600a602482015269189859081cd958dc995d60b21b6044820152606401610639565b6005805490600061133c83612956565b9190505590506040518060e00160405280336001600160a01b03168152602001856001600160601b0316815260200160011515815260200160006001600160401b0316815260200189898080601f016020809104026020016040519081016040528093929190818152602001838380828437600092019190915250505090825250604080516020601f8a0181900481028201810190925288815291810191908990899081908401838280828437600092019190915250505090825250604080516020601f8701819004810282018101909252858152918101919086908690819084018382808284376000920182905250939094525050838152600760209081526040918290208451918501516001600160601b0316600160a01b026001600160a01b039092169190911781559083015160018201805460608601516001600160401b03166101000268ffffffffffffffff00199315159390931668ffffffffffffffffff1990911617919091179055608083015190915060028201906114c290826129d5565b5060a082015160038201906114d790826129d5565b5060c082015160048201906114ec90826129d5565b50905050336001600160a01b0316817fa490ea95b20302d0b594b4a9f965011abd72192513422ae4b5acdc910633612e868b8b60405161152e93929190612a94565b60405180910390a3979650505050505050565b600a5460ff16156115645760405162461bcd60e51b8152600401610639906127cb565b600a805460ff191660019081179091556000828152600860205260409020908101546001600160a01b031633146115c95760405162461bcd60e51b81526020600482015260096024820152683737ba10313abcb2b960b91b6044820152606401610639565b60016002820154600160e01b900460ff1660068111156115eb576115eb612579565b146116295760405162461bcd60e51b815260206004820152600e60248201526d6e6f7420726566756e6461626c6560901b6044820152606401610639565b6002805490820154611655916001600160401b03600160a01b909104811691600160601b900416612805565b6001600160401b031642116116985760405162461bcd60e51b8152602060048201526009602482015268746f6f206561726c7960b81b6044820152606401610639565b60028101805460ff60e01b1916600560e01b17905560018101546116d6906001600160a01b03811690600160a01b90046001600160601b0316612211565b60405182907fc118564863bc4bc4615080294149317d0199c54d04e6ccc10de28a41cf9807c690600090a25050600a805460ff19169055565b6000546001600160a01b031633146117555760405162461bcd60e51b81526020600482015260096024820152683737ba1037bbb732b960b91b6044820152606401610639565b600180546001600160a01b039384166001600160a01b03199182161790915560028054929093169116179055565b600a5460ff16156117a65760405162461bcd60e51b8152600401610639906127cb565b600a805460ff19166001179055600254336001600160a01b03909116146117fd5760405162461bcd60e51b815260206004820152600b60248201526a3737ba1030b93134ba32b960a91b6044820152606401610639565b600084815260086020526040902060036002820154600160e01b900460ff16600681111561182d5761182d612579565b146118695760405162461bcd60e51b815260206004820152600c60248201526b1b9bdd08191a5cdc1d5d195960a21b6044820152606401610639565b600084600381111561187d5761187d612579565b036118b85760405162461bcd60e51b815260206004820152600b60248201526a189859081d995c991a58dd60aa1b6044820152606401610639565b8054600090815260076020908152604080832080546001600160a01b03168452600990925290912060028301805460ff60e01b1916600360e11b179055600186600381111561190957611909612579565b0361198b578054600160801b90046001600160401b031681601061192c8361282c565b82546001600160401b039182166101009390930a92830291909202199091161790555060018301546002840154611986916001600160a01b038116916108bf916001600160601b0391821691600160a01b909104166128b1565b611b95565b600286600381111561199f5761199f612579565b03611b0f578054600160401b90046001600160401b03168160086119c28361282c565b82546101009290920a6001600160401b0381810219909316918316021790915582541690508160006119f38361282c565b82546101009290920a6001600160401b03818102199093169190921691909102179055506001838101549082018054600160a01b9092046001600160601b031691600090611a4b9084906001600160801b0316612852565b82546101009290920a6001600160801b0381810219909316919092169190910217905550600354600184015460009161271091611aa391600160501b900461ffff1690600160a01b90046001600160601b0316612872565b611aad919061288f565b90508060046000828254611ac191906128b1565b9091555050825460028501546001860154611b09926001600160a01b0316916001600160601b0390811691611aff918691600160a01b9004166128c4565b6108bf91906128b1565b50611b95565b6001830154600090611b3390600290600160a01b90046001600160601b031661288f565b60018501546002860154919250611b63916001600160a01b03909116906108bf906001600160601b0316846128b1565b82546001850154611b93916001600160a01b0316906108bf908490600160a01b90046001600160601b03166128c4565b505b867fc204352fad7e46251e09ce83e05533737044b65128eb8926aac1969fbe2be267878787604051611bc993929190612ab7565b60405180910390a281548154604080516001600160401b038084168252600160401b840481166020830152600160801b90930490921682820152516001600160a01b03909216917fc61210dacb3a6183d55f6567a264442c0c723bd97ec41717dfb307273701be959181900360600190a25050600a805460ff191690555050505050565b6040805161010081018252600080825260208201819052918101829052606081018290526080810182905260a0810182905260c0810182905260e08101919091526000828152600860209081526040918290208251610100810184528154815260018201546001600160a01b038116938201939093526001600160601b03600160a01b93849004811694820194909452600282015493841660608201526001600160401b03600160601b85048116608083015292840490921660a0830152909160c083019060ff600160e01b909104166006811115611d2e57611d2e612579565b6006811115611d3f57611d3f612579565b81526020016003820154815250509050919050565b6007602052600090815260409020805460018201546002830180546001600160a01b03841694600160a01b9094046001600160601b03169360ff84169361010090046001600160401b0316929091611dab906128d7565b80601f0160208091040260200160405190810160405280929190818152602001828054611dd7906128d7565b8015611e245780601f10611df957610100808354040283529160200191611e24565b820191906000526020600020905b815481529060010190602001808311611e0757829003601f168201915b505050505090806003018054611e39906128d7565b80601f0160208091040260200160405190810160405280929190818152602001828054611e65906128d7565b8015611eb25780601f10611e8757610100808354040283529160200191611eb2565b820191906000526020600020905b815481529060010190602001808311611e9557829003601f168201915b505050505090806004018054611ec7906128d7565b80601f0160208091040260200160405190810160405280929190818152602001828054611ef3906128d7565b8015611f405780601f10611f1557610100808354040283529160200191611f40565b820191906000526020600020905b815481529060010190602001808311611f2357829003601f168201915b5050505050905087565b6000828152600760205260408120600181015460ff16611f9f5760405162461bcd60e51b815260206004820152601060248201526f696e616374697665206c697374696e6760801b6044820152606401610639565b8054600160a01b90046001600160601b03163414611fed5760405162461bcd60e51b815260206004820152600b60248201526a77726f6e6720707269636560a81b6044820152606401610639565b80546001600160a01b031633036120315760405162461bcd60e51b815260206004820152600860248201526773656c662d62757960c01b6044820152606401610639565b8261206a5760405162461bcd60e51b81526020600482015260096024820152686e6f207075626b657960b81b6044820152606401610639565b6006805490600061207a83612956565b9091555060408051610100810182528681523360208201528354600160a01b90046001600160601b031691810191909152600060608201819052426001600160401b0316608083015260a082015290925060c081016001815260209081018590526000848152600882526040908190208351815591830151908301516001600160a01b03909116600160a01b6001600160601b0392831681029190911760018401556060840151600284018054608087015160a0880151939095166001600160a01b031990911617600160601b6001600160401b03958616021767ffffffffffffffff60a01b19811694909216909202928317825560c08501519268ffffffffffffffffff60a01b1990911660ff60e01b1990911617600160e01b8360068111156121a7576121a7612579565b021790555060e09190910151600390910155805460408051600160a01b9092046001600160601b03168252602082018590523391869185917f87dc7c69dc4b8cd9d7b57b4b719b5ee1d0e1f9d25031ba2065b71941f5b3e46f910160405180910390a45092915050565b8060000361221d575050565b6000826001600160a01b03168260405160006040518083038185875af1925050503d806000811461226a576040519150601f19603f3d011682016040523d82523d6000602084013e61226f565b606091505b50509050806122b25760405162461bcd60e51b815260206004820152600f60248201526e1d1c985b9cd9995c8819985a5b1959608a1b6044820152606401610639565b505050565b6000602082840312156122c957600080fd5b5035919050565b6000815180845260005b818110156122f6576020818501810151868301820152016122da565b506000602082860101526020601f19601f83011685010191505092915050565b602080825282516001600160a01b0316828201528201516001600160601b031660408083019190915282015180151560608301526000905060608301516001600160401b038116608084015250608083015160e060a084015261237d6101008401826122d0565b905060a0840151601f19808584030160c086015261239b83836122d0565b925060c08601519150808584030160e086015250610eed82826122d0565b60008083601f8401126123cb57600080fd5b5081356001600160401b038111156123e257600080fd5b6020830191508360208285010111156123fa57600080fd5b9250929050565b60008060006040848603121561241657600080fd5b8335925060208401356001600160401b0381111561243357600080fd5b61243f868287016123b9565b9497909650939450505050565b80356001600160a01b038116811461246357600080fd5b919050565b60006020828403121561247a57600080fd5b6124838261244c565b9392505050565b6000806040838503121561249d57600080fd5b82359150602083013580151581146124b457600080fd5b809150509250929050565b60008060008060008060006080888a0312156124da57600080fd5b87356001600160401b03808211156124f157600080fd5b6124fd8b838c016123b9565b909950975060208a013591508082111561251657600080fd5b6125228b838c016123b9565b909750955060408a013591506001600160601b038216821461254357600080fd5b9093506060890135908082111561255957600080fd5b506125668a828b016123b9565b989b979a50959850939692959293505050565b634e487b7160e01b600052602160045260246000fd5b6007811061259f5761259f612579565b9052565b8881526001600160a01b03881660208201526001600160601b038781166040830152861660608201526001600160401b038581166080830152841660a082015261010081016125f560c083018561258f565b8260e08301529998505050505050505050565b6000806040838503121561261b57600080fd5b6126248361244c565b91506126326020840161244c565b90509250929050565b6000806000806060858703121561265157600080fd5b8435935060208501356004811061266757600080fd5b925060408501356001600160401b0381111561268257600080fd5b61268e878288016123b9565b95989497509550505050565b6000610100820190508251825260018060a01b03602084015116602083015260408301516001600160601b03808216604085015280606086015116606085015250506001600160401b03608084015116608083015260a083015161270960a08401826001600160401b03169052565b5060c083015161271c60c084018261258f565b5060e092830151919092015290565b6001600160a01b03881681526001600160601b038716602082015285151560408201526001600160401b038516606082015260e060808201819052600090612775908301866122d0565b82810360a084015261278781866122d0565b905082810360c084015261279b81856122d0565b9a9950505050505050505050565b600080604083850312156127bc57600080fd5b50508035926020909101359150565b6020808252600a90820152697265656e7472616e637960b01b604082015260600190565b634e487b7160e01b600052601160045260246000fd5b6001600160401b03818116838216019080821115612825576128256127ef565b5092915050565b60006001600160401b03808316818103612848576128486127ef565b6001019392505050565b6001600160801b03818116838216019080821115612825576128256127ef565b8082028115828204841417612889576128896127ef565b92915050565b6000826128ac57634e487b7160e01b600052601260045260246000fd5b500490565b80820180821115612889576128896127ef565b81810381811115612889576128896127ef565b600181811c908216806128eb57607f821691505b60208210810361290b57634e487b7160e01b600052602260045260246000fd5b50919050565b81835281816020850137506000828201602090810191909152601f909101601f19169091010190565b60208152600061294e602083018486612911565b949350505050565b600060018201612968576129686127ef565b5060010190565b634e487b7160e01b600052604160045260246000fd5b601f8211156122b2576000816000526020600020601f850160051c810160208610156129ae5750805b601f850160051c820191505b818110156129cd578281556001016129ba565b505050505050565b81516001600160401b038111156129ee576129ee61296f565b612a02816129fc84546128d7565b84612985565b602080601f831160018114612a375760008415612a1f5750858301515b600019600386901b1c1916600185901b1785556129cd565b600085815260208120601f198616915b82811015612a6657888601518255948401946001909101908401612a47565b5085821015612a845787850151600019600388901b60f8161c191681555b5050505050600190811b01905550565b6001600160601b0384168152604060208201526000610eed604083018486612911565b600060048510612ac957612ac9612579565b84825260406020830152610eed60408301848661291156fea26469706673582212202cf49531f0b1fccacf0c88dcf21cd5de7f1627793cf84e955a43de437b788e4664736f6c63430008180033","opcodes":"PUSH1 0x80 PUSH1 0x40 MSTORE PUSH1 0x1 PUSH1 0x5 SSTORE PUSH1 0x1 PUSH1 0x6 SSTORE CALLVALUE DUP1 ISZERO PUSH3 0x1B JUMPI PUSH1 0x0 DUP1 REVERT JUMPDEST POP PUSH1 0x40 MLOAD PUSH3 0x2D1B CODESIZE SUB DUP1 PUSH3 0x2D1B DUP4 CODECOPY DUP2 ADD PUSH1 0x40 DUP2 SWAP1 MSTORE PUSH3 0x3E SWAP2 PUSH3 0x173 JUMP JUMPDEST PUSH2 0x3E8 DUP2 PUSH2 0xFFFF AND GT ISZERO PUSH3 0x88 JUMPI PUSH1 0x40 MLOAD PUSH3 0x461BCD PUSH1 0xE5 SHL DUP2 MSTORE PUSH1 0x20 PUSH1 0x4 DUP3 ADD MSTORE PUSH1 0xC PUSH1 0x24 DUP3 ADD MSTORE PUSH12 0xCCCACA40E8DEDE40D0D2CED PUSH1 0xA3 SHL PUSH1 0x44 DUP3 ADD MSTORE PUSH1 0x64 ADD PUSH1 0x40 MLOAD DUP1 SWAP2 SUB SWAP1 REVERT JUMPDEST PUSH1 0x0 DUP1 SLOAD CALLER PUSH1 0x1 PUSH1 0x1 PUSH1 0xA0 SHL SUB NOT SWAP2 DUP3 AND OR SWAP1 SWAP2 SSTORE PUSH1 0x1 DUP1 SLOAD SWAP1 SWAP2 AND PUSH1 0x1 PUSH1 0x1 PUSH1 0xA0 SHL SUB SWAP8 DUP9 AND OR SWAP1 SSTORE PUSH1 0x2 DUP1 SLOAD SWAP6 SWAP1 SWAP7 AND PUSH1 0x1 PUSH1 0x1 PUSH1 0xE0 SHL SUB NOT SWAP1 SWAP6 AND SWAP5 SWAP1 SWAP5 OR PUSH1 0x1 PUSH1 0xA0 SHL PUSH1 0x1 PUSH1 0x1 PUSH1 0x40 SHL SUB SWAP5 DUP6 AND MUL OR SWAP1 SWAP5 SSTORE PUSH1 0x3 DUP1 SLOAD SWAP2 SWAP1 SWAP3 AND PUSH1 0x1 PUSH1 0x1 PUSH1 0x50 SHL SUB NOT SWAP1 SWAP2 AND OR PUSH9 0x10000000000000000 PUSH2 0xFFFF SWAP5 DUP6 AND MUL OR PUSH2 0xFFFF PUSH1 0x50 SHL NOT AND PUSH11 0x100000000000000000000 SWAP4 SWAP1 SWAP3 AND SWAP3 SWAP1 SWAP3 MUL OR SWAP1 SSTORE PUSH3 0x1F4 JUMP JUMPDEST DUP1 MLOAD PUSH1 0x1 PUSH1 0x1 PUSH1 0xA0 SHL SUB DUP2 AND DUP2 EQ PUSH3 0x143 JUMPI PUSH1 0x0 DUP1 REVERT JUMPDEST SWAP2 SWAP1 POP JUMP JUMPDEST DUP1 MLOAD PUSH1 0x1 PUSH1 0x1 PUSH1 0x40 SHL SUB DUP2 AND DUP2 EQ PUSH3 0x143 JUMPI PUSH1 0x0 DUP1 REVERT JUMPDEST DUP1 MLOAD PUSH2 0xFFFF DUP2 AND DUP2 EQ PUSH3 0x143 JUMPI PUSH1 0x0 DUP1 REVERT JUMPDEST PUSH1 0x0 DUP1 PUSH1 0x0 DUP1 PUSH1 0x0 DUP1 PUSH1 0xC0 DUP8 DUP10 SUB SLT ISZERO PUSH3 0x18D JUMPI PUSH1 0x0 DUP1 REVERT JUMPDEST PUSH3 0x198 DUP8 PUSH3 0x12B JUMP JUMPDEST SWAP6 POP PUSH3 0x1A8 PUSH1 0x20 DUP9 ADD PUSH3 0x12B JUMP JUMPDEST SWAP5 POP PUSH3 0x1B8 PUSH1 0x40 DUP9 ADD PUSH3 0x148 JUMP JUMPDEST SWAP4 POP PUSH3 0x1C8 PUSH1 0x60 DUP9 ADD PUSH3 0x148 JUMP JUMPDEST SWAP3 POP PUSH3 0x1D8 PUSH1 0x80 DUP9 ADD PUSH3 0x160 JUMP JUMPDEST SWAP2 POP PUSH3 0x1E8 PUSH1 0xA0 DUP9 ADD PUSH3 0x160 JUMP JUMPDEST SWAP1 POP SWAP3 SWAP6 POP SWAP3 SWAP6 POP SWAP3 SWAP6 JUMP JUMPDEST PUSH2 0x2B17 DUP1 PUSH3 0x204 PUSH1 0x0 CODECOPY PUSH1 0x0 RETURN INVALID PUSH1 0x80 PUSH1 0x40 MSTORE PUSH1 0x4 CALLDATASIZE LT PUSH2 0x181 JUMPI PUSH1 0x0 CALLDATALOAD PUSH1 0xE0 SHR DUP1 PUSH4 0x682C2058 GT PUSH2 0xD1 JUMPI DUP1 PUSH4 0xBBC77F3A GT PUSH2 0x8A JUMPI DUP1 PUSH4 0xDE74E57B GT PUSH2 0x64 JUMPI DUP1 PUSH4 0xDE74E57B EQ PUSH2 0x589 JUMPI DUP1 PUSH4 0xE9FCA283 EQ PUSH2 0x5BC JUMPI DUP1 PUSH4 0xFD637A94 EQ PUSH2 0x5CF JUMPI DUP1 PUSH4 0xFE25E00A EQ PUSH2 0x5F6 JUMPI PUSH1 0x0 DUP1 REVERT JUMPDEST DUP1 PUSH4 0xBBC77F3A EQ PUSH2 0x51C JUMPI DUP1 PUSH4 0xC316939C EQ PUSH2 0x53C JUMPI DUP1 PUSH4 0xD09EF241 EQ PUSH2 0x55C JUMPI PUSH1 0x0 DUP1 REVERT JUMPDEST DUP1 PUSH4 0x682C2058 EQ PUSH2 0x37A JUMPI DUP1 PUSH4 0x89DFE44E EQ PUSH2 0x390 JUMPI DUP1 PUSH4 0x8DA5CB5B EQ PUSH2 0x3B2 JUMPI DUP1 PUSH4 0xA85C38EF EQ PUSH2 0x3D2 JUMPI DUP1 PUSH4 0xAACCF1EC EQ PUSH2 0x46E JUMPI DUP1 PUSH4 0xB9F79451 EQ PUSH2 0x484 JUMPI PUSH1 0x0 DUP1 REVERT JUMPDEST DUP1 PUSH4 0x2A58B330 GT PUSH2 0x13E JUMPI DUP1 PUSH4 0x36F691C4 GT PUSH2 0x118 JUMPI DUP1 PUSH4 0x36F691C4 EQ PUSH2 0x307 JUMPI DUP1 PUSH4 0x5549756C EQ PUSH2 0x31A JUMPI DUP1 PUSH4 0x57B32E49 EQ PUSH2 0x33A JUMPI DUP1 PUSH4 0x5B7BAF64 EQ PUSH2 0x35A JUMPI PUSH1 0x0 DUP1 REVERT JUMPDEST DUP1 PUSH4 0x2A58B330 EQ PUSH2 0x28B JUMPI DUP1 PUSH4 0x2F651CED EQ PUSH2 0x2AF JUMPI DUP1 PUSH4 0x3455A94B EQ PUSH2 0x2E7 JUMPI PUSH1 0x0 DUP1 REVERT JUMPDEST DUP1 PUSH4 0x5261AEA EQ PUSH2 0x186 JUMPI DUP1 PUSH4 0x107A274A EQ PUSH2 0x1A8 JUMPI DUP1 PUSH4 0x117F5F92 EQ PUSH2 0x1DE JUMPI DUP1 PUSH4 0x157305FE EQ PUSH2 0x216 JUMPI DUP1 PUSH4 0x164E68DE EQ PUSH2 0x236 JUMPI DUP1 PUSH4 0x24A9D853 EQ PUSH2 0x256 JUMPI JUMPDEST PUSH1 0x0 DUP1 REVERT JUMPDEST CALLVALUE DUP1 ISZERO PUSH2 0x192 JUMPI PUSH1 0x0 DUP1 REVERT JUMPDEST POP PUSH2 0x1A6 PUSH2 0x1A1 CALLDATASIZE PUSH1 0x4 PUSH2 0x22B7 JUMP JUMPDEST PUSH2 0x616 JUMP JUMPDEST STOP JUMPDEST CALLVALUE DUP1 ISZERO PUSH2 0x1B4 JUMPI PUSH1 0x0 DUP1 REVERT JUMPDEST POP PUSH2 0x1C8 PUSH2 0x1C3 CALLDATASIZE PUSH1 0x4 PUSH2 0x22B7 JUMP JUMPDEST PUSH2 0x9A1 JUMP JUMPDEST PUSH1 0x40 MLOAD PUSH2 0x1D5 SWAP2 SWAP1 PUSH2 0x2316 JUMP JUMPDEST PUSH1 0x40 MLOAD DUP1 SWAP2 SUB SWAP1 RETURN JUMPDEST CALLVALUE DUP1 ISZERO PUSH2 0x1EA JUMPI PUSH1 0x0 DUP1 REVERT JUMPDEST POP PUSH1 0x3 SLOAD PUSH2 0x1FE SWAP1 PUSH1 0x1 PUSH1 0x1 PUSH1 0x40 SHL SUB AND DUP2 JUMP JUMPDEST PUSH1 0x40 MLOAD PUSH1 0x1 PUSH1 0x1 PUSH1 0x40 SHL SUB SWAP1 SWAP2 AND DUP2 MSTORE PUSH1 0x20 ADD PUSH2 0x1D5 JUMP JUMPDEST CALLVALUE DUP1 ISZERO PUSH2 0x222 JUMPI PUSH1 0x0 DUP1 REVERT JUMPDEST POP PUSH2 0x1A6 PUSH2 0x231 CALLDATASIZE PUSH1 0x4 PUSH2 0x2401 JUMP JUMPDEST PUSH2 0xC28 JUMP JUMPDEST CALLVALUE DUP1 ISZERO PUSH2 0x242 JUMPI PUSH1 0x0 DUP1 REVERT JUMPDEST POP PUSH2 0x1A6 PUSH2 0x251 CALLDATASIZE PUSH1 0x4 PUSH2 0x2468 JUMP JUMPDEST PUSH2 0xDC2 JUMP JUMPDEST CALLVALUE DUP1 ISZERO PUSH2 0x262 JUMPI PUSH1 0x0 DUP1 REVERT JUMPDEST POP PUSH1 0x3 SLOAD PUSH2 0x278 SWAP1 PUSH1 0x1 PUSH1 0x50 SHL SWAP1 DIV PUSH2 0xFFFF AND DUP2 JUMP JUMPDEST PUSH1 0x40 MLOAD PUSH2 0xFFFF SWAP1 SWAP2 AND DUP2 MSTORE PUSH1 0x20 ADD PUSH2 0x1D5 JUMP JUMPDEST CALLVALUE DUP1 ISZERO PUSH2 0x297 JUMPI PUSH1 0x0 DUP1 REVERT JUMPDEST POP PUSH2 0x2A1 PUSH1 0x6 SLOAD DUP2 JUMP JUMPDEST PUSH1 0x40 MLOAD SWAP1 DUP2 MSTORE PUSH1 0x20 ADD PUSH2 0x1D5 JUMP JUMPDEST CALLVALUE DUP1 ISZERO PUSH2 0x2BB JUMPI PUSH1 0x0 DUP1 REVERT JUMPDEST POP PUSH1 0x1 SLOAD PUSH2 0x2CF SWAP1 PUSH1 0x1 PUSH1 0x1 PUSH1 0xA0 SHL SUB AND DUP2 JUMP JUMPDEST PUSH1 0x40 MLOAD PUSH1 0x1 PUSH1 0x1 PUSH1 0xA0 SHL SUB SWAP1 SWAP2 AND DUP2 MSTORE PUSH1 0x20 ADD PUSH2 0x1D5 JUMP JUMPDEST CALLVALUE DUP1 ISZERO PUSH2 0x2F3 JUMPI PUSH1 0x0 DUP1 REVERT JUMPDEST POP PUSH2 0x2A1 PUSH2 0x302 CALLDATASIZE PUSH1 0x4 PUSH2 0x2468 JUMP JUMPDEST PUSH2 0xE59 JUMP JUMPDEST PUSH2 0x1A6 PUSH2 0x315 CALLDATASIZE PUSH1 0x4 PUSH2 0x2401 JUMP JUMPDEST PUSH2 0xEF6 JUMP JUMPDEST CALLVALUE DUP1 ISZERO PUSH2 0x326 JUMPI PUSH1 0x0 DUP1 REVERT JUMPDEST POP PUSH2 0x1A6 PUSH2 0x335 CALLDATASIZE PUSH1 0x4 PUSH2 0x248A JUMP JUMPDEST PUSH2 0x1166 JUMP JUMPDEST CALLVALUE DUP1 ISZERO PUSH2 0x346 JUMPI PUSH1 0x0 DUP1 REVERT JUMPDEST POP PUSH2 0x2A1 PUSH2 0x355 CALLDATASIZE PUSH1 0x4 PUSH2 0x24BF JUMP JUMPDEST PUSH2 0x1207 JUMP JUMPDEST CALLVALUE DUP1 ISZERO PUSH2 0x366 JUMPI PUSH1 0x0 DUP1 REVERT JUMPDEST POP PUSH2 0x1A6 PUSH2 0x375 CALLDATASIZE PUSH1 0x4 PUSH2 0x22B7 JUMP JUMPDEST PUSH2 0x1541 JUMP JUMPDEST CALLVALUE DUP1 ISZERO PUSH2 0x386 JUMPI PUSH1 0x0 DUP1 REVERT JUMPDEST POP PUSH2 0x2A1 PUSH1 0x4 SLOAD DUP2 JUMP JUMPDEST CALLVALUE DUP1 ISZERO PUSH2 0x39C JUMPI PUSH1 0x0 DUP1 REVERT JUMPDEST POP PUSH1 0x3 SLOAD PUSH2 0x278 SWAP1 PUSH1 0x1 PUSH1 0x40 SHL SWAP1 DIV PUSH2 0xFFFF AND DUP2 JUMP JUMPDEST CALLVALUE DUP1 ISZERO PUSH2 0x3BE JUMPI PUSH1 0x0 DUP1 REVERT JUMPDEST POP PUSH1 0x0 SLOAD PUSH2 0x2CF SWAP1 PUSH1 0x1 PUSH1 0x1 PUSH1 0xA0 SHL SUB AND DUP2 JUMP JUMPDEST CALLVALUE DUP1 ISZERO PUSH2 0x3DE JUMPI PUSH1 0x0 DUP1 REVERT JUMPDEST POP PUSH2 0x45A PUSH2 0x3ED CALLDATASIZE PUSH1 0x4 PUSH2 0x22B7 JUMP JUMPDEST PUSH1 0x8 PUSH1 0x20 MSTORE PUSH1 0x0 SWAP1 DUP2 MSTORE PUSH1 0x40 SWAP1 KECCAK256 DUP1 SLOAD PUSH1 0x1 DUP3 ADD SLOAD PUSH1 0x2 DUP4 ADD SLOAD PUSH1 0x3 SWAP1 SWAP4 ADD SLOAD SWAP2 SWAP3 PUSH1 0x1 PUSH1 0x1 PUSH1 0xA0 SHL SUB DUP3 AND SWAP3 PUSH1 0x1 PUSH1 0xA0 SHL SWAP3 DUP4 SWAP1 DIV PUSH1 0x1 PUSH1 0x1 PUSH1 0x60 SHL SUB SWAP1 DUP2 AND SWAP4 SWAP1 DUP4 AND SWAP3 PUSH1 0x1 PUSH1 0x60 SHL DUP2 DIV PUSH1 0x1 PUSH1 0x1 PUSH1 0x40 SHL SUB SWAP1 DUP2 AND SWAP4 SWAP3 DUP3 DIV AND SWAP2 PUSH1 0x1 PUSH1 0xE0 SHL SWAP1 SWAP2 DIV PUSH1 0xFF AND SWAP1 DUP9 JUMP JUMPDEST PUSH1 0x40 MLOAD PUSH2 0x1D5 SWAP9 SWAP8 SWAP7 SWAP6 SWAP5 SWAP4 SWAP3 SWAP2 SWAP1 PUSH2 0x25A3 JUMP JUMPDEST CALLVALUE DUP1 ISZERO PUSH2 0x47A JUMPI PUSH1 0x0 DUP1 REVERT JUMPDEST POP PUSH2 0x2A1 PUSH1 0x5 SLOAD DUP2 JUMP JUMPDEST CALLVALUE DUP1 ISZERO PUSH2 0x490 JUMPI PUSH1 0x0 DUP1 REVERT JUMPDEST POP PUSH2 0x4E3 PUSH2 0x49F CALLDATASIZE PUSH1 0x4 PUSH2 0x2468 JUMP JUMPDEST PUSH1 0x9 PUSH1 0x20 MSTORE PUSH1 0x0 SWAP1 DUP2 MSTORE PUSH1 0x40 SWAP1 KECCAK256 DUP1 SLOAD PUSH1 0x1 SWAP1 SWAP2 ADD SLOAD PUSH1 0x1 PUSH1 0x1 PUSH1 0x40 SHL SUB DUP1 DUP4 AND SWAP3 PUSH1 0x1 PUSH1 0x40 SHL DUP2 DIV DUP3 AND SWAP3 PUSH1 0x1 PUSH1 0x80 SHL SWAP1 SWAP2 DIV SWAP1 SWAP2 AND SWAP1 PUSH1 0x1 PUSH1 0x1 PUSH1 0x80 SHL SUB AND DUP5 JUMP JUMPDEST PUSH1 0x40 DUP1 MLOAD PUSH1 0x1 PUSH1 0x1 PUSH1 0x40 SHL SUB SWAP6 DUP7 AND DUP2 MSTORE SWAP4 DUP6 AND PUSH1 0x20 DUP6 ADD MSTORE SWAP2 SWAP1 SWAP4 AND SWAP1 DUP3 ADD MSTORE PUSH1 0x1 PUSH1 0x1 PUSH1 0x80 SHL SUB SWAP1 SWAP2 AND PUSH1 0x60 DUP3 ADD MSTORE PUSH1 0x80 ADD PUSH2 0x1D5 JUMP JUMPDEST CALLVALUE DUP1 ISZERO PUSH2 0x528 JUMPI PUSH1 0x0 DUP1 REVERT JUMPDEST POP PUSH2 0x1A6 PUSH2 0x537 CALLDATASIZE PUSH1 0x4 PUSH2 0x2608 JUMP JUMPDEST PUSH2 0x170F JUMP JUMPDEST CALLVALUE DUP1 ISZERO PUSH2 0x548 JUMPI PUSH1 0x0 DUP1 REVERT JUMPDEST POP PUSH2 0x1A6 PUSH2 0x557 CALLDATASIZE PUSH1 0x4 PUSH2 0x263B JUMP JUMPDEST PUSH2 0x1783 JUMP JUMPDEST CALLVALUE DUP1 ISZERO PUSH2 0x568 JUMPI PUSH1 0x0 DUP1 REVERT JUMPDEST POP PUSH2 0x57C PUSH2 0x577 CALLDATASIZE PUSH1 0x4 PUSH2 0x22B7 JUMP JUMPDEST PUSH2 0x1C4D JUMP JUMPDEST PUSH1 0x40 MLOAD PUSH2 0x1D5 SWAP2 SWAP1 PUSH2 0x269A JUMP JUMPDEST CALLVALUE DUP1 ISZERO PUSH2 0x595 JUMPI PUSH1 0x0 DUP1 REVERT JUMPDEST POP PUSH2 0x5A9 PUSH2 0x5A4 CALLDATASIZE PUSH1 0x4 PUSH2 0x22B7 JUMP JUMPDEST PUSH2 0x1D54 JUMP JUMPDEST PUSH1 0x40 MLOAD PUSH2 0x1D5 SWAP8 SWAP7 SWAP6 SWAP5 SWAP4 SWAP3 SWAP2 SWAP1 PUSH2 0x272B JUMP JUMPDEST PUSH2 0x2A1 PUSH2 0x5CA CALLDATASIZE PUSH1 0x4 PUSH2 0x27A9 JUMP JUMPDEST PUSH2 0x1F4A JUMP JUMPDEST CALLVALUE DUP1 ISZERO PUSH2 0x5DB JUMPI PUSH1 0x0 DUP1 REVERT JUMPDEST POP PUSH1 0x2 SLOAD PUSH2 0x1FE SWAP1 PUSH1 0x1 PUSH1 0xA0 SHL SWAP1 DIV PUSH1 0x1 PUSH1 0x1 PUSH1 0x40 SHL SUB AND DUP2 JUMP JUMPDEST CALLVALUE DUP1 ISZERO PUSH2 0x602 JUMPI PUSH1 0x0 DUP1 REVERT JUMPDEST POP PUSH1 0x2 SLOAD PUSH2 0x2CF SWAP1 PUSH1 0x1 PUSH1 0x1 PUSH1 0xA0 SHL SUB AND DUP2 JUMP JUMPDEST PUSH1 0xA SLOAD PUSH1 0xFF AND ISZERO PUSH2 0x642 JUMPI PUSH1 0x40 MLOAD PUSH3 0x461BCD PUSH1 0xE5 SHL DUP2 MSTORE PUSH1 0x4 ADD PUSH2 0x639 SWAP1 PUSH2 0x27CB JUMP JUMPDEST PUSH1 0x40 MLOAD DUP1 SWAP2 SUB SWAP1 REVERT JUMPDEST PUSH1 0xA DUP1 SLOAD PUSH1 0xFF NOT AND PUSH1 0x1 OR SWAP1 SSTORE PUSH1 0x0 DUP2 DUP2 MSTORE PUSH1 0x8 PUSH1 0x20 MSTORE PUSH1 0x40 SWAP1 KECCAK256 PUSH1 0x2 DUP1 DUP3 ADD SLOAD PUSH1 0x1 PUSH1 0xE0 SHL SWAP1 DIV PUSH1 0xFF AND PUSH1 0x6 DUP2 GT ISZERO PUSH2 0x67E JUMPI PUSH2 0x67E PUSH2 0x2579 JUMP JUMPDEST EQ PUSH2 0x6C1 JUMPI PUSH1 0x40 MLOAD PUSH3 0x461BCD PUSH1 0xE5 SHL DUP2 MSTORE PUSH1 0x20 PUSH1 0x4 DUP3 ADD MSTORE PUSH1 0x13 PUSH1 0x24 DUP3 ADD MSTORE PUSH19 0x6E6F742064656C697665726564207374617465 PUSH1 0x68 SHL PUSH1 0x44 DUP3 ADD MSTORE PUSH1 0x64 ADD PUSH2 0x639 JUMP JUMPDEST PUSH1 0x3 SLOAD PUSH1 0x2 DUP3 ADD SLOAD PUSH2 0x6E6 SWAP2 PUSH1 0x1 PUSH1 0x1 PUSH1 0x40 SHL SUB SWAP1 DUP2 AND SWAP2 PUSH1 0x1 PUSH1 0xA0 SHL SWAP1 DIV AND PUSH2 0x2805 JUMP JUMPDEST PUSH1 0x1 PUSH1 0x1 PUSH1 0x40 SHL SUB AND TIMESTAMP GT PUSH2 0x72B JUMPI PUSH1 0x40 MLOAD PUSH3 0x461BCD PUSH1 0xE5 SHL DUP2 MSTORE PUSH1 0x20 PUSH1 0x4 DUP3 ADD MSTORE PUSH1 0xB PUSH1 0x24 DUP3 ADD MSTORE PUSH11 0x3BB4B73237BB9037B832B7 PUSH1 0xA9 SHL PUSH1 0x44 DUP3 ADD MSTORE PUSH1 0x64 ADD PUSH2 0x639 JUMP JUMPDEST DUP1 SLOAD PUSH1 0x0 SWAP1 DUP2 MSTORE PUSH1 0x7 PUSH1 0x20 MSTORE PUSH1 0x40 SWAP1 KECCAK256 PUSH1 0x2 DUP3 ADD DUP1 SLOAD PUSH1 0xFF PUSH1 0xE0 SHL NOT AND PUSH1 0x1 PUSH1 0xE2 SHL OR SWAP1 SSTORE PUSH1 0x1 DUP1 DUP3 ADD DUP1 SLOAD PUSH2 0x100 SWAP1 DIV PUSH1 0x1 PUSH1 0x1 PUSH1 0x40 SHL SUB AND SWAP2 PUSH2 0x76F DUP4 PUSH2 0x282C JUMP JUMPDEST DUP3 SLOAD PUSH2 0x100 SWAP3 SWAP1 SWAP3 EXP PUSH1 0x1 PUSH1 0x1 PUSH1 0x40 SHL SUB DUP2 DUP2 MUL NOT SWAP1 SWAP4 AND SWAP2 DUP4 AND MUL OR SWAP1 SWAP2 SSTORE DUP3 SLOAD PUSH1 0x1 PUSH1 0x1 PUSH1 0xA0 SHL SUB AND PUSH1 0x0 SWAP1 DUP2 MSTORE PUSH1 0x9 PUSH1 0x20 MSTORE PUSH1 0x40 DUP2 KECCAK256 DUP1 SLOAD SWAP1 SWAP4 POP SWAP1 SWAP2 AND SWAP1 DUP3 SWAP1 PUSH2 0x7BC DUP4 PUSH2 0x282C JUMP JUMPDEST DUP3 SLOAD PUSH2 0x100 SWAP3 SWAP1 SWAP3 EXP PUSH1 0x1 PUSH1 0x1 PUSH1 0x40 SHL SUB DUP2 DUP2 MUL NOT SWAP1 SWAP4 AND SWAP2 SWAP1 SWAP3 AND SWAP2 SWAP1 SWAP2 MUL OR SWAP1 SSTORE POP PUSH1 0x1 DUP4 DUP2 ADD SLOAD SWAP1 DUP3 ADD DUP1 SLOAD PUSH1 0x1 PUSH1 0xA0 SHL SWAP1 SWAP3 DIV PUSH1 0x1 PUSH1 0x1 PUSH1 0x60 SHL SUB AND SWAP2 PUSH1 0x0 SWAP1 PUSH2 0x814 SWAP1 DUP5 SWAP1 PUSH1 0x1 PUSH1 0x1 PUSH1 0x80 SHL SUB AND PUSH2 0x2852 JUMP JUMPDEST DUP3 SLOAD PUSH2 0x100 SWAP3 SWAP1 SWAP3 EXP PUSH1 0x1 PUSH1 0x1 PUSH1 0x80 SHL SUB DUP2 DUP2 MUL NOT SWAP1 SWAP4 AND SWAP2 SWAP1 SWAP3 AND SWAP2 SWAP1 SWAP2 MUL OR SWAP1 SSTORE POP PUSH1 0x3 SLOAD PUSH1 0x1 DUP5 ADD SLOAD PUSH1 0x0 SWAP2 PUSH2 0x2710 SWAP2 PUSH2 0x86C SWAP2 PUSH1 0x1 PUSH1 0x50 SHL SWAP1 DIV PUSH2 0xFFFF AND SWAP1 PUSH1 0x1 PUSH1 0xA0 SHL SWAP1 DIV PUSH1 0x1 PUSH1 0x1 PUSH1 0x60 SHL SUB AND PUSH2 0x2872 JUMP JUMPDEST PUSH2 0x876 SWAP2 SWAP1 PUSH2 0x288F JUMP JUMPDEST SWAP1 POP DUP1 PUSH1 0x4 PUSH1 0x0 DUP3 DUP3 SLOAD PUSH2 0x88A SWAP2 SWAP1 PUSH2 0x28B1 JUMP JUMPDEST SWAP1 SWAP2 SSTORE POP POP DUP3 SLOAD PUSH1 0x1 DUP6 ADD SLOAD PUSH2 0x8C4 SWAP2 PUSH1 0x1 PUSH1 0x1 PUSH1 0xA0 SHL SUB AND SWAP1 PUSH2 0x8BF SWAP1 DUP5 SWAP1 PUSH1 0x1 PUSH1 0xA0 SHL SWAP1 DIV PUSH1 0x1 PUSH1 0x1 PUSH1 0x60 SHL SUB AND PUSH2 0x28C4 JUMP JUMPDEST PUSH2 0x2211 JUMP JUMPDEST DUP3 SLOAD PUSH1 0x1 DUP6 ADD SLOAD PUSH1 0x1 PUSH1 0x1 PUSH1 0xA0 SHL SUB SWAP1 SWAP2 AND SWAP1 DUP7 SWAP1 PUSH32 0xE542D9CED06EBF48C00DC3567A112897FA34963ECC9A6EBF2BEBA9BC70F56894 SWAP1 PUSH2 0x916 SWAP1 DUP6 SWAP1 PUSH1 0x1 PUSH1 0xA0 SHL SWAP1 DIV PUSH1 0x1 PUSH1 0x1 PUSH1 0x60 SHL SUB AND PUSH2 0x28C4 JUMP JUMPDEST PUSH1 0x40 MLOAD SWAP1 DUP2 MSTORE PUSH1 0x20 ADD PUSH1 0x40 MLOAD DUP1 SWAP2 SUB SWAP1 LOG3 DUP3 SLOAD DUP3 SLOAD PUSH1 0x40 DUP1 MLOAD PUSH1 0x1 PUSH1 0x1 PUSH1 0x40 SHL SUB DUP1 DUP5 AND DUP3 MSTORE PUSH1 0x1 PUSH1 0x40 SHL DUP5 DIV DUP2 AND PUSH1 0x20 DUP4 ADD MSTORE PUSH1 0x1 PUSH1 0x80 SHL SWAP1 SWAP4 DIV SWAP1 SWAP3 AND DUP3 DUP3 ADD MSTORE MLOAD PUSH1 0x1 PUSH1 0x1 PUSH1 0xA0 SHL SUB SWAP1 SWAP3 AND SWAP2 PUSH32 0xC61210DACB3A6183D55F6567A264442C0C723BD97EC41717DFB307273701BE95 SWAP2 DUP2 SWAP1 SUB PUSH1 0x60 ADD SWAP1 LOG2 POP POP PUSH1 0xA DUP1 SLOAD PUSH1 0xFF NOT AND SWAP1 SSTORE POP POP POP JUMP JUMPDEST PUSH2 0x9FE PUSH1 0x40 MLOAD DUP1 PUSH1 0xE0 ADD PUSH1 0x40 MSTORE DUP1 PUSH1 0x0 PUSH1 0x1 PUSH1 0x1 PUSH1 0xA0 SHL SUB AND DUP2 MSTORE PUSH1 0x20 ADD PUSH1 0x0 PUSH1 0x1 PUSH1 0x1 PUSH1 0x60 SHL SUB AND DUP2 MSTORE PUSH1 0x20 ADD PUSH1 0x0 ISZERO ISZERO DUP2 MSTORE PUSH1 0x20 ADD PUSH1 0x0 PUSH1 0x1 PUSH1 0x1 PUSH1 0x40 SHL SUB AND DUP2 MSTORE PUSH1 0x20 ADD PUSH1 0x60 DUP2 MSTORE PUSH1 0x20 ADD PUSH1 0x60 DUP2 MSTORE PUSH1 0x20 ADD PUSH1 0x60 DUP2 MSTORE POP SWAP1 JUMP JUMPDEST PUSH1 0x0 DUP3 DUP2 MSTORE PUSH1 0x7 PUSH1 0x20 SWAP1 DUP2 MSTORE PUSH1 0x40 SWAP2 DUP3 SWAP1 KECCAK256 DUP3 MLOAD PUSH1 0xE0 DUP2 ADD DUP5 MSTORE DUP2 SLOAD PUSH1 0x1 PUSH1 0x1 PUSH1 0xA0 SHL SUB DUP2 AND DUP3 MSTORE PUSH1 0x1 PUSH1 0xA0 SHL SWAP1 DIV PUSH1 0x1 PUSH1 0x1 PUSH1 0x60 SHL SUB AND SWAP3 DUP2 ADD SWAP3 SWAP1 SWAP3 MSTORE PUSH1 0x1 DUP2 ADD SLOAD PUSH1 0xFF DUP2 AND ISZERO ISZERO SWAP4 DUP4 ADD SWAP4 SWAP1 SWAP4 MSTORE PUSH2 0x100 SWAP1 SWAP3 DIV PUSH1 0x1 PUSH1 0x1 PUSH1 0x40 SHL SUB AND PUSH1 0x60 DUP3 ADD MSTORE PUSH1 0x2 DUP3 ADD DUP1 SLOAD SWAP2 SWAP3 SWAP2 PUSH1 0x80 DUP5 ADD SWAP2 SWAP1 PUSH2 0xA7B SWAP1 PUSH2 0x28D7 JUMP JUMPDEST DUP1 PUSH1 0x1F ADD PUSH1 0x20 DUP1 SWAP2 DIV MUL PUSH1 0x20 ADD PUSH1 0x40 MLOAD SWAP1 DUP2 ADD PUSH1 0x40 MSTORE DUP1 SWAP3 SWAP2 SWAP1 DUP2 DUP2 MSTORE PUSH1 0x20 ADD DUP3 DUP1 SLOAD PUSH2 0xAA7 SWAP1 PUSH2 0x28D7 JUMP JUMPDEST DUP1 ISZERO PUSH2 0xAF4 JUMPI DUP1 PUSH1 0x1F LT PUSH2 0xAC9 JUMPI PUSH2 0x100 DUP1 DUP4 SLOAD DIV MUL DUP4 MSTORE SWAP2 PUSH1 0x20 ADD SWAP2 PUSH2 0xAF4 JUMP JUMPDEST DUP3 ADD SWAP2 SWAP1 PUSH1 0x0 MSTORE PUSH1 0x20 PUSH1 0x0 KECCAK256 SWAP1 JUMPDEST DUP2 SLOAD DUP2 MSTORE SWAP1 PUSH1 0x1 ADD SWAP1 PUSH1 0x20 ADD DUP1 DUP4 GT PUSH2 0xAD7 JUMPI DUP3 SWAP1 SUB PUSH1 0x1F AND DUP3 ADD SWAP2 JUMPDEST POP POP POP POP POP DUP2 MSTORE PUSH1 0x20 ADD PUSH1 0x3 DUP3 ADD DUP1 SLOAD PUSH2 0xB0D SWAP1 PUSH2 0x28D7 JUMP JUMPDEST DUP1 PUSH1 0x1F ADD PUSH1 0x20 DUP1 SWAP2 DIV MUL PUSH1 0x20 ADD PUSH1 0x40 MLOAD SWAP1 DUP2 ADD PUSH1 0x40 MSTORE DUP1 SWAP3 SWAP2 SWAP1 DUP2 DUP2 MSTORE PUSH1 0x20 ADD DUP3 DUP1 SLOAD PUSH2 0xB39 SWAP1 PUSH2 0x28D7 JUMP JUMPDEST DUP1 ISZERO PUSH2 0xB86 JUMPI DUP1 PUSH1 0x1F LT PUSH2 0xB5B JUMPI PUSH2 0x100 DUP1 DUP4 SLOAD DIV MUL DUP4 MSTORE SWAP2 PUSH1 0x20 ADD SWAP2 PUSH2 0xB86 JUMP JUMPDEST DUP3 ADD SWAP2 SWAP1 PUSH1 0x0 MSTORE PUSH1 0x20 PUSH1 0x0 KECCAK256 SWAP1 JUMPDEST DUP2 SLOAD DUP2 MSTORE SWAP1 PUSH1 0x1 ADD SWAP1 PUSH1 0x20 ADD DUP1 DUP4 GT PUSH2 0xB69 JUMPI DUP3 SWAP1 SUB PUSH1 0x1F AND DUP3 ADD SWAP2 JUMPDEST POP POP POP POP POP DUP2 MSTORE PUSH1 0x20 ADD PUSH1 0x4 DUP3 ADD DUP1 SLOAD PUSH2 0xB9F SWAP1 PUSH2 0x28D7 JUMP JUMPDEST DUP1 PUSH1 0x1F ADD PUSH1 0x20 DUP1 SWAP2 DIV MUL PUSH1 0x20 ADD PUSH1 0x40 MLOAD SWAP1 DUP2 ADD PUSH1 0x40 MSTORE DUP1 SWAP3 SWAP2 SWAP1 DUP2 DUP2 MSTORE PUSH1 0x20 ADD DUP3 DUP1 SLOAD PUSH2 0xBCB SWAP1 PUSH2 0x28D7 JUMP JUMPDEST DUP1 ISZERO PUSH2 0xC18 JUMPI DUP1 PUSH1 0x1F LT PUSH2 0xBED JUMPI PUSH2 0x100 DUP1 DUP4 SLOAD DIV MUL DUP4 MSTORE SWAP2 PUSH1 0x20 ADD SWAP2 PUSH2 0xC18 JUMP JUMPDEST DUP3 ADD SWAP2 SWAP1 PUSH1 0x0 MSTORE PUSH1 0x20 PUSH1 0x0 KECCAK256 SWAP1 JUMPDEST DUP2 SLOAD DUP2 MSTORE SWAP1 PUSH1 0x1 ADD SWAP1 PUSH1 0x20 ADD DUP1 DUP4 GT PUSH2 0xBFB JUMPI DUP3 SWAP1 SUB PUSH1 0x1F AND DUP3 ADD SWAP2 JUMPDEST POP POP POP POP POP DUP2 MSTORE POP POP SWAP1 POP SWAP2 SWAP1 POP JUMP JUMPDEST PUSH1 0x0 DUP4 DUP2 MSTORE PUSH1 0x8 PUSH1 0x20 MSTORE PUSH1 0x40 SWAP1 KECCAK256 PUSH1 0x1 PUSH1 0x2 DUP3 ADD SLOAD PUSH1 0x1 PUSH1 0xE0 SHL SWAP1 DIV PUSH1 0xFF AND PUSH1 0x6 DUP2 GT ISZERO PUSH2 0xC58 JUMPI PUSH2 0xC58 PUSH2 0x2579 JUMP JUMPDEST EQ PUSH2 0xC96 JUMPI PUSH1 0x40 MLOAD PUSH3 0x461BCD PUSH1 0xE5 SHL DUP2 MSTORE PUSH1 0x20 PUSH1 0x4 DUP3 ADD MSTORE PUSH1 0xE PUSH1 0x24 DUP3 ADD MSTORE PUSH14 0x6E6F742070616964207374617465 PUSH1 0x90 SHL PUSH1 0x44 DUP3 ADD MSTORE PUSH1 0x64 ADD PUSH2 0x639 JUMP JUMPDEST DUP1 SLOAD PUSH1 0x0 SWAP1 DUP2 MSTORE PUSH1 0x7 PUSH1 0x20 MSTORE PUSH1 0x40 SWAP1 KECCAK256 PUSH1 0x1 SLOAD PUSH1 0x1 PUSH1 0x1 PUSH1 0xA0 SHL SUB AND CALLER EQ DUP1 PUSH2 0xCC8 JUMPI POP DUP1 SLOAD PUSH1 0x1 PUSH1 0x1 PUSH1 0xA0 SHL SUB AND CALLER EQ JUMPDEST PUSH2 0xD04 JUMPI PUSH1 0x40 MLOAD PUSH3 0x461BCD PUSH1 0xE5 SHL DUP2 MSTORE PUSH1 0x20 PUSH1 0x4 DUP3 ADD MSTORE PUSH1 0xD PUSH1 0x24 DUP3 ADD MSTORE PUSH13 0x3737BA103232B634BB32B932B9 PUSH1 0x99 SHL PUSH1 0x44 DUP3 ADD MSTORE PUSH1 0x64 ADD PUSH2 0x639 JUMP JUMPDEST DUP3 ISZERO DUP1 ISZERO SWAP1 PUSH2 0xD15 JUMPI POP PUSH2 0x1000 DUP4 GT ISZERO JUMPDEST PUSH2 0xD4F JUMPI PUSH1 0x40 MLOAD PUSH3 0x461BCD PUSH1 0xE5 SHL DUP2 MSTORE PUSH1 0x20 PUSH1 0x4 DUP3 ADD MSTORE PUSH1 0xB PUSH1 0x24 DUP3 ADD MSTORE PUSH11 0x189859081C185E5B1BD859 PUSH1 0xAA SHL PUSH1 0x44 DUP3 ADD MSTORE PUSH1 0x64 ADD PUSH2 0x639 JUMP JUMPDEST PUSH1 0x2 DUP3 ADD DUP1 SLOAD PUSH1 0x1 PUSH1 0x1 PUSH1 0x40 SHL SUB TIMESTAMP AND PUSH1 0x1 PUSH1 0xA0 SHL MUL PUSH9 0xFFFFFFFFFFFFFFFFFF PUSH1 0xA0 SHL NOT SWAP1 SWAP2 AND OR PUSH1 0x1 PUSH1 0xE1 SHL OR SWAP1 SSTORE PUSH1 0x40 MLOAD DUP6 SWAP1 PUSH32 0xE55808AB67EE6194BAB018125D65D17037751771F938CEA781D152389396D8E3 SWAP1 PUSH2 0xDB3 SWAP1 DUP8 SWAP1 DUP8 SWAP1 PUSH2 0x293A JUMP JUMPDEST PUSH1 0x40 MLOAD DUP1 SWAP2 SUB SWAP1 LOG2 POP POP POP POP POP JUMP JUMPDEST PUSH1 0x0 SLOAD PUSH1 0x1 PUSH1 0x1 PUSH1 0xA0 SHL SUB AND CALLER EQ PUSH2 0xE08 JUMPI PUSH1 0x40 MLOAD PUSH3 0x461BCD PUSH1 0xE5 SHL DUP2 MSTORE PUSH1 0x20 PUSH1 0x4 DUP3 ADD MSTORE PUSH1 0x9 PUSH1 0x24 DUP3 ADD MSTORE PUSH9 0x3737BA1037BBB732B9 PUSH1 0xB9 SHL PUSH1 0x44 DUP3 ADD MSTORE PUSH1 0x64 ADD PUSH2 0x639 JUMP JUMPDEST PUSH1 0xA SLOAD PUSH1 0xFF AND ISZERO PUSH2 0xE2B JUMPI PUSH1 0x40 MLOAD PUSH3 0x461BCD PUSH1 0xE5 SHL DUP2 MSTORE PUSH1 0x4 ADD PUSH2 0x639 SWAP1 PUSH2 0x27CB JUMP JUMPDEST PUSH1 0xA DUP1 SLOAD PUSH1 0xFF NOT AND PUSH1 0x1 OR SWAP1 SSTORE PUSH1 0x4 DUP1 SLOAD PUSH1 0x0 SWAP1 SWAP2 SSTORE PUSH2 0xE4B DUP3 DUP3 PUSH2 0x2211 JUMP JUMPDEST POP POP PUSH1 0xA DUP1 SLOAD PUSH1 0xFF NOT AND SWAP1 SSTORE JUMP JUMPDEST PUSH1 0x1 PUSH1 0x1 PUSH1 0xA0 SHL SUB DUP2 AND PUSH1 0x0 SWAP1 DUP2 MSTORE PUSH1 0x9 PUSH1 0x20 MSTORE PUSH1 0x40 DUP2 KECCAK256 DUP1 SLOAD DUP3 SWAP1 PUSH2 0xE90 SWAP1 PUSH1 0x1 PUSH1 0x40 SHL SWAP1 DIV PUSH1 0x1 PUSH1 0x1 PUSH1 0x40 SHL SUB AND PUSH1 0x5 PUSH2 0x2872 JUMP JUMPDEST DUP3 SLOAD PUSH2 0xEA6 SWAP1 PUSH1 0x1 PUSH1 0x1 PUSH1 0x40 SHL SUB AND PUSH1 0xA PUSH2 0x2872 JUMP JUMPDEST PUSH2 0xEB0 SWAP2 SWAP1 PUSH2 0x28B1 JUMP JUMPDEST DUP3 SLOAD SWAP1 SWAP2 POP PUSH1 0x0 SWAP1 PUSH2 0xED3 SWAP1 PUSH1 0x1 PUSH1 0x80 SHL SWAP1 DIV PUSH1 0x1 PUSH1 0x1 PUSH1 0x40 SHL SUB AND PUSH1 0x28 PUSH2 0x2872 JUMP JUMPDEST SWAP1 POP DUP1 DUP3 GT PUSH2 0xEE3 JUMPI PUSH1 0x0 PUSH2 0xEED JUMP JUMPDEST PUSH2 0xEED DUP2 DUP4 PUSH2 0x28C4 JUMP JUMPDEST SWAP6 SWAP5 POP POP POP POP POP JUMP JUMPDEST PUSH1 0x0 DUP4 DUP2 MSTORE PUSH1 0x8 PUSH1 0x20 MSTORE PUSH1 0x40 SWAP1 KECCAK256 PUSH1 0x1 DUP2 ADD SLOAD PUSH1 0x1 PUSH1 0x1 PUSH1 0xA0 SHL SUB AND CALLER EQ PUSH2 0xF4C JUMPI PUSH1 0x40 MLOAD PUSH3 0x461BCD PUSH1 0xE5 SHL DUP2 MSTORE PUSH1 0x20 PUSH1 0x4 DUP3 ADD MSTORE PUSH1 0x9 PUSH1 0x24 DUP3 ADD MSTORE PUSH9 0x3737BA10313ABCB2B9 PUSH1 0xB9 SHL PUSH1 0x44 DUP3 ADD MSTORE PUSH1 0x64 ADD PUSH2 0x639 JUMP JUMPDEST PUSH1 0x2 DUP1 DUP3 ADD SLOAD PUSH1 0x1 PUSH1 0xE0 SHL SWAP1 DIV PUSH1 0xFF AND PUSH1 0x6 DUP2 GT ISZERO PUSH2 0xF6D JUMPI PUSH2 0xF6D PUSH2 0x2579 JUMP JUMPDEST EQ PUSH2 0xFB0 JUMPI PUSH1 0x40 MLOAD PUSH3 0x461BCD PUSH1 0xE5 SHL DUP2 MSTORE PUSH1 0x20 PUSH1 0x4 DUP3 ADD MSTORE PUSH1 0x13 PUSH1 0x24 DUP3 ADD MSTORE PUSH19 0x6E6F742064656C697665726564207374617465 PUSH1 0x68 SHL PUSH1 0x44 DUP3 ADD MSTORE PUSH1 0x64 ADD PUSH2 0x639 JUMP JUMPDEST PUSH1 0x3 SLOAD PUSH1 0x2 DUP3 ADD SLOAD PUSH2 0xFD5 SWAP2 PUSH1 0x1 PUSH1 0x1 PUSH1 0x40 SHL SUB SWAP1 DUP2 AND SWAP2 PUSH1 0x1 PUSH1 0xA0 SHL SWAP1 DIV AND PUSH2 0x2805 JUMP JUMPDEST PUSH1 0x1 PUSH1 0x1 PUSH1 0x40 SHL SUB AND TIMESTAMP GT ISZERO PUSH2 0x101D JUMPI PUSH1 0x40 MLOAD PUSH3 0x461BCD PUSH1 0xE5 SHL DUP2 MSTORE PUSH1 0x20 PUSH1 0x4 DUP3 ADD MSTORE PUSH1 0xD PUSH1 0x24 DUP3 ADD MSTORE PUSH13 0x1DDA5B991BDDC818DB1BDCD959 PUSH1 0x9A SHL PUSH1 0x44 DUP3 ADD MSTORE PUSH1 0x64 ADD PUSH2 0x639 JUMP JUMPDEST DUP2 ISZERO DUP1 ISZERO SWAP1 PUSH2 0x102E JUMPI POP PUSH2 0x7D0 DUP3 GT ISZERO JUMPDEST PUSH2 0x1067 JUMPI PUSH1 0x40 MLOAD PUSH3 0x461BCD PUSH1 0xE5 SHL DUP2 MSTORE PUSH1 0x20 PUSH1 0x4 DUP3 ADD MSTORE PUSH1 0xA PUSH1 0x24 DUP3 ADD MSTORE PUSH10 0x3130B2103932B0B9B7B7 PUSH1 0xB1 SHL PUSH1 0x44 DUP3 ADD MSTORE PUSH1 0x64 ADD PUSH2 0x639 JUMP JUMPDEST PUSH1 0x3 SLOAD PUSH1 0x1 DUP3 ADD SLOAD PUSH1 0x0 SWAP2 PUSH2 0x2710 SWAP2 PUSH2 0x109B SWAP2 PUSH1 0x1 PUSH1 0x40 SHL SWAP1 DIV PUSH2 0xFFFF AND SWAP1 PUSH1 0x1 PUSH1 0xA0 SHL SWAP1 DIV PUSH1 0x1 PUSH1 0x1 PUSH1 0x60 SHL SUB AND PUSH2 0x2872 JUMP JUMPDEST PUSH2 0x10A5 SWAP2 SWAP1 PUSH2 0x288F JUMP JUMPDEST SWAP1 POP DUP1 CALLVALUE EQ PUSH2 0x10E4 JUMPI PUSH1 0x40 MLOAD PUSH3 0x461BCD PUSH1 0xE5 SHL DUP2 MSTORE PUSH1 0x20 PUSH1 0x4 DUP3 ADD MSTORE PUSH1 0xB PUSH1 0x24 DUP3 ADD MSTORE PUSH11 0x77726F6E67207374616B65 PUSH1 0xA8 SHL PUSH1 0x44 DUP3 ADD MSTORE PUSH1 0x64 ADD PUSH2 0x639 JUMP JUMPDEST PUSH1 0x2 DUP3 ADD DUP1 SLOAD PUSH1 0x1 PUSH1 0x1 PUSH1 0x60 SHL SUB DUP4 AND PUSH32 0xFFFFFF00FFFFFFFFFFFFFFFFFFFFFFFFFFFFFFFF000000000000000000000000 SWAP1 SWAP2 AND OR PUSH1 0x3 PUSH1 0xE0 SHL OR SWAP1 SSTORE PUSH1 0x40 MLOAD CALLER SWAP1 DUP7 SWAP1 PUSH32 0x9B58AFA035C5FA58F85C5A54B65BD3562D5AA7679E973BC1404FE25E8BABAB21 SWAP1 PUSH2 0x1157 SWAP1 DUP9 SWAP1 DUP9 SWAP1 PUSH2 0x293A JUMP JUMPDEST PUSH1 0x40 MLOAD DUP1 SWAP2 SUB SWAP1 LOG3 POP POP POP POP POP JUMP JUMPDEST PUSH1 0x0 DUP3 DUP2 MSTORE PUSH1 0x7 PUSH1 0x20 MSTORE PUSH1 0x40 SWAP1 KECCAK256 DUP1 SLOAD PUSH1 0x1 PUSH1 0x1 PUSH1 0xA0 SHL SUB AND CALLER EQ PUSH2 0x11BA JUMPI PUSH1 0x40 MLOAD PUSH3 0x461BCD PUSH1 0xE5 SHL DUP2 MSTORE PUSH1 0x20 PUSH1 0x4 DUP3 ADD MSTORE PUSH1 0xA PUSH1 0x24 DUP3 ADD MSTORE PUSH10 0x3737BA1039B2B63632B9 PUSH1 0xB1 SHL PUSH1 0x44 DUP3 ADD MSTORE PUSH1 0x64 ADD PUSH2 0x639 JUMP JUMPDEST PUSH1 0x1 DUP2 ADD DUP1 SLOAD PUSH1 0xFF NOT AND DUP4 ISZERO ISZERO SWAP1 DUP2 OR SWAP1 SWAP2 SSTORE PUSH1 0x40 MLOAD SWAP1 DUP2 MSTORE DUP4 SWAP1 PUSH32 0x92693567BC88F088E150FCC712A4351EDBFA93E37DF9D8833C8E4FA177DD2352 SWAP1 PUSH1 0x20 ADD PUSH1 0x40 MLOAD DUP1 SWAP2 SUB SWAP1 LOG2 POP POP POP JUMP JUMPDEST PUSH1 0x0 DUP1 DUP5 PUSH1 0x1 PUSH1 0x1 PUSH1 0x60 SHL SUB AND GT PUSH2 0x124B JUMPI PUSH1 0x40 MLOAD PUSH3 0x461BCD PUSH1 0xE5 SHL DUP2 MSTORE PUSH1 0x20 PUSH1 0x4 DUP3 ADD MSTORE PUSH1 0x7 PUSH1 0x24 DUP3 ADD MSTORE PUSH7 0x70726963653D3 PUSH1 0xCC SHL PUSH1 0x44 DUP3 ADD MSTORE PUSH1 0x64 ADD PUSH2 0x639 JUMP JUMPDEST DUP7 ISZERO DUP1 ISZERO SWAP1 PUSH2 0x125B JUMPI POP PUSH1 0x64 DUP8 GT ISZERO JUMPDEST PUSH2 0x1293 JUMPI PUSH1 0x40 MLOAD PUSH3 0x461BCD PUSH1 0xE5 SHL DUP2 MSTORE PUSH1 0x20 PUSH1 0x4 DUP3 ADD MSTORE PUSH1 0x9 PUSH1 0x24 DUP3 ADD MSTORE PUSH9 0x626164207469746C65 PUSH1 0xB8 SHL PUSH1 0x44 DUP3 ADD MSTORE PUSH1 0x64 ADD PUSH2 0x639 JUMP JUMPDEST DUP5 ISZERO DUP1 ISZERO SWAP1 PUSH2 0x12A4 JUMPI POP PUSH2 0x7D0 DUP6 GT ISZERO JUMPDEST PUSH2 0x12E2 JUMPI PUSH1 0x40 MLOAD PUSH3 0x461BCD PUSH1 0xE5 SHL DUP2 MSTORE PUSH1 0x20 PUSH1 0x4 DUP3 ADD MSTORE PUSH1 0xF PUSH1 0x24 DUP3 ADD MSTORE PUSH15 0x3130B2103232B9B1B934B83A34B7B7 PUSH1 0x89 SHL PUSH1 0x44 DUP3 ADD MSTORE PUSH1 0x64 ADD PUSH2 0x639 JUMP JUMPDEST DUP2 ISZERO DUP1 ISZERO SWAP1 PUSH2 0x12F3 JUMPI POP PUSH2 0x1000 DUP3 GT ISZERO JUMPDEST PUSH2 0x132C JUMPI PUSH1 0x40 MLOAD PUSH3 0x461BCD PUSH1 0xE5 SHL DUP2 MSTORE PUSH1 0x20 PUSH1 0x4 DUP3 ADD MSTORE PUSH1 0xA PUSH1 0x24 DUP3 ADD MSTORE PUSH10 0x189859081CD958DC995D PUSH1 0xB2 SHL PUSH1 0x44 DUP3 ADD MSTORE PUSH1 0x64 ADD PUSH2 0x639 JUMP JUMPDEST PUSH1 0x5 DUP1 SLOAD SWAP1 PUSH1 0x0 PUSH2 0x133C DUP4 PUSH2 0x2956 JUMP JUMPDEST SWAP2 SWAP1 POP SSTORE SWAP1 POP PUSH1 0x40 MLOAD DUP1 PUSH1 0xE0 ADD PUSH1 0x40 MSTORE DUP1 CALLER PUSH1 0x1 PUSH1 0x1 PUSH1 0xA0 SHL SUB AND DUP2 MSTORE PUSH1 0x20 ADD DUP6 PUSH1 0x1 PUSH1 0x1 PUSH1 0x60 SHL SUB AND DUP2 MSTORE PUSH1 0x20 ADD PUSH1 0x1 ISZERO ISZERO DUP2 MSTORE PUSH1 0x20 ADD PUSH1 0x0 PUSH1 0x1 PUSH1 0x1 PUSH1 0x40 SHL SUB AND DUP2 MSTORE PUSH1 0x20 ADD DUP10 DUP10 DUP1 DUP1 PUSH1 0x1F ADD PUSH1 0x20 DUP1 SWAP2 DIV MUL PUSH1 0x20 ADD PUSH1 0x40 MLOAD SWAP1 DUP2 ADD PUSH1 0x40 MSTORE DUP1 SWAP4 SWAP3 SWAP2 SWAP1 DUP2 DUP2 MSTORE PUSH1 0x20 ADD DUP4 DUP4 DUP1 DUP3 DUP5 CALLDATACOPY PUSH1 0x0 SWAP3 ADD SWAP2 SWAP1 SWAP2 MSTORE POP POP POP SWAP1 DUP3 MSTORE POP PUSH1 0x40 DUP1 MLOAD PUSH1 0x20 PUSH1 0x1F DUP11 ADD DUP2 SWAP1 DIV DUP2 MUL DUP3 ADD DUP2 ADD SWAP1 SWAP3 MSTORE DUP9 DUP2 MSTORE SWAP2 DUP2 ADD SWAP2 SWAP1 DUP10 SWAP1 DUP10 SWAP1 DUP2 SWAP1 DUP5 ADD DUP4 DUP3 DUP1 DUP3 DUP5 CALLDATACOPY PUSH1 0x0 SWAP3 ADD SWAP2 SWAP1 SWAP2 MSTORE POP POP POP SWAP1 DUP3 MSTORE POP PUSH1 0x40 DUP1 MLOAD PUSH1 0x20 PUSH1 0x1F DUP8 ADD DUP2 SWAP1 DIV DUP2 MUL DUP3 ADD DUP2 ADD SWAP1 SWAP3 MSTORE DUP6 DUP2 MSTORE SWAP2 DUP2 ADD SWAP2 SWAP1 DUP7 SWAP1 DUP7 SWAP1 DUP2 SWAP1 DUP5 ADD DUP4 DUP3 DUP1 DUP3 DUP5 CALLDATACOPY PUSH1 0x0 SWAP3 ADD DUP3 SWAP1 MSTORE POP SWAP4 SWAP1 SWAP5 MSTORE POP POP DUP4 DUP2 MSTORE PUSH1 0x7 PUSH1 0x20 SWAP1 DUP2 MSTORE PUSH1 0x40 SWAP2 DUP3 SWAP1 KECCAK256 DUP5 MLOAD SWAP2 DUP6 ADD MLOAD PUSH1 0x1 PUSH1 0x1 PUSH1 0x60 SHL SUB AND PUSH1 0x1 PUSH1 0xA0 SHL MUL PUSH1 0x1 PUSH1 0x1 PUSH1 0xA0 SHL SUB SWAP1 SWAP3 AND SWAP2 SWAP1 SWAP2 OR DUP2 SSTORE SWAP1 DUP4 ADD MLOAD PUSH1 0x1 DUP3 ADD DUP1 SLOAD PUSH1 0x60 DUP7 ADD MLOAD PUSH1 0x1 PUSH1 0x1 PUSH1 0x40 SHL SUB AND PUSH2 0x100 MUL PUSH9 0xFFFFFFFFFFFFFFFF00 NOT SWAP4 ISZERO ISZERO SWAP4 SWAP1 SWAP4 AND PUSH9 0xFFFFFFFFFFFFFFFFFF NOT SWAP1 SWAP2 AND OR SWAP2 SWAP1 SWAP2 OR SWAP1 SSTORE PUSH1 0x80 DUP4 ADD MLOAD SWAP1 SWAP2 POP PUSH1 0x2 DUP3 ADD SWAP1 PUSH2 0x14C2 SWAP1 DUP3 PUSH2 0x29D5 JUMP JUMPDEST POP PUSH1 0xA0 DUP3 ADD MLOAD PUSH1 0x3 DUP3 ADD SWAP1 PUSH2 0x14D7 SWAP1 DUP3 PUSH2 0x29D5 JUMP JUMPDEST POP PUSH1 0xC0 DUP3 ADD MLOAD PUSH1 0x4 DUP3 ADD SWAP1 PUSH2 0x14EC SWAP1 DUP3 PUSH2 0x29D5 JUMP JUMPDEST POP SWAP1 POP POP CALLER PUSH1 0x1 PUSH1 0x1 PUSH1 0xA0 SHL SUB AND DUP2 PUSH32 0xA490EA95B20302D0B594B4A9F965011ABD72192513422AE4B5ACDC910633612E DUP7 DUP12 DUP12 PUSH1 0x40 MLOAD PUSH2 0x152E SWAP4 SWAP3 SWAP2 SWAP1 PUSH2 0x2A94 JUMP JUMPDEST PUSH1 0x40 MLOAD DUP1 SWAP2 SUB SWAP1 LOG3 SWAP8 SWAP7 POP POP POP POP POP POP POP JUMP JUMPDEST PUSH1 0xA SLOAD PUSH1 0xFF AND ISZERO PUSH2 0x1564 JUMPI PUSH1 0x40 MLOAD PUSH3 0x461BCD PUSH1 0xE5 SHL DUP2 MSTORE PUSH1 0x4 ADD PUSH2 0x639 SWAP1 PUSH2 0x27CB JUMP JUMPDEST PUSH1 0xA DUP1 SLOAD PUSH1 0xFF NOT AND PUSH1 0x1 SWAP1 DUP2 OR SWAP1 SWAP2 SSTORE PUSH1 0x0 DUP3 DUP2 MSTORE PUSH1 0x8 PUSH1 0x20 MSTORE PUSH1 0x40 SWAP1 KECCAK256 SWAP1 DUP2 ADD SLOAD PUSH1 0x1 PUSH1 0x1 PUSH1 0xA0 SHL SUB AND CALLER EQ PUSH2 0x15C9 JUMPI PUSH1 0x40 MLOAD PUSH3 0x461BCD PUSH1 0xE5 SHL DUP2 MSTORE PUSH1 0x20 PUSH1 0x4 DUP3 ADD MSTORE PUSH1 0x9 PUSH1 0x24 DUP3 ADD MSTORE PUSH9 0x3737BA10313ABCB2B9 PUSH1 0xB9 SHL PUSH1 0x44 DUP3 ADD MSTORE PUSH1 0x64 ADD PUSH2 0x639 JUMP JUMPDEST PUSH1 0x1 PUSH1 0x2 DUP3 ADD SLOAD PUSH1 0x1 PUSH1 0xE0 SHL SWAP1 DIV PUSH1 0xFF AND PUSH1 0x6 DUP2 GT ISZERO PUSH2 0x15EB JUMPI PUSH2 0x15EB PUSH2 0x2579 JUMP JUMPDEST EQ PUSH2 0x1629 JUMPI PUSH1 0x40 MLOAD PUSH3 0x461BCD PUSH1 0xE5 SHL DUP2 MSTORE PUSH1 0x20 PUSH1 0x4 DUP3 ADD MSTORE PUSH1 0xE PUSH1 0x24 DUP3 ADD MSTORE PUSH14 0x6E6F7420726566756E6461626C65 PUSH1 0x90 SHL PUSH1 0x44 DUP3 ADD MSTORE PUSH1 0x64 ADD PUSH2 0x639 JUMP JUMPDEST PUSH1 0x2 DUP1 SLOAD SWAP1 DUP3 ADD SLOAD PUSH2 0x1655 SWAP2 PUSH1 0x1 PUSH1 0x1 PUSH1 0x40 SHL SUB PUSH1 0x1 PUSH1 0xA0 SHL SWAP1 SWAP2 DIV DUP2 AND SWAP2 PUSH1 0x1 PUSH1 0x60 SHL SWAP1 DIV AND PUSH2 0x2805 JUMP JUMPDEST PUSH1 0x1 PUSH1 0x1 PUSH1 0x40 SHL SUB AND TIMESTAMP GT PUSH2 0x1698 JUMPI PUSH1 0x40 MLOAD PUSH3 0x461BCD PUSH1 0xE5 SHL DUP2 MSTORE PUSH1 0x20 PUSH1 0x4 DUP3 ADD MSTORE PUSH1 0x9 PUSH1 0x24 DUP3 ADD MSTORE PUSH9 0x746F6F206561726C79 PUSH1 0xB8 SHL PUSH1 0x44 DUP3 ADD MSTORE PUSH1 0x64 ADD PUSH2 0x639 JUMP JUMPDEST PUSH1 0x2 DUP2 ADD DUP1 SLOAD PUSH1 0xFF PUSH1 0xE0 SHL NOT AND PUSH1 0x5 PUSH1 0xE0 SHL OR SWAP1 SSTORE PUSH1 0x1 DUP2 ADD SLOAD PUSH2 0x16D6 SWAP1 PUSH1 0x1 PUSH1 0x1 PUSH1 0xA0 SHL SUB DUP2 AND SWAP1 PUSH1 0x1 PUSH1 0xA0 SHL SWAP1 DIV PUSH1 0x1 PUSH1 0x1 PUSH1 0x60 SHL SUB AND PUSH2 0x2211 JUMP JUMPDEST PUSH1 0x40 MLOAD DUP3 SWAP1 PUSH32 0xC118564863BC4BC4615080294149317D0199C54D04E6CCC10DE28A41CF9807C6 SWAP1 PUSH1 0x0 SWAP1 LOG2 POP POP PUSH1 0xA DUP1 SLOAD PUSH1 0xFF NOT AND SWAP1 SSTORE JUMP JUMPDEST PUSH1 0x0 SLOAD PUSH1 0x1 PUSH1 0x1 PUSH1 0xA0 SHL SUB AND CALLER EQ PUSH2 0x1755 JUMPI PUSH1 0x40 MLOAD PUSH3 0x461BCD PUSH1 0xE5 SHL DUP2 MSTORE PUSH1 0x20 PUSH1 0x4 DUP3 ADD MSTORE PUSH1 0x9 PUSH1 0x24 DUP3 ADD MSTORE PUSH9 0x3737BA1037BBB732B9 PUSH1 0xB9 SHL PUSH1 0x44 DUP3 ADD MSTORE PUSH1 0x64 ADD PUSH2 0x639 JUMP JUMPDEST PUSH1 0x1 DUP1 SLOAD PUSH1 0x1 PUSH1 0x1 PUSH1 0xA0 SHL SUB SWAP4 DUP5 AND PUSH1 0x1 PUSH1 0x1 PUSH1 0xA0 SHL SUB NOT SWAP2 DUP3 AND OR SWAP1 SWAP2 SSTORE PUSH1 0x2 DUP1 SLOAD SWAP3 SWAP1 SWAP4 AND SWAP2 AND OR SWAP1 SSTORE JUMP JUMPDEST PUSH1 0xA SLOAD PUSH1 0xFF AND ISZERO PUSH2 0x17A6 JUMPI PUSH1 0x40 MLOAD PUSH3 0x461BCD PUSH1 0xE5 SHL DUP2 MSTORE PUSH1 0x4 ADD PUSH2 0x639 SWAP1 PUSH2 0x27CB JUMP JUMPDEST PUSH1 0xA DUP1 SLOAD PUSH1 0xFF NOT AND PUSH1 0x1 OR SWAP1 SSTORE PUSH1 0x2 SLOAD CALLER PUSH1 0x1 PUSH1 0x1 PUSH1 0xA0 SHL SUB SWAP1 SWAP2 AND EQ PUSH2 0x17FD JUMPI PUSH1 0x40 MLOAD PUSH3 0x461BCD PUSH1 0xE5 SHL DUP2 MSTORE PUSH1 0x20 PUSH1 0x4 DUP3 ADD MSTORE PUSH1 0xB PUSH1 0x24 DUP3 ADD MSTORE PUSH11 0x3737BA1030B93134BA32B9 PUSH1 0xA9 SHL PUSH1 0x44 DUP3 ADD MSTORE PUSH1 0x64 ADD PUSH2 0x639 JUMP JUMPDEST PUSH1 0x0 DUP5 DUP2 MSTORE PUSH1 0x8 PUSH1 0x20 MSTORE PUSH1 0x40 SWAP1 KECCAK256 PUSH1 0x3 PUSH1 0x2 DUP3 ADD SLOAD PUSH1 0x1 PUSH1 0xE0 SHL SWAP1 DIV PUSH1 0xFF AND PUSH1 0x6 DUP2 GT ISZERO PUSH2 0x182D JUMPI PUSH2 0x182D PUSH2 0x2579 JUMP JUMPDEST EQ PUSH2 0x1869 JUMPI PUSH1 0x40 MLOAD PUSH3 0x461BCD PUSH1 0xE5 SHL DUP2 MSTORE PUSH1 0x20 PUSH1 0x4 DUP3 ADD MSTORE PUSH1 0xC PUSH1 0x24 DUP3 ADD MSTORE PUSH12 0x1B9BDD08191A5CDC1D5D1959 PUSH1 0xA2 SHL PUSH1 0x44 DUP3 ADD MSTORE PUSH1 0x64 ADD PUSH2 0x639 JUMP JUMPDEST PUSH1 0x0 DUP5 PUSH1 0x3 DUP2 GT ISZERO PUSH2 0x187D JUMPI PUSH2 0x187D PUSH2 0x2579 JUMP JUMPDEST SUB PUSH2 0x18B8 JUMPI PUSH1 0x40 MLOAD PUSH3 0x461BCD PUSH1 0xE5 SHL DUP2 MSTORE PUSH1 0x20 PUSH1 0x4 DUP3 ADD MSTORE PUSH1 0xB PUSH1 0x24 DUP3 ADD MSTORE PUSH11 0x189859081D995C991A58DD PUSH1 0xAA SHL PUSH1 0x44 DUP3 ADD MSTORE PUSH1 0x64 ADD PUSH2 0x639 JUMP JUMPDEST DUP1 SLOAD PUSH1 0x0 SWAP1 DUP2 MSTORE PUSH1 0x7 PUSH1 0x20 SWAP1 DUP2 MSTORE PUSH1 0x40 DUP1 DUP4 KECCAK256 DUP1 SLOAD PUSH1 0x1 PUSH1 0x1 PUSH1 0xA0 SHL SUB AND DUP5 MSTORE PUSH1 0x9 SWAP1 SWAP3 MSTORE SWAP1 SWAP2 KECCAK256 PUSH1 0x2 DUP4 ADD DUP1 SLOAD PUSH1 0xFF PUSH1 0xE0 SHL NOT AND PUSH1 0x3 PUSH1 0xE1 SHL OR SWAP1 SSTORE PUSH1 0x1 DUP7 PUSH1 0x3 DUP2 GT ISZERO PUSH2 0x1909 JUMPI PUSH2 0x1909 PUSH2 0x2579 JUMP JUMPDEST SUB PUSH2 0x198B JUMPI DUP1 SLOAD PUSH1 0x1 PUSH1 0x80 SHL SWAP1 DIV PUSH1 0x1 PUSH1 0x1 PUSH1 0x40 SHL SUB AND DUP2 PUSH1 0x10 PUSH2 0x192C DUP4 PUSH2 0x282C JUMP JUMPDEST DUP3 SLOAD PUSH1 0x1 PUSH1 0x1 PUSH1 0x40 SHL SUB SWAP2 DUP3 AND PUSH2 0x100 SWAP4 SWAP1 SWAP4 EXP SWAP3 DUP4 MUL SWAP2 SWAP1 SWAP3 MUL NOT SWAP1 SWAP2 AND OR SWAP1 SSTORE POP PUSH1 0x1 DUP4 ADD SLOAD PUSH1 0x2 DUP5 ADD SLOAD PUSH2 0x1986 SWAP2 PUSH1 0x1 PUSH1 0x1 PUSH1 0xA0 SHL SUB DUP2 AND SWAP2 PUSH2 0x8BF SWAP2 PUSH1 0x1 PUSH1 0x1 PUSH1 0x60 SHL SUB SWAP2 DUP3 AND SWAP2 PUSH1 0x1 PUSH1 0xA0 SHL SWAP1 SWAP2 DIV AND PUSH2 0x28B1 JUMP JUMPDEST PUSH2 0x1B95 JUMP JUMPDEST PUSH1 0x2 DUP7 PUSH1 0x3 DUP2 GT ISZERO PUSH2 0x199F JUMPI PUSH2 0x199F PUSH2 0x2579 JUMP JUMPDEST SUB PUSH2 0x1B0F JUMPI DUP1 SLOAD PUSH1 0x1 PUSH1 0x40 SHL SWAP1 DIV PUSH1 0x1 PUSH1 0x1 PUSH1 0x40 SHL SUB AND DUP2 PUSH1 0x8 PUSH2 0x19C2 DUP4 PUSH2 0x282C JUMP JUMPDEST DUP3 SLOAD PUSH2 0x100 SWAP3 SWAP1 SWAP3 EXP PUSH1 0x1 PUSH1 0x1 PUSH1 0x40 SHL SUB DUP2 DUP2 MUL NOT SWAP1 SWAP4 AND SWAP2 DUP4 AND MUL OR SWAP1 SWAP2 SSTORE DUP3 SLOAD AND SWAP1 POP DUP2 PUSH1 0x0 PUSH2 0x19F3 DUP4 PUSH2 0x282C JUMP JUMPDEST DUP3 SLOAD PUSH2 0x100 SWAP3 SWAP1 SWAP3 EXP PUSH1 0x1 PUSH1 0x1 PUSH1 0x40 SHL SUB DUP2 DUP2 MUL NOT SWAP1 SWAP4 AND SWAP2 SWAP1 SWAP3 AND SWAP2 SWAP1 SWAP2 MUL OR SWAP1 SSTORE POP PUSH1 0x1 DUP4 DUP2 ADD SLOAD SWAP1 DUP3 ADD DUP1 SLOAD PUSH1 0x1 PUSH1 0xA0 SHL SWAP1 SWAP3 DIV PUSH1 0x1 PUSH1 0x1 PUSH1 0x60 SHL SUB AND SWAP2 PUSH1 0x0 SWAP1 PUSH2 0x1A4B SWAP1 DUP5 SWAP1 PUSH1 0x1 PUSH1 0x1 PUSH1 0x80 SHL SUB AND PUSH2 0x2852 JUMP JUMPDEST DUP3 SLOAD PUSH2 0x100 SWAP3 SWAP1 SWAP3 EXP PUSH1 0x1 PUSH1 0x1 PUSH1 0x80 SHL SUB DUP2 DUP2 MUL NOT SWAP1 SWAP4 AND SWAP2 SWAP1 SWAP3 AND SWAP2 SWAP1 SWAP2 MUL OR SWAP1 SSTORE POP PUSH1 0x3 SLOAD PUSH1 0x1 DUP5 ADD SLOAD PUSH1 0x0 SWAP2 PUSH2 0x2710 SWAP2 PUSH2 0x1AA3 SWAP2 PUSH1 0x1 PUSH1 0x50 SHL SWAP1 DIV PUSH2 0xFFFF AND SWAP1 PUSH1 0x1 PUSH1 0xA0 SHL SWAP1 DIV PUSH1 0x1 PUSH1 0x1 PUSH1 0x60 SHL SUB AND PUSH2 0x2872 JUMP JUMPDEST PUSH2 0x1AAD SWAP2 SWAP1 PUSH2 0x288F JUMP JUMPDEST SWAP1 POP DUP1 PUSH1 0x4 PUSH1 0x0 DUP3 DUP3 SLOAD PUSH2 0x1AC1 SWAP2 SWAP1 PUSH2 0x28B1 JUMP JUMPDEST SWAP1 SWAP2 SSTORE POP POP DUP3 SLOAD PUSH1 0x2 DUP6 ADD SLOAD PUSH1 0x1 DUP7 ADD SLOAD PUSH2 0x1B09 SWAP3 PUSH1 0x1 PUSH1 0x1 PUSH1 0xA0 SHL SUB AND SWAP2 PUSH1 0x1 PUSH1 0x1 PUSH1 0x60 SHL SUB SWAP1 DUP2 AND SWAP2 PUSH2 0x1AFF SWAP2 DUP7 SWAP2 PUSH1 0x1 PUSH1 0xA0 SHL SWAP1 DIV AND PUSH2 0x28C4 JUMP JUMPDEST PUSH2 0x8BF SWAP2 SWAP1 PUSH2 0x28B1 JUMP JUMPDEST POP PUSH2 0x1B95 JUMP JUMPDEST PUSH1 0x1 DUP4 ADD SLOAD PUSH1 0x0 SWAP1 PUSH2 0x1B33 SWAP1 PUSH1 0x2 SWAP1 PUSH1 0x1 PUSH1 0xA0 SHL SWAP1 DIV PUSH1 0x1 PUSH1 0x1 PUSH1 0x60 SHL SUB AND PUSH2 0x288F JUMP JUMPDEST PUSH1 0x1 DUP6 ADD SLOAD PUSH1 0x2 DUP7 ADD SLOAD SWAP2 SWAP3 POP PUSH2 0x1B63 SWAP2 PUSH1 0x1 PUSH1 0x1 PUSH1 0xA0 SHL SUB SWAP1 SWAP2 AND SWAP1 PUSH2 0x8BF SWAP1 PUSH1 0x1 PUSH1 0x1 PUSH1 0x60 SHL SUB AND DUP5 PUSH2 0x28B1 JUMP JUMPDEST DUP3 SLOAD PUSH1 0x1 DUP6 ADD SLOAD PUSH2 0x1B93 SWAP2 PUSH1 0x1 PUSH1 0x1 PUSH1 0xA0 SHL SUB AND SWAP1 PUSH2 0x8BF SWAP1 DUP5 SWAP1 PUSH1 0x1 PUSH1 0xA0 SHL SWAP1 DIV PUSH1 0x1 PUSH1 0x1 PUSH1 0x60 SHL SUB AND PUSH2 0x28C4 JUMP JUMPDEST POP JUMPDEST DUP7 PUSH32 0xC204352FAD7E46251E09CE83E05533737044B65128EB8926AAC1969FBE2BE267 DUP8 DUP8 DUP8 PUSH1 0x40 MLOAD PUSH2 0x1BC9 SWAP4 SWAP3 SWAP2 SWAP1 PUSH2 0x2AB7 JUMP JUMPDEST PUSH1 0x40 MLOAD DUP1 SWAP2 SUB SWAP1 LOG2 DUP2 SLOAD DUP2 SLOAD PUSH1 0x40 DUP1 MLOAD PUSH1 0x1 PUSH1 0x1 PUSH1 0x40 SHL SUB DUP1 DUP5 AND DUP3 MSTORE PUSH1 0x1 PUSH1 0x40 SHL DUP5 DIV DUP2 AND PUSH1 0x20 DUP4 ADD MSTORE PUSH1 0x1 PUSH1 0x80 SHL SWAP1 SWAP4 DIV SWAP1 SWAP3 AND DUP3 DUP3 ADD MSTORE MLOAD PUSH1 0x1 PUSH1 0x1 PUSH1 0xA0 SHL SUB SWAP1 SWAP3 AND SWAP2 PUSH32 0xC61210DACB3A6183D55F6567A264442C0C723BD97EC41717DFB307273701BE95 SWAP2 DUP2 SWAP1 SUB PUSH1 0x60 ADD SWAP1 LOG2 POP POP PUSH1 0xA DUP1 SLOAD PUSH1 0xFF NOT AND SWAP1 SSTORE POP POP POP POP POP JUMP JUMPDEST PUSH1 0x40 DUP1 MLOAD PUSH2 0x100 DUP2 ADD DUP3 MSTORE PUSH1 0x0 DUP1 DUP3 MSTORE PUSH1 0x20 DUP3 ADD DUP2 SWAP1 MSTORE SWAP2 DUP2 ADD DUP3 SWAP1 MSTORE PUSH1 0x60 DUP2 ADD DUP3 SWAP1 MSTORE PUSH1 0x80 DUP2 ADD DUP3 SWAP1 MSTORE PUSH1 0xA0 DUP2 ADD DUP3 SWAP1 MSTORE PUSH1 0xC0 DUP2 ADD DUP3 SWAP1 MSTORE PUSH1 0xE0 DUP2 ADD SWAP2 SWAP1 SWAP2 MSTORE PUSH1 0x0 DUP3 DUP2 MSTORE PUSH1 0x8 PUSH1 0x20 SWAP1 DUP2 MSTORE PUSH1 0x40 SWAP2 DUP3 SWAP1 KECCAK256 DUP3 MLOAD PUSH2 0x100 DUP2 ADD DUP5 MSTORE DUP2 SLOAD DUP2 MSTORE PUSH1 0x1 DUP3 ADD SLOAD PUSH1 0x1 PUSH1 0x1 PUSH1 0xA0 SHL SUB DUP2 AND SWAP4 DUP3 ADD SWAP4 SWAP1 SWAP4 MSTORE PUSH1 0x1 PUSH1 0x1 PUSH1 0x60 SHL SUB PUSH1 0x1 PUSH1 0xA0 SHL SWAP4 DUP5 SWAP1 DIV DUP2 AND SWAP5 DUP3 ADD SWAP5 SWAP1 SWAP5 MSTORE PUSH1 0x2 DUP3 ADD SLOAD SWAP4 DUP5 AND PUSH1 0x60 DUP3 ADD MSTORE PUSH1 0x1 PUSH1 0x1 PUSH1 0x40 SHL SUB PUSH1 0x1 PUSH1 0x60 SHL DUP6 DIV DUP2 AND PUSH1 0x80 DUP4 ADD MSTORE SWAP3 DUP5 DIV SWAP1 SWAP3 AND PUSH1 0xA0 DUP4 ADD MSTORE SWAP1 SWAP2 PUSH1 0xC0 DUP4 ADD SWAP1 PUSH1 0xFF PUSH1 0x1 PUSH1 0xE0 SHL SWAP1 SWAP2 DIV AND PUSH1 0x6 DUP2 GT ISZERO PUSH2 0x1D2E JUMPI PUSH2 0x1D2E PUSH2 0x2579 JUMP JUMPDEST PUSH1 0x6 DUP2 GT ISZERO PUSH2 0x1D3F JUMPI PUSH2 0x1D3F PUSH2 0x2579 JUMP JUMPDEST DUP2 MSTORE PUSH1 0x20 ADD PUSH1 0x3 DUP3 ADD SLOAD DUP2 MSTORE POP POP SWAP1 POP SWAP2 SWAP1 POP JUMP JUMPDEST PUSH1 0x7 PUSH1 0x20 MSTORE PUSH1 0x0 SWAP1 DUP2 MSTORE PUSH1 0x40 SWAP1 KECCAK256 DUP1 SLOAD PUSH1 0x1 DUP3 ADD SLOAD PUSH1 0x2 DUP4 ADD DUP1 SLOAD PUSH1 0x1 PUSH1 0x1 PUSH1 0xA0 SHL SUB DUP5 AND SWAP5 PUSH1 0x1 PUSH1 0xA0 SHL SWAP1 SWAP5 DIV PUSH1 0x1 PUSH1 0x1 PUSH1 0x60 SHL SUB AND SWAP4 PUSH1 0xFF DUP5 AND SWAP4 PUSH2 0x100 SWAP1 DIV PUSH1 0x1 PUSH1 0x1 PUSH1 0x40 SHL SUB AND SWAP3 SWAP1 SWAP2 PUSH2 0x1DAB SWAP1 PUSH2 0x28D7 JUMP JUMPDEST DUP1 PUSH1 0x1F ADD PUSH1 0x20 DUP1 SWAP2 DIV MUL PUSH1 0x20 ADD PUSH1 0x40 MLOAD SWAP1 DUP2 ADD PUSH1 0x40 MSTORE DUP1 SWAP3 SWAP2 SWAP1 DUP2 DUP2 MSTORE PUSH1 0x20 ADD DUP3 DUP1 SLOAD PUSH2 0x1DD7 SWAP1 PUSH2 0x28D7 JUMP JUMPDEST DUP1 ISZERO PUSH2 0x1E24 JUMPI DUP1 PUSH1 0x1F LT PUSH2 0x1DF9 JUMPI PUSH2 0x100 DUP1 DUP4 SLOAD DIV MUL DUP4 MSTORE SWAP2 PUSH1 0x20 ADD SWAP2 PUSH2 0x1E24 JUMP JUMPDEST DUP3 ADD SWAP2 SWAP1 PUSH1 0x0 MSTORE PUSH1 0x20 PUSH1 0x0 KECCAK256 SWAP1 JUMPDEST DUP2 SLOAD DUP2 MSTORE SWAP1 PUSH1 0x1 ADD SWAP1 PUSH1 0x20 ADD DUP1 DUP4 GT PUSH2 0x1E07 JUMPI DUP3 SWAP1 SUB PUSH1 0x1F AND DUP3 ADD SWAP2 JUMPDEST POP POP POP POP POP SWAP1 DUP1 PUSH1 0x3 ADD DUP1 SLOAD PUSH2 0x1E39 SWAP1 PUSH2 0x28D7 JUMP JUMPDEST DUP1 PUSH1 0x1F ADD PUSH1 0x20 DUP1 SWAP2 DIV MUL PUSH1 0x20 ADD PUSH1 0x40 MLOAD SWAP1 DUP2 ADD PUSH1 0x40 MSTORE DUP1 SWAP3 SWAP2 SWAP1 DUP2 DUP2 MSTORE PUSH1 0x20 ADD DUP3 DUP1 SLOAD PUSH2 0x1E65 SWAP1 PUSH2 0x28D7 JUMP JUMPDEST DUP1 ISZERO PUSH2 0x1EB2 JUMPI DUP1 PUSH1 0x1F LT PUSH2 0x1E87 JUMPI PUSH2 0x100 DUP1 DUP4 SLOAD DIV MUL DUP4 MSTORE SWAP2 PUSH1 0x20 ADD SWAP2 PUSH2 0x1EB2 JUMP JUMPDEST DUP3 ADD SWAP2 SWAP1 PUSH1 0x0 MSTORE PUSH1 0x20 PUSH1 0x0 KECCAK256 SWAP1 JUMPDEST DUP2 SLOAD DUP2 MSTORE SWAP1 PUSH1 0x1 ADD SWAP1 PUSH1 0x20 ADD DUP1 DUP4 GT PUSH2 0x1E95 JUMPI DUP3 SWAP1 SUB PUSH1 0x1F AND DUP3 ADD SWAP2 JUMPDEST POP POP POP POP POP SWAP1 DUP1 PUSH1 0x4 ADD DUP1 SLOAD PUSH2 0x1EC7 SWAP1 PUSH2 0x28D7 JUMP JUMPDEST DUP1 PUSH1 0x1F ADD PUSH1 0x20 DUP1 SWAP2 DIV MUL PUSH1 0x20 ADD PUSH1 0x40 MLOAD SWAP1 DUP2 ADD PUSH1 0x40 MSTORE DUP1 SWAP3 SWAP2 SWAP1 DUP2 DUP2 MSTORE PUSH1 0x20 ADD DUP3 DUP1 SLOAD PUSH2 0x1EF3 SWAP1 PUSH2 0x28D7 JUMP JUMPDEST DUP1 ISZERO PUSH2 0x1F40 JUMPI DUP1 PUSH1 0x1F LT PUSH2 0x1F15 JUMPI PUSH2 0x100 DUP1 DUP4 SLOAD DIV MUL DUP4 MSTORE SWAP2 PUSH1 0x20 ADD SWAP2 PUSH2 0x1F40 JUMP JUMPDEST DUP3 ADD SWAP2 SWAP1 PUSH1 0x0 MSTORE PUSH1 0x20 PUSH1 0x0 KECCAK256 SWAP1 JUMPDEST DUP2 SLOAD DUP2 MSTORE SWAP1 PUSH1 0x1 ADD SWAP1 PUSH1 0x20 ADD DUP1 DUP4 GT PUSH2 0x1F23 JUMPI DUP3 SWAP1 SUB PUSH1 0x1F AND DUP3 ADD SWAP2 JUMPDEST POP POP POP POP POP SWAP1 POP DUP8 JUMP JUMPDEST PUSH1 0x0 DUP3 DUP2 MSTORE PUSH1 0x7 PUSH1 0x20 MSTORE PUSH1 0x40 DUP2 KECCAK256 PUSH1 0x1 DUP2 ADD SLOAD PUSH1 0xFF AND PUSH2 0x1F9F JUMPI PUSH1 0x40 MLOAD PUSH3 0x461BCD PUSH1 0xE5 SHL DUP2 MSTORE PUSH1 0x20 PUSH1 0x4 DUP3 ADD MSTORE PUSH1 0x10 PUSH1 0x24 DUP3 ADD MSTORE PUSH16 0x696E616374697665206C697374696E67 PUSH1 0x80 SHL PUSH1 0x44 DUP3 ADD MSTORE PUSH1 0x64 ADD PUSH2 0x639 JUMP JUMPDEST DUP1 SLOAD PUSH1 0x1 PUSH1 0xA0 SHL SWAP1 DIV PUSH1 0x1 PUSH1 0x1 PUSH1 0x60 SHL SUB AND CALLVALUE EQ PUSH2 0x1FED JUMPI PUSH1 0x40 MLOAD PUSH3 0x461BCD PUSH1 0xE5 SHL DUP2 MSTORE PUSH1 0x20 PUSH1 0x4 DUP3 ADD MSTORE PUSH1 0xB PUSH1 0x24 DUP3 ADD MSTORE PUSH11 0x77726F6E67207072696365 PUSH1 0xA8 SHL PUSH1 0x44 DUP3 ADD MSTORE PUSH1 0x64 ADD PUSH2 0x639 JUMP JUMPDEST DUP1 SLOAD PUSH1 0x1 PUSH1 0x1 PUSH1 0xA0 SHL SUB AND CALLER SUB PUSH2 0x2031 JUMPI PUSH1 0x40 MLOAD PUSH3 0x461BCD PUSH1 0xE5 SHL DUP2 MSTORE PUSH1 0x20 PUSH1 0x4 DUP3 ADD MSTORE PUSH1 0x8 PUSH1 0x24 DUP3 ADD MSTORE PUSH8 0x73656C662D627579 PUSH1 0xC0 SHL PUSH1 0x44 DUP3 ADD MSTORE PUSH1 0x64 ADD PUSH2 0x639 JUMP JUMPDEST DUP3 PUSH2 0x206A JUMPI PUSH1 0x40 MLOAD PUSH3 0x461BCD PUSH1 0xE5 SHL DUP2 MSTORE PUSH1 0x20 PUSH1 0x4 DUP3 ADD MSTORE PUSH1 0x9 PUSH1 0x24 DUP3 ADD MSTORE PUSH9 0x6E6F207075626B6579 PUSH1 0xB8 SHL PUSH1 0x44 DUP3 ADD MSTORE PUSH1 0x64 ADD PUSH2 0x639 JUMP JUMPDEST PUSH1 0x6 DUP1 SLOAD SWAP1 PUSH1 0x0 PUSH2 0x207A DUP4 PUSH2 0x2956 JUMP JUMPDEST SWAP1 SWAP2 SSTORE POP PUSH1 0x40 DUP1 MLOAD PUSH2 0x100 DUP2 ADD DUP3 MSTORE DUP7 DUP2 MSTORE CALLER PUSH1 0x20 DUP3 ADD MSTORE DUP4 SLOAD PUSH1 0x1 PUSH1 0xA0 SHL SWAP1 DIV PUSH1 0x1 PUSH1 0x1 PUSH1 0x60 SHL SUB AND SWAP2 DUP2 ADD SWAP2 SWAP1 SWAP2 MSTORE PUSH1 0x0 PUSH1 0x60 DUP3 ADD DUP2 SWAP1 MSTORE TIMESTAMP PUSH1 0x1 PUSH1 0x1 PUSH1 0x40 SHL SUB AND PUSH1 0x80 DUP4 ADD MSTORE PUSH1 0xA0 DUP3 ADD MSTORE SWAP1 SWAP3 POP PUSH1 0xC0 DUP2 ADD PUSH1 0x1 DUP2 MSTORE PUSH1 0x20 SWAP1 DUP2 ADD DUP6 SWAP1 MSTORE PUSH1 0x0 DUP5 DUP2 MSTORE PUSH1 0x8 DUP3 MSTORE PUSH1 0x40 SWAP1 DUP2 SWAP1 KECCAK256 DUP4 MLOAD DUP2 SSTORE SWAP2 DUP4 ADD MLOAD SWAP1 DUP4 ADD MLOAD PUSH1 0x1 PUSH1 0x1 PUSH1 0xA0 SHL SUB SWAP1 SWAP2 AND PUSH1 0x1 PUSH1 0xA0 SHL PUSH1 0x1 PUSH1 0x1 PUSH1 0x60 SHL SUB SWAP3 DUP4 AND DUP2 MUL SWAP2 SWAP1 SWAP2 OR PUSH1 0x1 DUP5 ADD SSTORE PUSH1 0x60 DUP5 ADD MLOAD PUSH1 0x2 DUP5 ADD DUP1 SLOAD PUSH1 0x80 DUP8 ADD MLOAD PUSH1 0xA0 DUP9 ADD MLOAD SWAP4 SWAP1 SWAP6 AND PUSH1 0x1 PUSH1 0x1 PUSH1 0xA0 SHL SUB NOT SWAP1 SWAP2 AND OR PUSH1 0x1 PUSH1 0x60 SHL PUSH1 0x1 PUSH1 0x1 PUSH1 0x40 SHL SUB SWAP6 DUP7 AND MUL OR PUSH8 0xFFFFFFFFFFFFFFFF PUSH1 0xA0 SHL NOT DUP2 AND SWAP5 SWAP1 SWAP3 AND SWAP1 SWAP3 MUL SWAP3 DUP4 OR DUP3 SSTORE PUSH1 0xC0 DUP6 ADD MLOAD SWAP3 PUSH9 0xFFFFFFFFFFFFFFFFFF PUSH1 0xA0 SHL NOT SWAP1 SWAP2 AND PUSH1 0xFF PUSH1 0xE0 SHL NOT SWAP1 SWAP2 AND OR PUSH1 0x1 PUSH1 0xE0 SHL DUP4 PUSH1 0x6 DUP2 GT ISZERO PUSH2 0x21A7 JUMPI PUSH2 0x21A7 PUSH2 0x2579 JUMP JUMPDEST MUL OR SWAP1 SSTORE POP PUSH1 0xE0 SWAP2 SWAP1 SWAP2 ADD MLOAD PUSH1 0x3 SWAP1 SWAP2 ADD SSTORE DUP1 SLOAD PUSH1 0x40 DUP1 MLOAD PUSH1 0x1 PUSH1 0xA0 SHL SWAP1 SWAP3 DIV PUSH1 0x1 PUSH1 0x1 PUSH1 0x60 SHL SUB AND DUP3 MSTORE PUSH1 0x20 DUP3 ADD DUP6 SWAP1 MSTORE CALLER SWAP2 DUP7 SWAP2 DUP6 SWAP2 PUSH32 0x87DC7C69DC4B8CD9D7B57B4B719B5EE1D0E1F9D25031BA2065B71941F5B3E46F SWAP2 ADD PUSH1 0x40 MLOAD DUP1 SWAP2 SUB SWAP1 LOG4 POP SWAP3 SWAP2 POP POP JUMP JUMPDEST DUP1 PUSH1 0x0 SUB PUSH2 0x221D JUMPI POP POP JUMP JUMPDEST PUSH1 0x0 DUP3 PUSH1 0x1 PUSH1 0x1 PUSH1 0xA0 SHL SUB AND DUP3 PUSH1 0x40 MLOAD PUSH1 0x0 PUSH1 0x40 MLOAD DUP1 DUP4 SUB DUP2 DUP6 DUP8 GAS CALL SWAP3 POP POP POP RETURNDATASIZE DUP1 PUSH1 0x0 DUP2 EQ PUSH2 0x226A JUMPI PUSH1 0x40 MLOAD SWAP2 POP PUSH1 0x1F NOT PUSH1 0x3F RETURNDATASIZE ADD AND DUP3 ADD PUSH1 0x40 MSTORE RETURNDATASIZE DUP3 MSTORE RETURNDATASIZE PUSH1 0x0 PUSH1 0x20 DUP5 ADD RETURNDATACOPY PUSH2 0x226F JUMP JUMPDEST PUSH1 0x60 SWAP2 POP JUMPDEST POP POP SWAP1 POP DUP1 PUSH2 0x22B2 JUMPI PUSH1 0x40 MLOAD PUSH3 0x461BCD PUSH1 0xE5 SHL DUP2 MSTORE PUSH1 0x20 PUSH1 0x4 DUP3 ADD MSTORE PUSH1 0xF PUSH1 0x24 DUP3 ADD MSTORE PUSH15 0x1D1C985B9CD9995C8819985A5B1959 PUSH1 0x8A SHL PUSH1 0x44 DUP3 ADD MSTORE PUSH1 0x64 ADD PUSH2 0x639 JUMP JUMPDEST POP POP POP JUMP JUMPDEST PUSH1 0x0 PUSH1 0x20 DUP3 DUP5 SUB SLT ISZERO PUSH2 0x22C9 JUMPI PUSH1 0x0 DUP1 REVERT JUMPDEST POP CALLDATALOAD SWAP2 SWAP1 POP JUMP JUMPDEST PUSH1 0x0 DUP2 MLOAD DUP1 DUP5 MSTORE PUSH1 0x0 JUMPDEST DUP2 DUP2 LT ISZERO PUSH2 0x22F6 JUMPI PUSH1 0x20 DUP2 DUP6 ADD DUP2 ADD MLOAD DUP7 DUP4 ADD DUP3 ADD MSTORE ADD PUSH2 0x22DA JUMP JUMPDEST POP PUSH1 0x0 PUSH1 0x20 DUP3 DUP7 ADD ADD MSTORE PUSH1 0x20 PUSH1 0x1F NOT PUSH1 0x1F DUP4 ADD AND DUP6 ADD ADD SWAP2 POP POP SWAP3 SWAP2 POP POP JUMP JUMPDEST PUSH1 0x20 DUP1 DUP3 MSTORE DUP3 MLOAD PUSH1 0x1 PUSH1 0x1 PUSH1 0xA0 SHL SUB AND DUP3 DUP3 ADD MSTORE DUP3 ADD MLOAD PUSH1 0x1 PUSH1 0x1 PUSH1 0x60 SHL SUB AND PUSH1 0x40 DUP1 DUP4 ADD SWAP2 SWAP1 SWAP2 MSTORE DUP3 ADD MLOAD DUP1 ISZERO ISZERO PUSH1 0x60 DUP4 ADD MSTORE PUSH1 0x0 SWAP1 POP PUSH1 0x60 DUP4 ADD MLOAD PUSH1 0x1 PUSH1 0x1 PUSH1 0x40 SHL SUB DUP2 AND PUSH1 0x80 DUP5 ADD MSTORE POP PUSH1 0x80 DUP4 ADD MLOAD PUSH1 0xE0 PUSH1 0xA0 DUP5 ADD MSTORE PUSH2 0x237D PUSH2 0x100 DUP5 ADD DUP3 PUSH2 0x22D0 JUMP JUMPDEST SWAP1 POP PUSH1 0xA0 DUP5 ADD MLOAD PUSH1 0x1F NOT DUP1 DUP6 DUP5 SUB ADD PUSH1 0xC0 DUP7 ADD MSTORE PUSH2 0x239B DUP4 DUP4 PUSH2 0x22D0 JUMP JUMPDEST SWAP3 POP PUSH1 0xC0 DUP7 ADD MLOAD SWAP2 POP DUP1 DUP6 DUP5 SUB ADD PUSH1 0xE0 DUP7 ADD MSTORE POP PUSH2 0xEED DUP3 DUP3 PUSH2 0x22D0 JUMP JUMPDEST PUSH1 0x0 DUP1 DUP4 PUSH1 0x1F DUP5 ADD SLT PUSH2 0x23CB JUMPI PUSH1 0x0 DUP1 REVERT JUMPDEST POP DUP2 CALLDATALOAD PUSH1 0x1 PUSH1 0x1 PUSH1 0x40 SHL SUB DUP2 GT ISZERO PUSH2 0x23E2 JUMPI PUSH1 0x0 DUP1 REVERT JUMPDEST PUSH1 0x20 DUP4 ADD SWAP2 POP DUP4 PUSH1 0x20 DUP3 DUP6 ADD ADD GT ISZERO PUSH2 0x23FA JUMPI PUSH1 0x0 DUP1 REVERT JUMPDEST SWAP3 POP SWAP3 SWAP1 POP JUMP JUMPDEST PUSH1 0x0 DUP1 PUSH1 0x0 PUSH1 0x40 DUP5 DUP7 SUB SLT ISZERO PUSH2 0x2416 JUMPI PUSH1 0x0 DUP1 REVERT JUMPDEST DUP4 CALLDATALOAD SWAP3 POP PUSH1 0x20 DUP5 ADD CALLDATALOAD PUSH1 0x1 PUSH1 0x1 PUSH1 0x40 SHL SUB DUP2 GT ISZERO PUSH2 0x2433 JUMPI PUSH1 0x0 DUP1 REVERT JUMPDEST PUSH2 0x243F DUP7 DUP3 DUP8 ADD PUSH2 0x23B9 JUMP JUMPDEST SWAP5 SWAP8 SWAP1 SWAP7 POP SWAP4 SWAP5 POP POP POP POP JUMP JUMPDEST DUP1 CALLDATALOAD PUSH1 0x1 PUSH1 0x1 PUSH1 0xA0 SHL SUB DUP2 AND DUP2 EQ PUSH2 0x2463 JUMPI PUSH1 0x0 DUP1 REVERT JUMPDEST SWAP2 SWAP1 POP JUMP JUMPDEST PUSH1 0x0 PUSH1 0x20 DUP3 DUP5 SUB SLT ISZERO PUSH2 0x247A JUMPI PUSH1 0x0 DUP1 REVERT JUMPDEST PUSH2 0x2483 DUP3 PUSH2 0x244C JUMP JUMPDEST SWAP4 SWAP3 POP POP POP JUMP JUMPDEST PUSH1 0x0 DUP1 PUSH1 0x40 DUP4 DUP6 SUB SLT ISZERO PUSH2 0x249D JUMPI PUSH1 0x0 DUP1 REVERT JUMPDEST DUP3 CALLDATALOAD SWAP2 POP PUSH1 0x20 DUP4 ADD CALLDATALOAD DUP1 ISZERO ISZERO DUP2 EQ PUSH2 0x24B4 JUMPI PUSH1 0x0 DUP1 REVERT JUMPDEST DUP1 SWAP2 POP POP SWAP3 POP SWAP3 SWAP1 POP JUMP JUMPDEST PUSH1 0x0 DUP1 PUSH1 0x0 DUP1 PUSH1 0x0 DUP1 PUSH1 0x0 PUSH1 0x80 DUP9 DUP11 SUB SLT ISZERO PUSH2 0x24DA JUMPI PUSH1 0x0 DUP1 REVERT JUMPDEST DUP8 CALLDATALOAD PUSH1 0x1 PUSH1 0x1 PUSH1 0x40 SHL SUB DUP1 DUP3 GT ISZERO PUSH2 0x24F1 JUMPI PUSH1 0x0 DUP1 REVERT JUMPDEST PUSH2 0x24FD DUP12 DUP4 DUP13 ADD PUSH2 0x23B9 JUMP JUMPDEST SWAP1 SWAP10 POP SWAP8 POP PUSH1 0x20 DUP11 ADD CALLDATALOAD SWAP2 POP DUP1 DUP3 GT ISZERO PUSH2 0x2516 JUMPI PUSH1 0x0 DUP1 REVERT JUMPDEST PUSH2 0x2522 DUP12 DUP4 DUP13 ADD PUSH2 0x23B9 JUMP JUMPDEST SWAP1 SWAP8 POP SWAP6 POP PUSH1 0x40 DUP11 ADD CALLDATALOAD SWAP2 POP PUSH1 0x1 PUSH1 0x1 PUSH1 0x60 SHL SUB DUP3 AND DUP3 EQ PUSH2 0x2543 JUMPI PUSH1 0x0 DUP1 REVERT JUMPDEST SWAP1 SWAP4 POP PUSH1 0x60 DUP10 ADD CALLDATALOAD SWAP1 DUP1 DUP3 GT ISZERO PUSH2 0x2559 JUMPI PUSH1 0x0 DUP1 REVERT JUMPDEST POP PUSH2 0x2566 DUP11 DUP3 DUP12 ADD PUSH2 0x23B9 JUMP JUMPDEST SWAP9 SWAP12 SWAP8 SWAP11 POP SWAP6 SWAP9 POP SWAP4 SWAP7 SWAP3 SWAP6 SWAP3 SWAP4 POP POP POP JUMP JUMPDEST PUSH4 0x4E487B71 PUSH1 0xE0 SHL PUSH1 0x0 MSTORE PUSH1 0x21 PUSH1 0x4 MSTORE PUSH1 0x24 PUSH1 0x0 REVERT JUMPDEST PUSH1 0x7 DUP2 LT PUSH2 0x259F JUMPI PUSH2 0x259F PUSH2 0x2579 JUMP JUMPDEST SWAP1 MSTORE JUMP JUMPDEST DUP9 DUP2 MSTORE PUSH1 0x1 PUSH1 0x1 PUSH1 0xA0 SHL SUB DUP9 AND PUSH1 0x20 DUP3 ADD MSTORE PUSH1 0x1 PUSH1 0x1 PUSH1 0x60 SHL SUB DUP8 DUP2 AND PUSH1 0x40 DUP4 ADD MSTORE DUP7 AND PUSH1 0x60 DUP3 ADD MSTORE PUSH1 0x1 PUSH1 0x1 PUSH1 0x40 SHL SUB DUP6 DUP2 AND PUSH1 0x80 DUP4 ADD MSTORE DUP5 AND PUSH1 0xA0 DUP3 ADD MSTORE PUSH2 0x100 DUP2 ADD PUSH2 0x25F5 PUSH1 0xC0 DUP4 ADD DUP6 PUSH2 0x258F JUMP JUMPDEST DUP3 PUSH1 0xE0 DUP4 ADD MSTORE SWAP10 SWAP9 POP POP POP POP POP POP POP POP POP JUMP JUMPDEST PUSH1 0x0 DUP1 PUSH1 0x40 DUP4 DUP6 SUB SLT ISZERO PUSH2 0x261B JUMPI PUSH1 0x0 DUP1 REVERT JUMPDEST PUSH2 0x2624 DUP4 PUSH2 0x244C JUMP JUMPDEST SWAP2 POP PUSH2 0x2632 PUSH1 0x20 DUP5 ADD PUSH2 0x244C JUMP JUMPDEST SWAP1 POP SWAP3 POP SWAP3 SWAP1 POP JUMP JUMPDEST PUSH1 0x0 DUP1 PUSH1 0x0 DUP1 PUSH1 0x60 DUP6 DUP8 SUB SLT ISZERO PUSH2 0x2651 JUMPI PUSH1 0x0 DUP1 REVERT JUMPDEST DUP5 CALLDATALOAD SWAP4 POP PUSH1 0x20 DUP6 ADD CALLDATALOAD PUSH1 0x4 DUP2 LT PUSH2 0x2667 JUMPI PUSH1 0x0 DUP1 REVERT JUMPDEST SWAP3 POP PUSH1 0x40 DUP6 ADD CALLDATALOAD PUSH1 0x1 PUSH1 0x1 PUSH1 0x40 SHL SUB DUP2 GT ISZERO PUSH2 0x2682 JUMPI PUSH1 0x0 DUP1 REVERT JUMPDEST PUSH2 0x268E DUP8 DUP3 DUP9 ADD PUSH2 0x23B9 JUMP JUMPDEST SWAP6 SWAP9 SWAP5 SWAP8 POP SWAP6 POP POP POP POP JUMP JUMPDEST PUSH1 0x0 PUSH2 0x100 DUP3 ADD SWAP1 POP DUP3 MLOAD DUP3 MSTORE PUSH1 0x1 DUP1 PUSH1 0xA0 SHL SUB PUSH1 0x20 DUP5 ADD MLOAD AND PUSH1 0x20 DUP4 ADD MSTORE PUSH1 0x40 DUP4 ADD MLOAD PUSH1 0x1 PUSH1 0x1 PUSH1 0x60 SHL SUB DUP1 DUP3 AND PUSH1 0x40 DUP6 ADD MSTORE DUP1 PUSH1 0x60 DUP7 ADD MLOAD AND PUSH1 0x60 DUP6 ADD MSTORE POP POP PUSH1 0x1 PUSH1 0x1 PUSH1 0x40 SHL SUB PUSH1 0x80 DUP5 ADD MLOAD AND PUSH1 0x80 DUP4 ADD MSTORE PUSH1 0xA0 DUP4 ADD MLOAD PUSH2 0x2709 PUSH1 0xA0 DUP5 ADD DUP3 PUSH1 0x1 PUSH1 0x1 PUSH1 0x40 SHL SUB AND SWAP1 MSTORE JUMP JUMPDEST POP PUSH1 0xC0 DUP4 ADD MLOAD PUSH2 0x271C PUSH1 0xC0 DUP5 ADD DUP3 PUSH2 0x258F JUMP JUMPDEST POP PUSH1 0xE0 SWAP3 DUP4 ADD MLOAD SWAP2 SWAP1 SWAP3 ADD MSTORE SWAP1 JUMP JUMPDEST PUSH1 0x1 PUSH1 0x1 PUSH1 0xA0 SHL SUB DUP9 AND DUP2 MSTORE PUSH1 0x1 PUSH1 0x1 PUSH1 0x60 SHL SUB DUP8 AND PUSH1 0x20 DUP3 ADD MSTORE DUP6 ISZERO ISZERO PUSH1 0x40 DUP3 ADD MSTORE PUSH1 0x1 PUSH1 0x1 PUSH1 0x40 SHL SUB DUP6 AND PUSH1 0x60 DUP3 ADD MSTORE PUSH1 0xE0 PUSH1 0x80 DUP3 ADD DUP2 SWAP1 MSTORE PUSH1 0x0 SWAP1 PUSH2 0x2775 SWAP1 DUP4 ADD DUP7 PUSH2 0x22D0 JUMP JUMPDEST DUP3 DUP2 SUB PUSH1 0xA0 DUP5 ADD MSTORE PUSH2 0x2787 DUP2 DUP7 PUSH2 0x22D0 JUMP JUMPDEST SWAP1 POP DUP3 DUP2 SUB PUSH1 0xC0 DUP5 ADD MSTORE PUSH2 0x279B DUP2 DUP6 PUSH2 0x22D0 JUMP JUMPDEST SWAP11 SWAP10 POP POP POP POP POP POP POP POP POP POP JUMP JUMPDEST PUSH1 0x0 DUP1 PUSH1 0x40 DUP4 DUP6 SUB SLT ISZERO PUSH2 0x27BC JUMPI PUSH1 0x0 DUP1 REVERT JUMPDEST POP POP DUP1 CALLDATALOAD SWAP3 PUSH1 0x20 SWAP1 SWAP2 ADD CALLDATALOAD SWAP2 POP JUMP JUMPDEST PUSH1 0x20 DUP1 DUP3 MSTORE PUSH1 0xA SWAP1 DUP3 ADD MSTORE PUSH10 0x7265656E7472616E6379 PUSH1 0xB0 SHL PUSH1 0x40 DUP3 ADD MSTORE PUSH1 0x60 ADD SWAP1 JUMP JUMPDEST PUSH4 0x4E487B71 PUSH1 0xE0 SHL PUSH1 0x0 MSTORE PUSH1 0x11 PUSH1 0x4 MSTORE PUSH1 0x24 PUSH1 0x0 REVERT JUMPDEST PUSH1 0x1 PUSH1 0x1 PUSH1 0x40 SHL SUB DUP2 DUP2 AND DUP4 DUP3 AND ADD SWAP1 DUP1 DUP3 GT ISZERO PUSH2 0x2825 JUMPI PUSH2 0x2825 PUSH2 0x27EF JUMP JUMPDEST POP SWAP3 SWAP2 POP POP JUMP JUMPDEST PUSH1 0x0 PUSH1 0x1 PUSH1 0x1 PUSH1 0x40 SHL SUB DUP1 DUP4 AND DUP2 DUP2 SUB PUSH2 0x2848 JUMPI PUSH2 0x2848 PUSH2 0x27EF JUMP JUMPDEST PUSH1 0x1 ADD SWAP4 SWAP3 POP POP POP JUMP JUMPDEST PUSH1 0x1 PUSH1 0x1 PUSH1 0x80 SHL SUB DUP2 DUP2 AND DUP4 DUP3 AND ADD SWAP1 DUP1 DUP3 GT ISZERO PUSH2 0x2825 JUMPI PUSH2 0x2825 PUSH2 0x27EF JUMP JUMPDEST DUP1 DUP3 MUL DUP2 ISZERO DUP3 DUP3 DIV DUP5 EQ OR PUSH2 0x2889 JUMPI PUSH2 0x2889 PUSH2 0x27EF JUMP JUMPDEST SWAP3 SWAP2 POP POP JUMP JUMPDEST PUSH1 0x0 DUP3 PUSH2 0x28AC JUMPI PUSH4 0x4E487B71 PUSH1 0xE0 SHL PUSH1 0x0 MSTORE PUSH1 0x12 PUSH1 0x4 MSTORE PUSH1 0x24 PUSH1 0x0 REVERT JUMPDEST POP DIV SWAP1 JUMP JUMPDEST DUP1 DUP3 ADD DUP1 DUP3 GT ISZERO PUSH2 0x2889 JUMPI PUSH2 0x2889 PUSH2 0x27EF JUMP JUMPDEST DUP2 DUP2 SUB DUP2 DUP2 GT ISZERO PUSH2 0x2889 JUMPI PUSH2 0x2889 PUSH2 0x27EF JUMP JUMPDEST PUSH1 0x1 DUP2 DUP2 SHR SWAP1 DUP3 AND DUP1 PUSH2 0x28EB JUMPI PUSH1 0x7F DUP3 AND SWAP2 POP JUMPDEST PUSH1 0x20 DUP3 LT DUP2 SUB PUSH2 0x290B JUMPI PUSH4 0x4E487B71 PUSH1 0xE0 SHL PUSH1 0x0 MSTORE PUSH1 0x22 PUSH1 0x4 MSTORE PUSH1 0x24 PUSH1 0x0 REVERT JUMPDEST POP SWAP2 SWAP1 POP JUMP JUMPDEST DUP2 DUP4 MSTORE DUP2 DUP2 PUSH1 0x20 DUP6 ADD CALLDATACOPY POP PUSH1 0x0 DUP3 DUP3 ADD PUSH1 0x20 SWAP1 DUP2 ADD SWAP2 SWAP1 SWAP2 MSTORE PUSH1 0x1F SWAP1 SWAP2 ADD PUSH1 0x1F NOT AND SWAP1 SWAP2 ADD ADD SWAP1 JUMP JUMPDEST PUSH1 0x20 DUP2 MSTORE PUSH1 0x0 PUSH2 0x294E PUSH1 0x20 DUP4 ADD DUP5 DUP7 PUSH2 0x2911 JUMP JUMPDEST SWAP5 SWAP4 POP POP POP POP JUMP JUMPDEST PUSH1 0x0 PUSH1 0x1 DUP3 ADD PUSH2 0x2968 JUMPI PUSH2 0x2968 PUSH2 0x27EF JUMP JUMPDEST POP PUSH1 0x1 ADD SWAP1 JUMP JUMPDEST PUSH4 0x4E487B71 PUSH1 0xE0 SHL PUSH1 0x0 MSTORE PUSH1 0x41 PUSH1 0x4 MSTORE PUSH1 0x24 PUSH1 0x0 REVERT JUMPDEST PUSH1 0x1F DUP3 GT ISZERO PUSH2 0x22B2 JUMPI PUSH1 0x0 DUP2 PUSH1 0x0 MSTORE PUSH1 0x20 PUSH1 0x0 KECCAK256 PUSH1 0x1F DUP6 ADD PUSH1 0x5 SHR DUP2 ADD PUSH1 0x20 DUP7 LT ISZERO PUSH2 0x29AE JUMPI POP DUP1 JUMPDEST PUSH1 0x1F DUP6 ADD PUSH1 0x5 SHR DUP3 ADD SWAP2 POP JUMPDEST DUP2 DUP2 LT ISZERO PUSH2 0x29CD JUMPI DUP3 DUP2 SSTORE PUSH1 0x1 ADD PUSH2 0x29BA JUMP JUMPDEST POP POP POP POP POP POP JUMP JUMPDEST DUP2 MLOAD PUSH1 0x1 PUSH1 0x1 PUSH1 0x40 SHL SUB DUP2 GT ISZERO PUSH2 0x29EE JUMPI PUSH2 0x29EE PUSH2 0x296F JUMP JUMPDEST PUSH2 0x2A02 DUP2 PUSH2 0x29FC DUP5 SLOAD PUSH2 0x28D7 JUMP JUMPDEST DUP5 PUSH2 0x2985 JUMP JUMPDEST PUSH1 0x20 DUP1 PUSH1 0x1F DUP4 GT PUSH1 0x1 DUP2 EQ PUSH2 0x2A37 JUMPI PUSH1 0x0 DUP5 ISZERO PUSH2 0x2A1F JUMPI POP DUP6 DUP4 ADD MLOAD JUMPDEST PUSH1 0x0 NOT PUSH1 0x3 DUP7 SWAP1 SHL SHR NOT AND PUSH1 0x1 DUP6 SWAP1 SHL OR DUP6 SSTORE PUSH2 0x29CD JUMP JUMPDEST PUSH1 0x0 DUP6 DUP2 MSTORE PUSH1 0x20 DUP2 KECCAK256 PUSH1 0x1F NOT DUP7 AND SWAP2 JUMPDEST DUP3 DUP2 LT ISZERO PUSH2 0x2A66 JUMPI DUP9 DUP7 ADD MLOAD DUP3 SSTORE SWAP5 DUP5 ADD SWAP5 PUSH1 0x1 SWAP1 SWAP2 ADD SWAP1 DUP5 ADD PUSH2 0x2A47 JUMP JUMPDEST POP DUP6 DUP3 LT ISZERO PUSH2 0x2A84 JUMPI DUP8 DUP6 ADD MLOAD PUSH1 0x0 NOT PUSH1 0x3 DUP9 SWAP1 SHL PUSH1 0xF8 AND SHR NOT AND DUP2 SSTORE JUMPDEST POP POP POP POP POP PUSH1 0x1 SWAP1 DUP2 SHL ADD SWAP1 SSTORE POP JUMP JUMPDEST PUSH1 0x1 PUSH1 0x1 PUSH1 0x60 SHL SUB DUP5 AND DUP2 MSTORE PUSH1 0x40 PUSH1 0x20 DUP3 ADD MSTORE PUSH1 0x0 PUSH2 0xEED PUSH1 0x40 DUP4 ADD DUP5 DUP7 PUSH2 0x2911 JUMP JUMPDEST PUSH1 0x0 PUSH1 0x4 DUP6 LT PUSH2 0x2AC9 JUMPI PUSH2 0x2AC9 PUSH2 0x2579 JUMP JUMPDEST DUP5 DUP3 MSTORE PUSH1 0x40 PUSH1 0x20 DUP4 ADD MSTORE PUSH2 0xEED PUSH1 0x40 DUP4 ADD DUP5 DUP7 PUSH2 0x2911 JUMP INVALID LOG2 PUSH5 0x6970667358 0x22 SLT KECCAK256 0x2C DELEGATECALL SWAP6 BALANCE CREATE 0xB1 0xFC 0xCA 0xCF 0xC DUP9 0xDC CALLCODE SHR 0xD5 0xDE PUSH32 0x1627793CF84E955A43DE437B788E4664736F6C63430008180033000000000000 "},"methodIdentifiers":{"accruedFees()":"682c2058","arbiter()":"fe25e00a","buy(uint256,bytes32)":"e9fca283","claimRefund(uint256)":"5b7baf64","createListing(string,string,uint96,bytes)":"57b32e49","deliver(uint256,bytes)":"157305fe","deliveryAgent()":"2f651ced","deliveryWindow()":"fd637a94","disputeStakeBps()":"89dfe44e","disputeWindow()":"117f5f92","feeBps()":"24a9d853","finalize(uint256)":"05261aea","getListing(uint256)":"107a274a","getOrder(uint256)":"d09ef241","listings(uint256)":"de74e57b","nextListingId()":"aaccf1ec","nextOrderId()":"2a58b330","openDispute(uint256,string)":"36f691c4","orders(uint256)":"a85c38ef","owner()":"8da5cb5b","reputation(address)":"b9f79451","resolveDispute(uint256,uint8,string)":"c316939c","sellerScore(address)":"3455a94b","setAgents(address,address)":"bbc77f3a","setListingActive(uint256,bool)":"5549756c","withdrawFees(address)":"164e68de"}}}}}