{
  "_format": "hh-sol-artifact-1",
  "contractName": "FairBazaar",
  "sourceName": "contracts/FairBazaar.sol",
  "abi": [
    {
      "inputs": [
        {
          "internalType": "address",
          "name": "_agent",
          "type": "address"
        },
        {
          "internalType": "address",
          "name": "_arbiter",
          "type": "address"
        },
        {
          "internalType": "uint64",
          "name": "_deliveryWindow",
          "type": "uint64"
        },
        {
          "internalType": "uint64",
          "name": "_disputeWindow",
          "type": "uint64"
        },
        {
          "internalType": "uint16",
          "name": "_disputeStakeBps",
          "type": "uint16"
        },
        {
          "internalType": "uint16",
          "name": "_feeBps",
          "type": "uint16"
        }
      ],
      "stateMutability": "nonpayable",
      "type": "constructor"
    },
    {
      "anonymous": false,
      "inputs": [
        {
          "indexed": true,
          "internalType": "uint256",
          "name": "orderId",
          "type": "uint256"
        },
        {
          "indexed": false,
          "internalType": "bytes",
          "name": "encSecretForBuyer",
          "type": "bytes"
        }
      ],
      "name": "Delivered",
      "type": "event"
    },
    {
      "anonymous": false,
      "inputs": [
        {
          "indexed": true,
          "internalType": "uint256",
          "name": "orderId",
          "type": "uint256"
        },
        {
          "indexed": true,
          "internalType": "address",
          "name": "buyer",
          "type": "address"
        },
        {
          "indexed": false,
          "internalType": "string",
          "name": "reason",
          "type": "string"
        }
      ],
      "name": "DisputeOpened",
      "type": "event"
    },
    {
      "anonymous": false,
      "inputs": [
        {
          "indexed": true,
          "internalType": "uint256",
          "name": "orderId",
          "type": "uint256"
        },
        {
          "indexed": false,
          "internalType": "enum FairBazaar.Verdict",
          "name": "verdict",
          "type": "uint8"
        },
        {
          "indexed": false,
          "internalType": "string",
          "name": "reasoning",
          "type": "string"
        }
      ],
      "name": "DisputeResolved",
      "type": "event"
    },
    {
      "anonymous": false,
      "inputs": [
        {
          "indexed": true,
          "internalType": "uint256",
          "name": "listingId",
          "type": "uint256"
        },
        {
          "indexed": true,
          "internalType": "address",
          "name": "seller",
          "type": "address"
        },
        {
          "indexed": false,
          "internalType": "uint96",
          "name": "price",
          "type": "uint96"
        },
        {
          "indexed": false,
          "internalType": "string",
          "name": "title",
          "type": "string"
        }
      ],
      "name": "ListingCreated",
      "type": "event"
    },
    {
      "anonymous": false,
      "inputs": [
        {
          "indexed": true,
          "internalType": "uint256",
          "name": "listingId",
          "type": "uint256"
        },
        {
          "indexed": false,
          "internalType": "bool",
          "name": "active",
          "type": "bool"
        }
      ],
      "name": "ListingToggled",
      "type": "event"
    },
    {
      "anonymous": false,
      "inputs": [
        {
          "indexed": true,
          "internalType": "uint256",
          "name": "orderId",
          "type": "uint256"
        },
        {
          "indexed": true,
          "internalType": "address",
          "name": "seller",
          "type": "address"
        },
        {
          "indexed": false,
          "internalType": "uint256",
          "name": "payout",
          "type": "uint256"
        }
      ],
      "name": "OrderCompleted",
      "type": "event"
    },
    {
      "anonymous": false,
      "inputs": [
        {
          "indexed": true,
          "internalType": "uint256",
          "name": "orderId",
          "type": "uint256"
        },
        {
          "indexed": true,
          "internalType": "uint256",
          "name": "listingId",
          "type": "uint256"
        },
        {
          "indexed": true,
          "internalType": "address",
          "name": "buyer",
          "type": "address"
        },
        {
          "indexed": false,
          "internalType": "uint96",
          "name": "price",
          "type": "uint96"
        },
        {
          "indexed": false,
          "internalType": "bytes32",
          "name": "buyerPubKey",
          "type": "bytes32"
        }
      ],
      "name": "Purchased",
      "type": "event"
    },
    {
      "anonymous": false,
      "inputs": [
        {
          "indexed": true,
          "internalType": "uint256",
          "name": "orderId",
          "type": "uint256"
        }
      ],
      "name": "RefundClaimed",
      "type": "event"
    },
    {
      "anonymous": false,
      "inputs": [
        {
          "indexed": true,
          "internalType": "address",
          "name": "seller",
          "type": "address"
        },
        {
          "indexed": false,
          "internalType": "uint64",
          "name": "sales",
          "type": "uint64"
        },
        {
          "indexed": false,
          "internalType": "uint64",
          "name": "disputesWon",
          "type": "uint64"
        },
        {
          "indexed": false,
          "internalType": "uint64",
          "name": "disputesLost",
          "type": "uint64"
        }
      ],
      "name": "ReputationChanged",
      "type": "event"
    },
    {
      "inputs": [],
      "name": "accruedFees",
      "outputs": [
        {
          "internalType": "uint256",
          "name": "",
          "type": "uint256"
        }
      ],
      "stateMutability": "view",
      "type": "function"
    },
    {
      "inputs": [],
      "name": "arbiter",
      "outputs": [
        {
          "internalType": "address",
          "name": "",
          "type": "address"
        }
      ],
      "stateMutability": "view",
      "type": "function"
    },
    {
      "inputs": [
        {
          "internalType": "uint256",
          "name": "listingId",
          "type": "uint256"
        },
        {
          "internalType": "bytes32",
          "name": "buyerPubKey",
          "type": "bytes32"
        }
      ],
      "name": "buy",
      "outputs": [
        {
          "internalType": "uint256",
          "name": "id",
          "type": "uint256"
        }
      ],
      "stateMutability": "payable",
      "type": "function"
    },
    {
      "inputs": [
        {
          "internalType": "uint256",
          "name": "orderId",
          "type": "uint256"
        }
      ],
      "name": "claimRefund",
      "outputs": [],
      "stateMutability": "nonpayable",
      "type": "function"
    },
    {
      "inputs": [
        {
          "internalType": "string",
          "name": "title",
          "type": "string"
        },
        {
          "internalType": "string",
          "name": "description",
          "type": "string"
        },
        {
          "internalType": "uint96",
          "name": "price",
          "type": "uint96"
        },
        {
          "internalType": "bytes",
          "name": "encSecretForAgent",
          "type": "bytes"
        }
      ],
      "name": "createListing",
      "outputs": [
        {
          "internalType": "uint256",
          "name": "id",
          "type": "uint256"
        }
      ],
      "stateMutability": "nonpayable",
      "type": "function"
    },
    {
      "inputs": [
        {
          "internalType": "uint256",
          "name": "orderId",
          "type": "uint256"
        },
        {
          "internalType": "bytes",
          "name": "encSecretForBuyer",
          "type": "bytes"
        }
      ],
      "name": "deliver",
      "outputs": [],
      "stateMutability": "nonpayable",
      "type": "function"
    },
    {
      "inputs": [],
      "name": "deliveryAgent",
      "outputs": [
        {
          "internalType": "address",
          "name": "",
          "type": "address"
        }
      ],
      "stateMutability": "view",
      "type": "function"
    },
    {
      "inputs": [],
      "name": "deliveryWindow",
      "outputs": [
        {
          "internalType": "uint64",
          "name": "",
          "type": "uint64"
        }
      ],
      "stateMutability": "view",
      "type": "function"
    },
    {
      "inputs": [],
      "name": "disputeStakeBps",
      "outputs": [
        {
          "internalType": "uint16",
          "name": "",
          "type": "uint16"
        }
      ],
      "stateMutability": "view",
      "type": "function"
    },
    {
      "inputs": [],
      "name": "disputeWindow",
      "outputs": [
        {
          "internalType": "uint64",
          "name": "",
          "type": "uint64"
        }
      ],
      "stateMutability": "view",
      "type": "function"
    },
    {
      "inputs": [],
      "name": "feeBps",
      "outputs": [
        {
          "internalType": "uint16",
          "name": "",
          "type": "uint16"
        }
      ],
      "stateMutability": "view",
      "type": "function"
    },
    {
      "inputs": [
        {
          "internalType": "uint256",
          "name": "orderId",
          "type": "uint256"
        }
      ],
      "name": "finalize",
      "outputs": [],
      "stateMutability": "nonpayable",
      "type": "function"
    },
    {
      "inputs": [
        {
          "internalType": "uint256",
          "name": "id",
          "type": "uint256"
        }
      ],
      "name": "getListing",
      "outputs": [
        {
          "components": [
            {
              "internalType": "address",
              "name": "seller",
              "type": "address"
            },
            {
              "internalType": "uint96",
              "name": "price",
              "type": "uint96"
            },
            {
              "internalType": "bool",
              "name": "active",
              "type": "bool"
            },
            {
              "internalType": "uint64",
              "name": "salesCount",
              "type": "uint64"
            },
            {
              "internalType": "string",
              "name": "title",
              "type": "string"
            },
            {
              "internalType": "string",
              "name": "description",
              "type": "string"
            },
            {
              "internalType": "bytes",
              "name": "encSecretForAgent",
              "type": "bytes"
            }
          ],
          "internalType": "struct FairBazaar.Listing",
          "name": "",
          "type": "tuple"
        }
      ],
      "stateMutability": "view",
      "type": "function"
    },
    {
      "inputs": [
        {
          "internalType": "uint256",
          "name": "id",
          "type": "uint256"
        }
      ],
      "name": "getOrder",
      "outputs": [
        {
          "components": [
            {
              "internalType": "uint256",
              "name": "listingId",
              "type": "uint256"
            },
            {
              "internalType": "address",
              "name": "buyer",
              "type": "address"
            },
            {
              "internalType": "uint96",
              "name": "price",
              "type": "uint96"
            },
            {
              "internalType": "uint96",
              "name": "disputeStake",
              "type": "uint96"
            },
            {
              "internalType": "uint64",
              "name": "paidAt",
              "type": "uint64"
            },
            {
              "internalType": "uint64",
              "name": "deliveredAt",
              "type": "uint64"
            },
            {
              "internalType": "enum FairBazaar.OrderStatus",
              "name": "status",
              "type": "uint8"
            },
            {
              "internalType": "bytes32",
              "name": "buyerPubKey",
              "type": "bytes32"
            }
          ],
          "internalType": "struct FairBazaar.Order",
          "name": "",
          "type": "tuple"
        }
      ],
      "stateMutability": "view",
      "type": "function"
    },
    {
      "inputs": [
        {
          "internalType": "uint256",
          "name": "",
          "type": "uint256"
        }
      ],
      "name": "listings",
      "outputs": [
        {
          "internalType": "address",
          "name": "seller",
          "type": "address"
        },
        {
          "internalType": "uint96",
          "name": "price",
          "type": "uint96"
        },
        {
          "internalType": "bool",
          "name": "active",
          "type": "bool"
        },
        {
          "internalType": "uint64",
          "name": "salesCount",
          "type": "uint64"
        },
        {
          "internalType": "string",
          "name": "title",
          "type": "string"
        },
        {
          "internalType": "string",
          "name": "description",
          "type": "string"
        },
        {
          "internalType": "bytes",
          "name": "encSecretForAgent",
          "type": "bytes"
        }
      ],
      "stateMutability": "view",
      "type": "function"
    },
    {
      "inputs": [],
      "name": "nextListingId",
      "outputs": [
        {
          "internalType": "uint256",
          "name": "",
          "type": "uint256"
        }
      ],
      "stateMutability": "view",
      "type": "function"
    },
    {
      "inputs": [],
      "name": "nextOrderId",
      "outputs": [
        {
          "internalType": "uint256",
          "name": "",
          "type": "uint256"
        }
      ],
      "stateMutability": "view",
      "type": "function"
    },
    {
      "inputs": [
        {
          "internalType": "uint256",
          "name": "orderId",
          "type": "uint256"
        },
        {
          "internalType": "string",
          "name": "reason",
          "type": "string"
        }
      ],
      "name": "openDispute",
      "outputs": [],
      "stateMutability": "payable",
      "type": "function"
    },
    {
      "inputs": [
        {
          "internalType": "uint256",
          "name": "",
          "type": "uint256"
        }
      ],
      "name": "orders",
      "outputs": [
        {
          "internalType": "uint256",
          "name": "listingId",
          "type": "uint256"
        },
        {
          "internalType": "address",
          "name": "buyer",
          "type": "address"
        },
        {
          "internalType": "uint96",
          "name": "price",
          "type": "uint96"
        },
        {
          "internalType": "uint96",
          "name": "disputeStake",
          "type": "uint96"
        },
        {
          "internalType": "uint64",
          "name": "paidAt",
          "type": "uint64"
        },
        {
          "internalType": "uint64",
          "name": "deliveredAt",
          "type": "uint64"
        },
        {
          "internalType": "enum FairBazaar.OrderStatus",
          "name": "status",
          "type": "uint8"
        },
        {
          "internalType": "bytes32",
          "name": "buyerPubKey",
          "type": "bytes32"
        }
      ],
      "stateMutability": "view",
      "type": "function"
    },
    {
      "inputs": [],
      "name": "owner",
      "outputs": [
        {
          "internalType": "address",
          "name": "",
          "type": "address"
        }
      ],
      "stateMutability": "view",
      "type": "function"
    },
    {
      "inputs": [
        {
          "internalType": "address",
          "name": "",
          "type": "address"
        }
      ],
      "name": "reputation",
      "outputs": [
        {
          "internalType": "uint64",
          "name": "sales",
          "type": "uint64"
        },
        {
          "internalType": "uint64",
          "name": "disputesWon",
          "type": "uint64"
        },
        {
          "internalType": "uint64",
          "name": "disputesLost",
          "type": "uint64"
        },
        {
          "internalType": "uint128",
          "name": "volume",
          "type": "uint128"
        }
      ],
      "stateMutability": "view",
      "type": "function"
    },
    {
      "inputs": [
        {
          "internalType": "uint256",
          "name": "orderId",
          "type": "uint256"
        },
        {
          "internalType": "enum FairBazaar.Verdict",
          "name": "verdict",
          "type": "uint8"
        },
        {
          "internalType": "string",
          "name": "reasoning",
          "type": "string"
        }
      ],
      "name": "resolveDispute",
      "outputs": [],
      "stateMutability": "nonpayable",
      "type": "function"
    },
    {
      "inputs": [
        {
          "internalType": "address",
          "name": "seller",
          "type": "address"
        }
      ],
      "name": "sellerScore",
      "outputs": [
        {
          "internalType": "uint256",
          "name": "",
          "type": "uint256"
        }
      ],
      "stateMutability": "view",
      "type": "function"
    },
    {
      "inputs": [
        {
          "internalType": "address",
          "name": "_agent",
          "type": "address"
        },
        {
          "internalType": "address",
          "name": "_arbiter",
          "type": "address"
        }
      ],
      "name": "setAgents",
      "outputs": [],
      "stateMutability": "nonpayable",
      "type": "function"
    },
    {
      "inputs": [
        {
          "internalType": "uint256",
          "name": "listingId",
          "type": "uint256"
        },
        {
          "internalType": "bool",
          "name": "active",
          "type": "bool"
        }
      ],
      "name": "setListingActive",
      "outputs": [],
      "stateMutability": "nonpayable",
      "type": "function"
    },
    {
      "inputs": [
        {
          "internalType": "address",
          "name": "to",
          "type": "address"
        }
      ],
      "name": "withdrawFees",
      "outputs": [],
      "stateMutability": "nonpayable",
      "type": "function"
    }
  ],
  "bytecode": "0x6080604052600160055560016006553480156200001b57600080fd5b5060405162002d1b38038062002d1b8339810160408190526200003e9162000173565b6103e88161ffff161115620000885760405162461bcd60e51b815260206004820152600c60248201526b0cccaca40e8dede40d0d2ced60a31b604482015260640160405180910390fd5b60008054336001600160a01b031991821617909155600180549091166001600160a01b0397881617905560028054959096166001600160e01b031990951694909417600160a01b6001600160401b03948516021790945560038054919092166001600160501b0319909116176801000000000000000061ffff948516021761ffff60501b19166a01000000000000000000009390921692909202179055620001f4565b80516001600160a01b03811681146200014357600080fd5b919050565b80516001600160401b03811681146200014357600080fd5b805161ffff811681146200014357600080fd5b60008060008060008060c087890312156200018d57600080fd5b62000198876200012b565b9550620001a8602088016200012b565b9450620001b86040880162000148565b9350620001c86060880162000148565b9250620001d86080880162000160565b9150620001e860a0880162000160565b90509295509295509295565b612b1780620002046000396000f3fe6080604052600436106101815760003560e01c8063682c2058116100d1578063bbc77f3a1161008a578063de74e57b11610064578063de74e57b14610589578063e9fca283146105bc578063fd637a94146105cf578063fe25e00a146105f657600080fd5b8063bbc77f3a1461051c578063c316939c1461053c578063d09ef2411461055c57600080fd5b8063682c20581461037a57806389dfe44e146103905780638da5cb5b146103b2578063a85c38ef146103d2578063aaccf1ec1461046e578063b9f794511461048457600080fd5b80632a58b3301161013e57806336f691c41161011857806336f691c4146103075780635549756c1461031a57806357b32e491461033a5780635b7baf641461035a57600080fd5b80632a58b3301461028b5780632f651ced146102af5780633455a94b146102e757600080fd5b806305261aea14610186578063107a274a146101a8578063117f5f92146101de578063157305fe14610216578063164e68de1461023657806324a9d85314610256575b600080fd5b34801561019257600080fd5b506101a66101a13660046122b7565b610616565b005b3480156101b457600080fd5b506101c86101c33660046122b7565b6109a1565b6040516101d59190612316565b60405180910390f35b3480156101ea57600080fd5b506003546101fe906001600160401b031681565b6040516001600160401b0390911681526020016101d5565b34801561022257600080fd5b506101a6610231366004612401565b610c28565b34801561024257600080fd5b506101a6610251366004612468565b610dc2565b34801561026257600080fd5b5060035461027890600160501b900461ffff1681565b60405161ffff90911681526020016101d5565b34801561029757600080fd5b506102a160065481565b6040519081526020016101d5565b3480156102bb57600080fd5b506001546102cf906001600160a01b031681565b6040516001600160a01b0390911681526020016101d5565b3480156102f357600080fd5b506102a1610302366004612468565b610e59565b6101a6610315366004612401565b610ef6565b34801561032657600080fd5b506101a661033536600461248a565b611166565b34801561034657600080fd5b506102a16103553660046124bf565b611207565b34801561036657600080fd5b506101a66103753660046122b7565b611541565b34801561038657600080fd5b506102a160045481565b34801561039c57600080fd5b5060035461027890600160401b900461ffff1681565b3480156103be57600080fd5b506000546102cf906001600160a01b031681565b3480156103de57600080fd5b5061045a6103ed3660046122b7565b600860205260009081526040902080546001820154600283015460039093015491926001600160a01b03821692600160a01b928390046001600160601b039081169390831692600160601b81046001600160401b03908116939282041691600160e01b90910460ff169088565b6040516101d59897969594939291906125a3565b34801561047a57600080fd5b506102a160055481565b34801561049057600080fd5b506104e361049f366004612468565b600960205260009081526040902080546001909101546001600160401b0380831692600160401b8104821692600160801b909104909116906001600160801b031684565b604080516001600160401b039586168152938516602085015291909316908201526001600160801b0390911660608201526080016101d5565b34801561052857600080fd5b506101a6610537366004612608565b61170f565b34801561054857600080fd5b506101a661055736600461263b565b611783565b34801561056857600080fd5b5061057c6105773660046122b7565b611c4d565b6040516101d5919061269a565b34801561059557600080fd5b506105a96105a43660046122b7565b611d54565b6040516101d5979695949392919061272b565b6102a16105ca3660046127a9565b611f4a565b3480156105db57600080fd5b506002546101fe90600160a01b90046001600160401b031681565b34801561060257600080fd5b506002546102cf906001600160a01b031681565b600a5460ff16156106425760405162461bcd60e51b8152600401610639906127cb565b60405180910390fd5b600a805460ff191660011790556000818152600860205260409020600280820154600160e01b900460ff16600681111561067e5761067e612579565b146106c15760405162461bcd60e51b81526020600482015260136024820152726e6f742064656c69766572656420737461746560681b6044820152606401610639565b60035460028201546106e6916001600160401b0390811691600160a01b900416612805565b6001600160401b0316421161072b5760405162461bcd60e51b815260206004820152600b60248201526a3bb4b73237bb9037b832b760a91b6044820152606401610639565b8054600090815260076020526040902060028201805460ff60e01b1916600160e21b1790556001808201805461010090046001600160401b03169161076f8361282c565b82546101009290920a6001600160401b0381810219909316918316021790915582546001600160a01b0316600090815260096020526040812080549093509091169082906107bc8361282c565b82546101009290920a6001600160401b03818102199093169190921691909102179055506001838101549082018054600160a01b9092046001600160601b0316916000906108149084906001600160801b0316612852565b82546101009290920a6001600160801b038181021990931691909216919091021790555060035460018401546000916127109161086c91600160501b900461ffff1690600160a01b90046001600160601b0316612872565b610876919061288f565b9050806004600082825461088a91906128b1565b9091555050825460018501546108c4916001600160a01b0316906108bf908490600160a01b90046001600160601b03166128c4565b612211565b825460018501546001600160a01b039091169086907fe542d9ced06ebf48c00dc3567a112897fa34963ecc9a6ebf2beba9bc70f5689490610916908590600160a01b90046001600160601b03166128c4565b60405190815260200160405180910390a382548254604080516001600160401b038084168252600160401b840481166020830152600160801b90930490921682820152516001600160a01b03909216917fc61210dacb3a6183d55f6567a264442c0c723bd97ec41717dfb307273701be959181900360600190a25050600a805460ff19169055505050565b6109fe6040518060e0016040528060006001600160a01b0316815260200160006001600160601b0316815260200160001515815260200160006001600160401b031681526020016060815260200160608152602001606081525090565b600082815260076020908152604091829020825160e08101845281546001600160a01b0381168252600160a01b90046001600160601b031692810192909252600181015460ff81161515938301939093526101009092046001600160401b03166060820152600282018054919291608084019190610a7b906128d7565b80601f0160208091040260200160405190810160405280929190818152602001828054610aa7906128d7565b8015610af45780601f10610ac957610100808354040283529160200191610af4565b820191906000526020600020905b815481529060010190602001808311610ad757829003601f168201915b50505050508152602001600382018054610b0d906128d7565b80601f0160208091040260200160405190810160405280929190818152602001828054610b39906128d7565b8015610b865780601f10610b5b57610100808354040283529160200191610b86565b820191906000526020600020905b815481529060010190602001808311610b6957829003601f168201915b50505050508152602001600482018054610b9f906128d7565b80601f0160208091040260200160405190810160405280929190818152602001828054610bcb906128d7565b8015610c185780601f10610bed57610100808354040283529160200191610c18565b820191906000526020600020905b815481529060010190602001808311610bfb57829003601f168201915b5050505050815250509050919050565b600083815260086020526040902060016002820154600160e01b900460ff166006811115610c5857610c58612579565b14610c965760405162461bcd60e51b815260206004820152600e60248201526d6e6f74207061696420737461746560901b6044820152606401610639565b805460009081526007602052604090206001546001600160a01b0316331480610cc8575080546001600160a01b031633145b610d045760405162461bcd60e51b815260206004820152600d60248201526c3737ba103232b634bb32b932b960991b6044820152606401610639565b8215801590610d1557506110008311155b610d4f5760405162461bcd60e51b815260206004820152600b60248201526a189859081c185e5b1bd85960aa1b6044820152606401610639565b6002820180546001600160401b034216600160a01b0268ffffffffffffffffff60a01b1990911617600160e11b17905560405185907fe55808ab67ee6194bab018125d65d17037751771f938cea781d152389396d8e390610db3908790879061293a565b60405180910390a25050505050565b6000546001600160a01b03163314610e085760405162461bcd60e51b81526020600482015260096024820152683737ba1037bbb732b960b91b6044820152606401610639565b600a5460ff1615610e2b5760405162461bcd60e51b8152600401610639906127cb565b600a805460ff19166001179055600480546000909155610e4b8282612211565b5050600a805460ff19169055565b6001600160a01b038116600090815260096020526040812080548290610e9090600160401b90046001600160401b03166005612872565b8254610ea6906001600160401b0316600a612872565b610eb091906128b1565b8254909150600090610ed390600160801b90046001600160401b03166028612872565b9050808211610ee3576000610eed565b610eed81836128c4565b95945050505050565b600083815260086020526040902060018101546001600160a01b03163314610f4c5760405162461bcd60e51b81526020600482015260096024820152683737ba10313abcb2b960b91b6044820152606401610639565b600280820154600160e01b900460ff166006811115610f6d57610f6d612579565b14610fb05760405162461bcd60e51b81526020600482015260136024820152726e6f742064656c69766572656420737461746560681b6044820152606401610639565b6003546002820154610fd5916001600160401b0390811691600160a01b900416612805565b6001600160401b031642111561101d5760405162461bcd60e51b815260206004820152600d60248201526c1dda5b991bddc818db1bdcd959609a1b6044820152606401610639565b811580159061102e57506107d08211155b6110675760405162461bcd60e51b815260206004820152600a6024820152693130b2103932b0b9b7b760b11b6044820152606401610639565b60035460018201546000916127109161109b91600160401b900461ffff1690600160a01b90046001600160601b0316612872565b6110a5919061288f565b90508034146110e45760405162461bcd60e51b815260206004820152600b60248201526a77726f6e67207374616b6560a81b6044820152606401610639565b6002820180546001600160601b0383167fffffff00ffffffffffffffffffffffffffffffff00000000000000000000000090911617600360e01b179055604051339086907f9b58afa035c5fa58f85c5a54b65bd3562d5aa7679e973bc1404fe25e8babab2190611157908890889061293a565b60405180910390a35050505050565b600082815260076020526040902080546001600160a01b031633146111ba5760405162461bcd60e51b815260206004820152600a6024820152693737ba1039b2b63632b960b11b6044820152606401610639565b60018101805460ff191683151590811790915560405190815283907f92693567bc88f088e150fcc712a4351edbfa93e37df9d8833c8e4fa177dd23529060200160405180910390a2505050565b600080846001600160601b03161161124b5760405162461bcd60e51b8152602060048201526007602482015266070726963653d360cc1b6044820152606401610639565b861580159061125b575060648711155b6112935760405162461bcd60e51b8152602060048201526009602482015268626164207469746c6560b81b6044820152606401610639565b84158015906112a457506107d08511155b6112e25760405162461bcd60e51b815260206004820152600f60248201526e3130b2103232b9b1b934b83a34b7b760891b6044820152606401610639565b81158015906112f357506110008211155b61132c5760405162461bcd60e51b815260206004820152600a602482015269189859081cd958dc995d60b21b6044820152606401610639565b6005805490600061133c83612956565b9190505590506040518060e00160405280336001600160a01b03168152602001856001600160601b0316815260200160011515815260200160006001600160401b0316815260200189898080601f016020809104026020016040519081016040528093929190818152602001838380828437600092019190915250505090825250604080516020601f8a0181900481028201810190925288815291810191908990899081908401838280828437600092019190915250505090825250604080516020601f8701819004810282018101909252858152918101919086908690819084018382808284376000920182905250939094525050838152600760209081526040918290208451918501516001600160601b0316600160a01b026001600160a01b039092169190911781559083015160018201805460608601516001600160401b03166101000268ffffffffffffffff00199315159390931668ffffffffffffffffff1990911617919091179055608083015190915060028201906114c290826129d5565b5060a082015160038201906114d790826129d5565b5060c082015160048201906114ec90826129d5565b50905050336001600160a01b0316817fa490ea95b20302d0b594b4a9f965011abd72192513422ae4b5acdc910633612e868b8b60405161152e93929190612a94565b60405180910390a3979650505050505050565b600a5460ff16156115645760405162461bcd60e51b8152600401610639906127cb565b600a805460ff191660019081179091556000828152600860205260409020908101546001600160a01b031633146115c95760405162461bcd60e51b81526020600482015260096024820152683737ba10313abcb2b960b91b6044820152606401610639565b60016002820154600160e01b900460ff1660068111156115eb576115eb612579565b146116295760405162461bcd60e51b815260206004820152600e60248201526d6e6f7420726566756e6461626c6560901b6044820152606401610639565b6002805490820154611655916001600160401b03600160a01b909104811691600160601b900416612805565b6001600160401b031642116116985760405162461bcd60e51b8152602060048201526009602482015268746f6f206561726c7960b81b6044820152606401610639565b60028101805460ff60e01b1916600560e01b17905560018101546116d6906001600160a01b03811690600160a01b90046001600160601b0316612211565b60405182907fc118564863bc4bc4615080294149317d0199c54d04e6ccc10de28a41cf9807c690600090a25050600a805460ff19169055565b6000546001600160a01b031633146117555760405162461bcd60e51b81526020600482015260096024820152683737ba1037bbb732b960b91b6044820152606401610639565b600180546001600160a01b039384166001600160a01b03199182161790915560028054929093169116179055565b600a5460ff16156117a65760405162461bcd60e51b8152600401610639906127cb565b600a805460ff19166001179055600254336001600160a01b03909116146117fd5760405162461bcd60e51b815260206004820152600b60248201526a3737ba1030b93134ba32b960a91b6044820152606401610639565b600084815260086020526040902060036002820154600160e01b900460ff16600681111561182d5761182d612579565b146118695760405162461bcd60e51b815260206004820152600c60248201526b1b9bdd08191a5cdc1d5d195960a21b6044820152606401610639565b600084600381111561187d5761187d612579565b036118b85760405162461bcd60e51b815260206004820152600b60248201526a189859081d995c991a58dd60aa1b6044820152606401610639565b8054600090815260076020908152604080832080546001600160a01b03168452600990925290912060028301805460ff60e01b1916600360e11b179055600186600381111561190957611909612579565b0361198b578054600160801b90046001600160401b031681601061192c8361282c565b82546001600160401b039182166101009390930a92830291909202199091161790555060018301546002840154611986916001600160a01b038116916108bf916001600160601b0391821691600160a01b909104166128b1565b611b95565b600286600381111561199f5761199f612579565b03611b0f578054600160401b90046001600160401b03168160086119c28361282c565b82546101009290920a6001600160401b0381810219909316918316021790915582541690508160006119f38361282c565b82546101009290920a6001600160401b03818102199093169190921691909102179055506001838101549082018054600160a01b9092046001600160601b031691600090611a4b9084906001600160801b0316612852565b82546101009290920a6001600160801b0381810219909316919092169190910217905550600354600184015460009161271091611aa391600160501b900461ffff1690600160a01b90046001600160601b0316612872565b611aad919061288f565b90508060046000828254611ac191906128b1565b9091555050825460028501546001860154611b09926001600160a01b0316916001600160601b0390811691611aff918691600160a01b9004166128c4565b6108bf91906128b1565b50611b95565b6001830154600090611b3390600290600160a01b90046001600160601b031661288f565b60018501546002860154919250611b63916001600160a01b03909116906108bf906001600160601b0316846128b1565b82546001850154611b93916001600160a01b0316906108bf908490600160a01b90046001600160601b03166128c4565b505b867fc204352fad7e46251e09ce83e05533737044b65128eb8926aac1969fbe2be267878787604051611bc993929190612ab7565b60405180910390a281548154604080516001600160401b038084168252600160401b840481166020830152600160801b90930490921682820152516001600160a01b03909216917fc61210dacb3a6183d55f6567a264442c0c723bd97ec41717dfb307273701be959181900360600190a25050600a805460ff191690555050505050565b6040805161010081018252600080825260208201819052918101829052606081018290526080810182905260a0810182905260c0810182905260e08101919091526000828152600860209081526040918290208251610100810184528154815260018201546001600160a01b038116938201939093526001600160601b03600160a01b93849004811694820194909452600282015493841660608201526001600160401b03600160601b85048116608083015292840490921660a0830152909160c083019060ff600160e01b909104166006811115611d2e57611d2e612579565b6006811115611d3f57611d3f612579565b81526020016003820154815250509050919050565b6007602052600090815260409020805460018201546002830180546001600160a01b03841694600160a01b9094046001600160601b03169360ff84169361010090046001600160401b0316929091611dab906128d7565b80601f0160208091040260200160405190810160405280929190818152602001828054611dd7906128d7565b8015611e245780601f10611df957610100808354040283529160200191611e24565b820191906000526020600020905b815481529060010190602001808311611e0757829003601f168201915b505050505090806003018054611e39906128d7565b80601f0160208091040260200160405190810160405280929190818152602001828054611e65906128d7565b8015611eb25780601f10611e8757610100808354040283529160200191611eb2565b820191906000526020600020905b815481529060010190602001808311611e9557829003601f168201915b505050505090806004018054611ec7906128d7565b80601f0160208091040260200160405190810160405280929190818152602001828054611ef3906128d7565b8015611f405780601f10611f1557610100808354040283529160200191611f40565b820191906000526020600020905b815481529060010190602001808311611f2357829003601f168201915b5050505050905087565b6000828152600760205260408120600181015460ff16611f9f5760405162461bcd60e51b815260206004820152601060248201526f696e616374697665206c697374696e6760801b6044820152606401610639565b8054600160a01b90046001600160601b03163414611fed5760405162461bcd60e51b815260206004820152600b60248201526a77726f6e6720707269636560a81b6044820152606401610639565b80546001600160a01b031633036120315760405162461bcd60e51b815260206004820152600860248201526773656c662d62757960c01b6044820152606401610639565b8261206a5760405162461bcd60e51b81526020600482015260096024820152686e6f207075626b657960b81b6044820152606401610639565b6006805490600061207a83612956565b9091555060408051610100810182528681523360208201528354600160a01b90046001600160601b031691810191909152600060608201819052426001600160401b0316608083015260a082015290925060c081016001815260209081018590526000848152600882526040908190208351815591830151908301516001600160a01b03909116600160a01b6001600160601b0392831681029190911760018401556060840151600284018054608087015160a0880151939095166001600160a01b031990911617600160601b6001600160401b03958616021767ffffffffffffffff60a01b19811694909216909202928317825560c08501519268ffffffffffffffffff60a01b1990911660ff60e01b1990911617600160e01b8360068111156121a7576121a7612579565b021790555060e09190910151600390910155805460408051600160a01b9092046001600160601b03168252602082018590523391869185917f87dc7c69dc4b8cd9d7b57b4b719b5ee1d0e1f9d25031ba2065b71941f5b3e46f910160405180910390a45092915050565b8060000361221d575050565b6000826001600160a01b03168260405160006040518083038185875af1925050503d806000811461226a576040519150601f19603f3d011682016040523d82523d6000602084013e61226f565b606091505b50509050806122b25760405162461bcd60e51b815260206004820152600f60248201526e1d1c985b9cd9995c8819985a5b1959608a1b6044820152606401610639565b505050565b6000602082840312156122c957600080fd5b5035919050565b6000815180845260005b818110156122f6576020818501810151868301820152016122da565b506000602082860101526020601f19601f83011685010191505092915050565b602080825282516001600160a01b0316828201528201516001600160601b031660408083019190915282015180151560608301526000905060608301516001600160401b038116608084015250608083015160e060a084015261237d6101008401826122d0565b905060a0840151601f19808584030160c086015261239b83836122d0565b925060c08601519150808584030160e086015250610eed82826122d0565b60008083601f8401126123cb57600080fd5b5081356001600160401b038111156123e257600080fd5b6020830191508360208285010111156123fa57600080fd5b9250929050565b60008060006040848603121561241657600080fd5b8335925060208401356001600160401b0381111561243357600080fd5b61243f868287016123b9565b9497909650939450505050565b80356001600160a01b038116811461246357600080fd5b919050565b60006020828403121561247a57600080fd5b6124838261244c565b9392505050565b6000806040838503121561249d57600080fd5b82359150602083013580151581146124b457600080fd5b809150509250929050565b60008060008060008060006080888a0312156124da57600080fd5b87356001600160401b03808211156124f157600080fd5b6124fd8b838c016123b9565b909950975060208a013591508082111561251657600080fd5b6125228b838c016123b9565b909750955060408a013591506001600160601b038216821461254357600080fd5b9093506060890135908082111561255957600080fd5b506125668a828b016123b9565b989b979a50959850939692959293505050565b634e487b7160e01b600052602160045260246000fd5b6007811061259f5761259f612579565b9052565b8881526001600160a01b03881660208201526001600160601b038781166040830152861660608201526001600160401b038581166080830152841660a082015261010081016125f560c083018561258f565b8260e08301529998505050505050505050565b6000806040838503121561261b57600080fd5b6126248361244c565b91506126326020840161244c565b90509250929050565b6000806000806060858703121561265157600080fd5b8435935060208501356004811061266757600080fd5b925060408501356001600160401b0381111561268257600080fd5b61268e878288016123b9565b95989497509550505050565b6000610100820190508251825260018060a01b03602084015116602083015260408301516001600160601b03808216604085015280606086015116606085015250506001600160401b03608084015116608083015260a083015161270960a08401826001600160401b03169052565b5060c083015161271c60c084018261258f565b5060e092830151919092015290565b6001600160a01b03881681526001600160601b038716602082015285151560408201526001600160401b038516606082015260e060808201819052600090612775908301866122d0565b82810360a084015261278781866122d0565b905082810360c084015261279b81856122d0565b9a9950505050505050505050565b600080604083850312156127bc57600080fd5b50508035926020909101359150565b6020808252600a90820152697265656e7472616e637960b01b604082015260600190565b634e487b7160e01b600052601160045260246000fd5b6001600160401b03818116838216019080821115612825576128256127ef565b5092915050565b60006001600160401b03808316818103612848576128486127ef565b6001019392505050565b6001600160801b03818116838216019080821115612825576128256127ef565b8082028115828204841417612889576128896127ef565b92915050565b6000826128ac57634e487b7160e01b600052601260045260246000fd5b500490565b80820180821115612889576128896127ef565b81810381811115612889576128896127ef565b600181811c908216806128eb57607f821691505b60208210810361290b57634e487b7160e01b600052602260045260246000fd5b50919050565b81835281816020850137506000828201602090810191909152601f909101601f19169091010190565b60208152600061294e602083018486612911565b949350505050565b600060018201612968576129686127ef565b5060010190565b634e487b7160e01b600052604160045260246000fd5b601f8211156122b2576000816000526020600020601f850160051c810160208610156129ae5750805b601f850160051c820191505b818110156129cd578281556001016129ba565b505050505050565b81516001600160401b038111156129ee576129ee61296f565b612a02816129fc84546128d7565b84612985565b602080601f831160018114612a375760008415612a1f5750858301515b600019600386901b1c1916600185901b1785556129cd565b600085815260208120601f198616915b82811015612a6657888601518255948401946001909101908401612a47565b5085821015612a845787850151600019600388901b60f8161c191681555b5050505050600190811b01905550565b6001600160601b0384168152604060208201526000610eed604083018486612911565b600060048510612ac957612ac9612579565b84825260406020830152610eed60408301848661291156fea26469706673582212202cf49531f0b1fccacf0c88dcf21cd5de7f1627793cf84e955a43de437b788e4664736f6c63430008180033",
  "linkReferences": {},
  "deployedLinkReferences": {}
}